{
  "contractName": "AccessControl",
  "abi": [
    {
      "constant": true,
      "inputs": [
        {
          "name": "_operator",
          "type": "address"
        },
        {
          "name": "_role",
          "type": "string"
        }
      ],
      "name": "checkRole",
      "outputs": [],
      "payable": false,
      "stateMutability": "view",
      "type": "function"
    },
    {
      "constant": true,
      "inputs": [
        {
          "name": "_operator",
          "type": "address"
        },
        {
          "name": "_role",
          "type": "string"
        }
      ],
      "name": "hasRole",
      "outputs": [
        {
          "name": "",
          "type": "bool"
        }
      ],
      "payable": false,
      "stateMutability": "view",
      "type": "function"
    },
    {
      "constant": true,
      "inputs": [],
      "name": "ROLE_SYS_ADMIN",
      "outputs": [
        {
          "name": "",
          "type": "string"
        }
      ],
      "payable": false,
      "stateMutability": "view",
      "type": "function"
    },
    {
      "constant": true,
      "inputs": [],
      "name": "paused",
      "outputs": [
        {
          "name": "",
          "type": "bool"
        }
      ],
      "payable": false,
      "stateMutability": "view",
      "type": "function"
    },
    {
      "constant": true,
      "inputs": [],
      "name": "newContractAddress",
      "outputs": [
        {
          "name": "",
          "type": "address"
        }
      ],
      "payable": false,
      "stateMutability": "view",
      "type": "function"
    },
    {
      "constant": true,
      "inputs": [],
      "name": "ROLE_STORE_OWNER",
      "outputs": [
        {
          "name": "",
          "type": "string"
        }
      ],
      "payable": false,
      "stateMutability": "view",
      "type": "function"
    },
    {
      "inputs": [],
      "payable": false,
      "stateMutability": "nonpayable",
      "type": "constructor"
    },
    {
      "anonymous": false,
      "inputs": [
        {
          "indexed": false,
          "name": "newContract",
          "type": "address"
        }
      ],
      "name": "ContractUpgrade",
      "type": "event"
    },
    {
      "anonymous": false,
      "inputs": [],
      "name": "ContractPaused",
      "type": "event"
    },
    {
      "anonymous": false,
      "inputs": [],
      "name": "ContractUnpaused",
      "type": "event"
    },
    {
      "anonymous": false,
      "inputs": [
        {
          "indexed": true,
          "name": "operator",
          "type": "address"
        },
        {
          "indexed": false,
          "name": "role",
          "type": "string"
        }
      ],
      "name": "RoleAdded",
      "type": "event"
    },
    {
      "anonymous": false,
      "inputs": [
        {
          "indexed": true,
          "name": "operator",
          "type": "address"
        },
        {
          "indexed": false,
          "name": "role",
          "type": "string"
        }
      ],
      "name": "RoleRemoved",
      "type": "event"
    },
    {
      "constant": false,
      "inputs": [
        {
          "name": "_newAddr",
          "type": "address"
        }
      ],
      "name": "setNetAddress",
      "outputs": [],
      "payable": false,
      "stateMutability": "nonpayable",
      "type": "function"
    },
    {
      "constant": false,
      "inputs": [],
      "name": "pause",
      "outputs": [],
      "payable": false,
      "stateMutability": "nonpayable",
      "type": "function"
    },
    {
      "constant": false,
      "inputs": [],
      "name": "unpause",
      "outputs": [],
      "payable": false,
      "stateMutability": "nonpayable",
      "type": "function"
    }
  ],
  "bytecode": "0x60806040526000600160006101000a81548160ff02191690831515021790555034801561002b57600080fd5b5060018060006101000a81548160ff02191690831515021790555061008b336040518060400160405280600e81526020017f726f6c652f7379732d61646d696e0000000000000000000000000000000000008152506100d560201b60201c565b6100d0336040518060400160405280601081526020017f726f6c652f73746f72652d6f776e6572000000000000000000000000000000008152506100d560201b60201c565b610269565b610154826000836040518082805190602001908083835b6020831061010f57805182526020820191506020810190506020830392506100ec565b6001836020036101000a038019825116818451168082178552505050505050905001915050908152602001604051809103902061020b60201b6109c91790919060201c565b8173ffffffffffffffffffffffffffffffffffffffff167fbfec83d64eaa953f2708271a023ab9ee82057f8f3578d548c1a4ba0b5b700489826040518080602001828103825283818151815260200191508051906020019080838360005b838110156101cd5780820151818401526020810190506101b2565b50505050905090810190601f1680156101fa5780820380516001836020036101000a031916815260200191505b509250505060405180910390a25050565b60018260000160008373ffffffffffffffffffffffffffffffffffffffff1673ffffffffffffffffffffffffffffffffffffffff16815260200190815260200160002060006101000a81548160ff0219169083151502179055505050565b610a53806102786000396000f3fe608060405234801561001057600080fd5b50600436106100935760003560e01c806356de8ccd1161006657806356de8ccd146102b45780635c975abb146103375780636af04a5714610359578063804ce1df146103a35780638456cb591461042657610093565b80630988ca8c14610098578063217fe6c6146101735780633f4ba83a146102665780634e730d7314610270575b600080fd5b610171600480360360408110156100ae57600080fd5b81019080803573ffffffffffffffffffffffffffffffffffffffff169060200190929190803590602001906401000000008111156100eb57600080fd5b8201836020820111156100fd57600080fd5b8035906020019184600183028401116401000000008311171561011f57600080fd5b91908080601f016020809104026020016040519081016040528093929190818152602001838380828437600081840152601f19601f820116905080830192505050505050509192919290505050610430565b005b61024c6004803603604081101561018957600080fd5b81019080803573ffffffffffffffffffffffffffffffffffffffff169060200190929190803590602001906401000000008111156101c657600080fd5b8201836020820111156101d857600080fd5b803590602001918460018302840111640100000000831117156101fa57600080fd5b91908080601f016020809104026020016040519081016040528093929190818152602001838380828437600081840152601f19601f8201169050808301925050505050505091929192905050506104af565b604051808215151515815260200191505060405180910390f35b61026e610534565b005b6102b26004803603602081101561028657600080fd5b81019080803573ffffffffffffffffffffffffffffffffffffffff16906020019092919050505061063e565b005b6102bc6107a5565b6040518080602001828103825283818151815260200191508051906020019080838360005b838110156102fc5780820151818401526020810190506102e1565b50505050905090810190601f1680156103295780820380516001836020036101000a031916815260200191505b509250505060405180910390f35b61033f6107de565b604051808215151515815260200191505060405180910390f35b6103616107f1565b604051808273ffffffffffffffffffffffffffffffffffffffff1673ffffffffffffffffffffffffffffffffffffffff16815260200191505060405180910390f35b6103ab610816565b6040518080602001828103825283818151815260200191508051906020019080838360005b838110156103eb5780820151818401526020810190506103d0565b50505050905090810190601f1680156104185780820380516001836020036101000a031916815260200191505b509250505060405180910390f35b61042e61084f565b005b6104ab826000836040518082805190602001908083835b6020831061046a5780518252602082019150602081019050602083039250610447565b6001836020036101000a038019825116818451168082178552505050505050905001915050908152602001604051809103902061095990919063ffffffff16565b5050565b600061052c836000846040518082805190602001908083835b602083106104eb57805182526020820191506020810190506020830392506104c8565b6001836020036101000a038019825116818451168082178552505050505050905001915050908152602001604051809103902061097090919063ffffffff16565b905092915050565b610573336040518060400160405280600e81526020017f726f6c652f7379732d61646d696e000000000000000000000000000000000000815250610430565b600160009054906101000a900460ff166105f5576040517f08c379a000000000000000000000000000000000000000000000000000000000815260040180806020018281038252600d8152602001807f4973206e6f74207061757365640000000000000000000000000000000000000081525060200191505060405180910390fd5b6000600160006101000a81548160ff0219169083151502179055507f0e5e3b3fb504c22cf5c42fa07d521225937514c654007e1f12646f89768d6f9460405160405180910390a1565b61067d336040518060400160405280600e81526020017f726f6c652f7379732d61646d696e000000000000000000000000000000000000815250610430565b600160009054906101000a900460ff166106ff576040517f08c379a000000000000000000000000000000000000000000000000000000000815260040180806020018281038252600d8152602001807f4973206e6f74207061757365640000000000000000000000000000000000000081525060200191505060405180910390fd5b806001806101000a81548173ffffffffffffffffffffffffffffffffffffffff021916908373ffffffffffffffffffffffffffffffffffffffff1602179055507f450db8da6efbe9c22f2347f7c2021231df1fc58d3ae9a2fa75d39fa44619930581604051808273ffffffffffffffffffffffffffffffffffffffff1673ffffffffffffffffffffffffffffffffffffffff16815260200191505060405180910390a150565b6040518060400160405280600e81526020017f726f6c652f7379732d61646d696e00000000000000000000000000000000000081525081565b600160009054906101000a900460ff1681565b6001809054906101000a900473ffffffffffffffffffffffffffffffffffffffff1681565b6040518060400160405280601081526020017f726f6c652f73746f72652d6f776e65720000000000000000000000000000000081525081565b61088e336040518060400160405280600e81526020017f726f6c652f7379732d61646d696e000000000000000000000000000000000000815250610430565b600160009054906101000a900460ff1615610911576040517f08c379a000000000000000000000000000000000000000000000000000000000815260040180806020018281038252600e8152602001807f416c72656164792050617573656400000000000000000000000000000000000081525060200191505060405180910390fd5b60018060006101000a81548160ff0219169083151502179055507fab35696f06e428ebc5ceba8cd17f8fed287baf43440206d1943af1ee53e6d26760405160405180910390a1565b6109638282610970565b61096c57600080fd5b5050565b60008260000160008373ffffffffffffffffffffffffffffffffffffffff1673ffffffffffffffffffffffffffffffffffffffff16815260200190815260200160002060009054906101000a900460ff16905092915050565b60018260000160008373ffffffffffffffffffffffffffffffffffffffff1673ffffffffffffffffffffffffffffffffffffffff16815260200190815260200160002060006101000a81548160ff021916908315150217905550505056fea165627a7a72305820098b70d605267e3fe7f3a4b76b13b9e0f8e3c6025879007c7207af3a78f335320029",
  "source": "pragma solidity ^0.5.0;\n\nimport \"contracts/rbac/RBAC.sol\";\nimport \"openzeppelin-solidity/contracts/math/SafeMath.sol\";\n\ncontract AccessControl is RBAC {\n\n    using SafeMath for uint256;\n\n    constructor() public {\n        paused = true; //Start paused and will change after migration\n        addRole(msg.sender, ROLE_SYS_ADMIN);\n        addRole(msg.sender, ROLE_STORE_OWNER);\n    }\n    \n    /*\n    *   Event Section\n    */\n    //Event emitted when contract is upgraded\n    event ContractUpgrade(address newContract);\n\n    //Event emitted when contract is paused\n    event ContractPaused();\n\n    //Event emitted when contract is unpaused\n    event ContractUnpaused();\n\n    /*\n    *   Variables Section\n    */\n    //State variable to determine is contract is paused\n    bool public paused = false;\n\n    //For broken contract and upgrade required\n    address public newContractAddress;\n\n    /*\n    *   Role Section\n    */\n    //Role for the System Administrator\n    string public constant ROLE_SYS_ADMIN = \"role/sys-admin\";\n\n    //Role for the Owners of Store\n    string public constant ROLE_STORE_OWNER = \"role/store-owner\";\n\n    /*\n    *   Modifiers Section\n    */\n    modifier isAdmin() { checkRole(msg.sender, ROLE_SYS_ADMIN); _; }\n\n    modifier notPaused() { require(!paused, \"Already Paused\"); _; }\n\n    modifier isPaused() { require(paused, \"Is not paused\"); _; }\n\n    //For marking contract as upgraded\n    function setNetAddress(address _newAddr)\n        external\n        isAdmin\n        isPaused\n    {\n        newContractAddress = _newAddr;\n        emit ContractUpgrade(_newAddr);\n    }\n\n    function pause()\n        public\n        isAdmin\n        notPaused\n    {\n        paused = true;\n        emit ContractPaused();\n    }\n\n    function unpause()\n        public\n        isAdmin\n        isPaused\n    {\n        paused = false;\n        emit ContractUnpaused();\n    }\n\n}",
  "sourcePath": "/Users/luminode/Training/blockchainmarket/contracts/AccessControl.sol",
  "compiler": {
    "name": "solc",
    "version": "0.5.8+commit.23d335f2.Emscripten.clang"
  },
  "schemaVersion": "3.0.11",
  "updatedAt": "2019-07-26T04:06:32.064Z",
  "devdoc": {
    "methods": {
      "checkRole(address,string)": {
        "details": "reverts if addr does not have role",
        "params": {
          "_operator": "address",
          "_role": "the name of the role // reverts"
        }
      },
      "hasRole(address,string)": {
        "details": "determine if addr has role",
        "params": {
          "_operator": "address",
          "_role": "the name of the role"
        },
        "return": "bool"
      }
    }
  },
  "userdoc": {
    "methods": {}
  }
}