{
  "contractName": "BlockchainMarket",
  "abi": [
    {
      "constant": true,
      "inputs": [],
      "name": "owner",
      "outputs": [
        {
          "name": "",
          "type": "address"
        }
      ],
      "payable": false,
      "stateMutability": "view",
      "type": "function"
    },
    {
      "constant": true,
      "inputs": [
        {
          "name": "",
          "type": "uint256"
        }
      ],
      "name": "itemsList",
      "outputs": [
        {
          "name": "",
          "type": "bytes32"
        }
      ],
      "payable": false,
      "stateMutability": "view",
      "type": "function"
    },
    {
      "anonymous": false,
      "inputs": [
        {
          "indexed": false,
          "name": "user",
          "type": "address"
        },
        {
          "indexed": false,
          "name": "_signedup",
          "type": "bool"
        }
      ],
      "name": "LogUserSignUp",
      "type": "event"
    },
    {
      "anonymous": false,
      "inputs": [
        {
          "indexed": false,
          "name": "newAdmin",
          "type": "address"
        },
        {
          "indexed": false,
          "name": "isApproved",
          "type": "bool"
        }
      ],
      "name": "LogAdminApproved",
      "type": "event"
    },
    {
      "anonymous": false,
      "inputs": [
        {
          "indexed": false,
          "name": "newSeller",
          "type": "address"
        },
        {
          "indexed": false,
          "name": "approvedBy",
          "type": "address"
        },
        {
          "indexed": false,
          "name": "isApproved",
          "type": "bool"
        }
      ],
      "name": "LogSellerApproved",
      "type": "event"
    },
    {
      "anonymous": false,
      "inputs": [
        {
          "indexed": false,
          "name": "_sellerAdrr",
          "type": "address"
        },
        {
          "indexed": false,
          "name": "isAdded",
          "type": "bool"
        }
      ],
      "name": "LogSellerAddedItem",
      "type": "event"
    },
    {
      "anonymous": false,
      "inputs": [
        {
          "indexed": false,
          "name": "_buyerAddr",
          "type": "address"
        },
        {
          "indexed": false,
          "name": "isPurchased",
          "type": "bool"
        }
      ],
      "name": "LogItemPurchased",
      "type": "event"
    },
    {
      "anonymous": false,
      "inputs": [
        {
          "indexed": false,
          "name": "_sellerAddr",
          "type": "address"
        },
        {
          "indexed": false,
          "name": "_buyerAddr",
          "type": "address"
        },
        {
          "indexed": false,
          "name": "isTransfered",
          "type": "bool"
        }
      ],
      "name": "LogItemTransfered",
      "type": "event"
    },
    {
      "constant": false,
      "inputs": [
        {
          "name": "_userAddr",
          "type": "address"
        },
        {
          "name": "_userName",
          "type": "string"
        },
        {
          "name": "_passWord",
          "type": "string"
        }
      ],
      "name": "userSignUp",
      "outputs": [],
      "payable": false,
      "stateMutability": "nonpayable",
      "type": "function"
    },
    {
      "constant": false,
      "inputs": [
        {
          "name": "newAdmin",
          "type": "address"
        }
      ],
      "name": "approveAdmin",
      "outputs": [],
      "payable": false,
      "stateMutability": "nonpayable",
      "type": "function"
    },
    {
      "constant": false,
      "inputs": [
        {
          "name": "_userAddr",
          "type": "address"
        }
      ],
      "name": "approveSeller",
      "outputs": [],
      "payable": false,
      "stateMutability": "nonpayable",
      "type": "function"
    },
    {
      "constant": false,
      "inputs": [
        {
          "name": "_sellerAddr",
          "type": "address"
        },
        {
          "name": "_itemId",
          "type": "string"
        },
        {
          "name": "_itemName",
          "type": "string"
        },
        {
          "name": "_price",
          "type": "uint256"
        }
      ],
      "name": "sellerAddItem",
      "outputs": [],
      "payable": false,
      "stateMutability": "nonpayable",
      "type": "function"
    },
    {
      "constant": false,
      "inputs": [
        {
          "name": "_buyerAddr",
          "type": "address"
        },
        {
          "name": "_itemId",
          "type": "string"
        }
      ],
      "name": "userPurchaseItem",
      "outputs": [],
      "payable": true,
      "stateMutability": "payable",
      "type": "function"
    },
    {
      "constant": false,
      "inputs": [
        {
          "name": "_sellerAddr",
          "type": "address"
        },
        {
          "name": "_buyerAddr",
          "type": "address"
        },
        {
          "name": "_itemId",
          "type": "string"
        }
      ],
      "name": "itemTransferOwner",
      "outputs": [],
      "payable": false,
      "stateMutability": "nonpayable",
      "type": "function"
    },
    {
      "constant": true,
      "inputs": [
        {
          "name": "_itemId",
          "type": "string"
        }
      ],
      "name": "getItemOwnerHistory",
      "outputs": [
        {
          "name": "",
          "type": "uint256"
        },
        {
          "name": "",
          "type": "address[]"
        }
      ],
      "payable": false,
      "stateMutability": "view",
      "type": "function"
    },
    {
      "constant": true,
      "inputs": [
        {
          "name": "_sellerAddr",
          "type": "address"
        }
      ],
      "name": "getSellerItems",
      "outputs": [
        {
          "name": "",
          "type": "uint256"
        },
        {
          "name": "",
          "type": "bytes32[]"
        },
        {
          "name": "",
          "type": "bytes32[]"
        },
        {
          "name": "",
          "type": "uint256[]"
        },
        {
          "name": "",
          "type": "address[]"
        }
      ],
      "payable": false,
      "stateMutability": "view",
      "type": "function"
    },
    {
      "constant": true,
      "inputs": [],
      "name": "getAllUser",
      "outputs": [
        {
          "name": "",
          "type": "bytes32[]"
        }
      ],
      "payable": false,
      "stateMutability": "view",
      "type": "function"
    },
    {
      "constant": true,
      "inputs": [],
      "name": "getAllItems",
      "outputs": [
        {
          "name": "",
          "type": "uint256"
        },
        {
          "name": "",
          "type": "bytes32[]"
        },
        {
          "name": "",
          "type": "bytes32[]"
        },
        {
          "name": "",
          "type": "uint256[]"
        },
        {
          "name": "",
          "type": "address[]"
        }
      ],
      "payable": false,
      "stateMutability": "view",
      "type": "function"
    },
    {
      "constant": true,
      "inputs": [
        {
          "name": "itemId",
          "type": "string"
        }
      ],
      "name": "getPrice",
      "outputs": [
        {
          "name": "",
          "type": "uint256"
        }
      ],
      "payable": false,
      "stateMutability": "view",
      "type": "function"
    },
    {
      "constant": true,
      "inputs": [
        {
          "name": "_userAddr",
          "type": "address"
        }
      ],
      "name": "getBalance",
      "outputs": [
        {
          "name": "",
          "type": "uint256"
        }
      ],
      "payable": false,
      "stateMutability": "view",
      "type": "function"
    },
    {
      "constant": true,
      "inputs": [
        {
          "name": "_userAddr",
          "type": "address"
        }
      ],
      "name": "getUsername",
      "outputs": [
        {
          "name": "",
          "type": "bytes32"
        }
      ],
      "payable": false,
      "stateMutability": "view",
      "type": "function"
    }
  ],
  "bytecode": "0x608060405234801561001057600080fd5b506130db806100206000396000f3fe6080604052600436106100e85760003560e01c80639f3fa4811161008a578063d3cbb62b11610059578063d3cbb62b146108b5578063dbb9b90c14610a3a578063e49444b114610bb9578063f8b2cb4f14610cc1576100e8565b80639f3fa48114610554578063c2bd9d95146106dd578063ce43c0321461072c578063d250b60414610791576100e8565b80635ec5d856116100c65780635ec5d856146103805780636d73e669146103d15780638da5cb5b1461042257806392fb98cf14610479576100e8565b806347531df8146100ed5780634ba1d6aa14610159578063524f3889146102a4575b600080fd5b3480156100f957600080fd5b50610102610d26565b6040518080602001828103825283818151815260200191508051906020019060200280838360005b8381101561014557808201518184015260208101905061012a565b505050509050019250505060405180910390f35b34801561016557600080fd5b5061016e610e3a565b6040518086815260200180602001806020018060200180602001858103855289818151815260200191508051906020019060200280838360005b838110156101c35780820151818401526020810190506101a8565b50505050905001858103845288818151815260200191508051906020019060200280838360005b838110156102055780820151818401526020810190506101ea565b50505050905001858103835287818151815260200191508051906020019060200280838360005b8381101561024757808201518184015260208101905061022c565b50505050905001858103825286818151815260200191508051906020019060200280838360005b8381101561028957808201518184015260208101905061026e565b50505050905001995050505050505050505060405180910390f35b3480156102b057600080fd5b5061036a600480360360208110156102c757600080fd5b81019080803590602001906401000000008111156102e457600080fd5b8201836020820111156102f657600080fd5b8035906020019184600183028401116401000000008311171561031857600080fd5b91908080601f016020809104026020016040519081016040528093929190818152602001838380828437600081840152601f19601f82011690508083019250505050505050919291929050505061108e565b6040518082815260200191505060405180910390f35b34801561038c57600080fd5b506103cf600480360360208110156103a357600080fd5b81019080803573ffffffffffffffffffffffffffffffffffffffff1690602001909291905050506110b6565b005b3480156103dd57600080fd5b50610420600480360360208110156103f457600080fd5b81019080803573ffffffffffffffffffffffffffffffffffffffff1690602001909291905050506116da565b005b34801561042e57600080fd5b50610437611cca565b604051808273ffffffffffffffffffffffffffffffffffffffff1673ffffffffffffffffffffffffffffffffffffffff16815260200191505060405180910390f35b6105526004803603604081101561048f57600080fd5b81019080803573ffffffffffffffffffffffffffffffffffffffff169060200190929190803590602001906401000000008111156104cc57600080fd5b8201836020820111156104de57600080fd5b8035906020019184600183028401116401000000008311171561050057600080fd5b91908080601f016020809104026020016040519081016040528093929190818152602001838380828437600081840152601f19601f820116905080830192505050505050509192919290505050611cef565b005b34801561056057600080fd5b506106db6004803603608081101561057757600080fd5b81019080803573ffffffffffffffffffffffffffffffffffffffff169060200190929190803590602001906401000000008111156105b457600080fd5b8201836020820111156105c657600080fd5b803590602001918460018302840111640100000000831117156105e857600080fd5b91908080601f016020809104026020016040519081016040528093929190818152602001838380828437600081840152601f19601f8201169050808301925050505050505091929192908035906020019064010000000081111561064b57600080fd5b82018360208201111561065d57600080fd5b8035906020019184600183028401116401000000008311171561067f57600080fd5b91908080601f016020809104026020016040519081016040528093929190818152602001838380828437600081840152601f19601f82011690508083019250505050505050919291929080359060200190929190505050612081565b005b3480156106e957600080fd5b506107166004803603602081101561070057600080fd5b81019080803590602001909291905050506123af565b6040518082815260200191505060405180910390f35b34801561073857600080fd5b5061077b6004803603602081101561074f57600080fd5b81019080803573ffffffffffffffffffffffffffffffffffffffff1690602001909291905050506123d0565b6040518082815260200191505060405180910390f35b34801561079d57600080fd5b50610857600480360360208110156107b457600080fd5b81019080803590602001906401000000008111156107d157600080fd5b8201836020820111156107e357600080fd5b8035906020019184600183028401116401000000008311171561080557600080fd5b91908080601f016020809104026020016040519081016040528093929190818152602001838380828437600081840152601f19601f82011690508083019250505050505050919291929050505061241c565b6040518083815260200180602001828103825283818151815260200191508051906020019060200280838360005b838110156108a0578082015181840152602081019050610885565b50505050905001935050505060405180910390f35b3480156108c157600080fd5b50610904600480360360208110156108d857600080fd5b81019080803573ffffffffffffffffffffffffffffffffffffffff1690602001909291905050506124ef565b6040518086815260200180602001806020018060200180602001858103855289818151815260200191508051906020019060200280838360005b8381101561095957808201518184015260208101905061093e565b50505050905001858103845288818151815260200191508051906020019060200280838360005b8381101561099b578082015181840152602081019050610980565b50505050905001858103835287818151815260200191508051906020019060200280838360005b838110156109dd5780820151818401526020810190506109c2565b50505050905001858103825286818151815260200191508051906020019060200280838360005b83811015610a1f578082015181840152602081019050610a04565b50505050905001995050505050505050505060405180910390f35b348015610a4657600080fd5b50610bb760048036036060811015610a5d57600080fd5b81019080803573ffffffffffffffffffffffffffffffffffffffff16906020019092919080359060200190640100000000811115610a9a57600080fd5b820183602082011115610aac57600080fd5b80359060200191846001830284011164010000000083111715610ace57600080fd5b91908080601f016020809104026020016040519081016040528093929190818152602001838380828437600081840152601f19601f82011690508083019250505050505050919291929080359060200190640100000000811115610b3157600080fd5b820183602082011115610b4357600080fd5b80359060200191846001830284011164010000000083111715610b6557600080fd5b91908080601f016020809104026020016040519081016040528093929190818152602001838380828437600081840152601f19601f820116905080830192505050505050509192919290505050612885565b005b348015610bc557600080fd5b50610cbf60048036036060811015610bdc57600080fd5b81019080803573ffffffffffffffffffffffffffffffffffffffff169060200190929190803573ffffffffffffffffffffffffffffffffffffffff16906020019092919080359060200190640100000000811115610c3957600080fd5b820183602082011115610c4b57600080fd5b80359060200191846001830284011164010000000083111715610c6d57600080fd5b91908080601f016020809104026020016040519081016040528093929190818152602001838380828437600081840152601f19601f820116905080830192505050505050509192919290505050612bcd565b005b348015610ccd57600080fd5b50610d1060048036036020811015610ce457600080fd5b81019080803573ffffffffffffffffffffffffffffffffffffffff169060200190929190505050612f91565b6040518082815260200191505060405180910390f35b606080610d676040518060400160405280600881526020017f4e6f205573657273000000000000000000000000000000000000000000000000815250612fb2565b81600081518110610d7457fe5b60200260200101818152505060008090505b600680549050811015610e32576001600060068381548110610da457fe5b9060005260206000200160009054906101000a900473ffffffffffffffffffffffffffffffffffffffff1673ffffffffffffffffffffffffffffffffffffffff1673ffffffffffffffffffffffffffffffffffffffff16815260200190815260200160002060020154828281518110610e1957fe5b6020026020010181815250508080600101915050610d86565b508091505090565b600060608060608060006007805490509050606081604051908082528060200260200182016040528015610e7d5781602001602082028038833980820191505090505b509050606082604051908082528060200260200182016040528015610eb15781602001602082028038833980820191505090505b509050606083604051908082528060200260200182016040528015610ee55781602001602082028038833980820191505090505b50905060008090505b84811015611020576004600060078381548110610f0757fe5b9060005260206000200154815260200190815260200160002060010154848281518110610f3057fe5b6020026020010181815250506004600060078381548110610f4d57fe5b9060005260206000200154815260200190815260200160002060020154838281518110610f7657fe5b6020026020010181815250506005600060078381548110610f9357fe5b9060005260206000200154815260200190815260200160002060009054906101000a900473ffffffffffffffffffffffffffffffffffffffff16828281518110610fd957fe5b602002602001019073ffffffffffffffffffffffffffffffffffffffff16908173ffffffffffffffffffffffffffffffffffffffff16815250508080600101915050610eee565b508360078484848380548060200260200160405190810160405280929190818152602001828054801561107257602002820191906000526020600020905b81548152602001906001019080831161105e575b5050505050935098509850985098509850505050509091929394565b60006004600061109d84612fb2565b8152602001908152602001600020600201549050919050565b6000809054906101000a900473ffffffffffffffffffffffffffffffffffffffff1673ffffffffffffffffffffffffffffffffffffffff163373ffffffffffffffffffffffffffffffffffffffff161461115b576040517f08c379a000000000000000000000000000000000000000000000000000000000815260040180806020018281038252602381526020018061308d6023913960400191505060405180910390fd5b600260008090505b60068054905081101561128e573373ffffffffffffffffffffffffffffffffffffffff166006828154811061119457fe5b9060005260206000200160009054906101000a900473ffffffffffffffffffffffffffffffffffffffff1673ffffffffffffffffffffffffffffffffffffffff161415611281578160028111156111e757fe5b600160003373ffffffffffffffffffffffffffffffffffffffff1673ffffffffffffffffffffffffffffffffffffffff1681526020019081526020016000206001015414611280576040517f08c379a000000000000000000000000000000000000000000000000000000000815260040180806020018281038252602c815260200180613061602c913960400191505060405180910390fd5b5b8080600101915050611163565b508160008090505b600680549050811015611388578173ffffffffffffffffffffffffffffffffffffffff16600682815481106112c757fe5b9060005260206000200160009054906101000a900473ffffffffffffffffffffffffffffffffffffffff1673ffffffffffffffffffffffffffffffffffffffff161461137b576040517f08c379a00000000000000000000000000000000000000000000000000000000081526004018080602001828103825260178152602001807f5573657220616c7265616479207265676973746572656400000000000000000081525060200191505060405180910390fd5b8080600101915050611296565b5082600160008090505b6006805490508110156114be578273ffffffffffffffffffffffffffffffffffffffff16600682815481106113c357fe5b9060005260206000200160009054906101000a900473ffffffffffffffffffffffffffffffffffffffff1673ffffffffffffffffffffffffffffffffffffffff1614156114b15781600281111561141657fe5b600160008573ffffffffffffffffffffffffffffffffffffffff1673ffffffffffffffffffffffffffffffffffffffff1681526020019081526020016000206001015414156114b0576040517f08c379a00000000000000000000000000000000000000000000000000000000081526004018080602001828103825260298152602001806130386029913960400191505060405180910390fd5b5b8080600101915050611392565b50600160028111156114cc57fe5b600160008773ffffffffffffffffffffffffffffffffffffffff1673ffffffffffffffffffffffffffffffffffffffff16815260200190815260200160002060010181905550600160008673ffffffffffffffffffffffffffffffffffffffff1673ffffffffffffffffffffffffffffffffffffffff168152602001908152602001600020600360008773ffffffffffffffffffffffffffffffffffffffff1673ffffffffffffffffffffffffffffffffffffffff1681526020019081526020016000206000820160009054906101000a900473ffffffffffffffffffffffffffffffffffffffff168160000160006101000a81548173ffffffffffffffffffffffffffffffffffffffff021916908373ffffffffffffffffffffffffffffffffffffffff160217905550600182015481600101556002820154816002015560038201548160030155600482018160040190805461162b929190612fc0565b509050507f6060cda571e1257d12340cf81296b9e166f89ed26533b8600a78fd2d7723002085336001604051808473ffffffffffffffffffffffffffffffffffffffff1673ffffffffffffffffffffffffffffffffffffffff1681526020018373ffffffffffffffffffffffffffffffffffffffff1673ffffffffffffffffffffffffffffffffffffffff16815260200182151515158152602001935050505060405180910390a15050505050565b6000809054906101000a900473ffffffffffffffffffffffffffffffffffffffff1673ffffffffffffffffffffffffffffffffffffffff163373ffffffffffffffffffffffffffffffffffffffff161461177f576040517f08c379a000000000000000000000000000000000000000000000000000000000815260040180806020018281038252602381526020018061308d6023913960400191505060405180910390fd5b600080600090505b6006805490508110156118b2573373ffffffffffffffffffffffffffffffffffffffff16600682815481106117b857fe5b9060005260206000200160009054906101000a900473ffffffffffffffffffffffffffffffffffffffff1673ffffffffffffffffffffffffffffffffffffffff1614156118a55781600281111561180b57fe5b600160003373ffffffffffffffffffffffffffffffffffffffff1673ffffffffffffffffffffffffffffffffffffffff16815260200190815260200160002060010154146118a4576040517f08c379a000000000000000000000000000000000000000000000000000000000815260040180806020018281038252602c815260200180613061602c913960400191505060405180910390fd5b5b8080600101915050611787565b508160008090505b6006805490508110156119ac578173ffffffffffffffffffffffffffffffffffffffff16600682815481106118eb57fe5b9060005260206000200160009054906101000a900473ffffffffffffffffffffffffffffffffffffffff1673ffffffffffffffffffffffffffffffffffffffff161461199f576040517f08c379a00000000000000000000000000000000000000000000000000000000081526004018080602001828103825260178152602001807f5573657220616c7265616479207265676973746572656400000000000000000081525060200191505060405180910390fd5b80806001019150506118ba565b5082600080600090505b600680549050811015611ae2578273ffffffffffffffffffffffffffffffffffffffff16600682815481106119e757fe5b9060005260206000200160009054906101000a900473ffffffffffffffffffffffffffffffffffffffff1673ffffffffffffffffffffffffffffffffffffffff161415611ad557816002811115611a3a57fe5b600160008573ffffffffffffffffffffffffffffffffffffffff1673ffffffffffffffffffffffffffffffffffffffff168152602001908152602001600020600101541415611ad4576040517f08c379a00000000000000000000000000000000000000000000000000000000081526004018080602001828103825260298152602001806130386029913960400191505060405180910390fd5b5b80806001019150506119b6565b5060006002811115611af057fe5b600160008773ffffffffffffffffffffffffffffffffffffffff1673ffffffffffffffffffffffffffffffffffffffff16815260200190815260200160002060010181905550600160008673ffffffffffffffffffffffffffffffffffffffff1673ffffffffffffffffffffffffffffffffffffffff168152602001908152602001600020600260008773ffffffffffffffffffffffffffffffffffffffff1673ffffffffffffffffffffffffffffffffffffffff1681526020019081526020016000206000820160009054906101000a900473ffffffffffffffffffffffffffffffffffffffff168160000160006101000a81548173ffffffffffffffffffffffffffffffffffffffff021916908373ffffffffffffffffffffffffffffffffffffffff1602179055506001820154816001015560028201548160020155600382015481600301556004820181600401908054611c4f929190612fc0565b509050507fc012fbc6c20211354c1a34c9ae7b72207e37a3cb640511d54ee1412e3e8af24a856001604051808373ffffffffffffffffffffffffffffffffffffffff1673ffffffffffffffffffffffffffffffffffffffff168152602001821515151581526020019250505060405180910390a15050505050565b6000809054906101000a900473ffffffffffffffffffffffffffffffffffffffff1681565b8060008090505b600780549050811015611da457611d0c82612fb2565b60078281548110611d1957fe5b906000526020600020015414611d97576040517f08c379a00000000000000000000000000000000000000000000000000000000081526004018080602001828103825260108152602001807f4974656d20646f6e27742065786973740000000000000000000000000000000081525060200191505060405180910390fd5b8080600101915050611cf6565b506000611db083612fb2565b90506004600082815260200190815260200160002060030160009054906101000a900460ff1615611e24576040517f08c379a0000000000000000000000000000000000000000000000000000000008152600401808060200182810382526000815260200160200191505060405180910390fd5b60008490506005600083815260200190815260200160002060009054906101000a900473ffffffffffffffffffffffffffffffffffffffff1673ffffffffffffffffffffffffffffffffffffffff166108fc349081150290604051600060405180830381858888f19350505050158015611ea2573d6000803e3d6000fd5b50806005600084815260200190815260200160002060006101000a81548173ffffffffffffffffffffffffffffffffffffffff021916908373ffffffffffffffffffffffffffffffffffffffff16021790555060016004600084815260200190815260200160002060030160006101000a81548160ff021916908315150217905550600460008381526020019081526020016000206004018590806001815401808255809150509060018203906000526020600020016000909192909190916101000a81548173ffffffffffffffffffffffffffffffffffffffff021916908373ffffffffffffffffffffffffffffffffffffffff16021790555050600160008673ffffffffffffffffffffffffffffffffffffffff1673ffffffffffffffffffffffffffffffffffffffff1681526020019081526020016000206004018290806001815401808255809150509060018203906000526020600020016000909192909190915055507f411226a7359af9ae56dcd9e1a21183053f2db53ebadba087e3b7fb593ef154e3856001604051808373ffffffffffffffffffffffffffffffffffffffff1673ffffffffffffffffffffffffffffffffffffffff168152602001821515151581526020019250505060405180910390a15050505050565b8260008090505b6007805490508110156121375761209e82612fb2565b600782815481106120ab57fe5b9060005260206000200154141561212a576040517f08c379a00000000000000000000000000000000000000000000000000000000081526004018080602001828103825260138152602001807f4974656d2065786973747320616c72656164790000000000000000000000000081525060200191505060405180910390fd5b8080600101915050612088565b50600061214385612fb2565b9050600086905081600460008481526020019081526020016000206000018190555061216e85612fb2565b600460008481526020019081526020016000206001018190555083600460008481526020019081526020016000206002018190555060006004600084815260200190815260200160002060030160006101000a81548160ff021916908315150217905550600460008381526020019081526020016000206004018790806001815401808255809150509060018203906000526020600020016000909192909190916101000a81548173ffffffffffffffffffffffffffffffffffffffff021916908373ffffffffffffffffffffffffffffffffffffffff160217905550506007829080600181540180825580915050906001820390600052602060002001600090919290919091505550600160008873ffffffffffffffffffffffffffffffffffffffff1673ffffffffffffffffffffffffffffffffffffffff168152602001908152602001600020600401829080600181540180825580915050906001820390600052602060002001600090919290919091505550806005600084815260200190815260200160002060006101000a81548173ffffffffffffffffffffffffffffffffffffffff021916908373ffffffffffffffffffffffffffffffffffffffff1602179055507f098e5fe633ae86459abf2cce051df1eda8446c15d4a1ceea9c49cad0aadc15a5876001604051808373ffffffffffffffffffffffffffffffffffffffff1673ffffffffffffffffffffffffffffffffffffffff168152602001821515151581526020019250505060405180910390a150505050505050565b600781815481106123bc57fe5b906000526020600020016000915090505481565b6000600160008373ffffffffffffffffffffffffffffffffffffffff1673ffffffffffffffffffffffffffffffffffffffff168152602001908152602001600020600201549050919050565b60006060600061242b84612fb2565b9050600460008281526020019081526020016000206004018054905060046000838152602001908152602001600020600401808054806020026020016040519081016040528092919081815260200182805480156124de57602002820191906000526020600020905b8160009054906101000a900473ffffffffffffffffffffffffffffffffffffffff1673ffffffffffffffffffffffffffffffffffffffff1681526020019060010190808311612494575b505050505090509250925050915091565b60006060806060806000600160008873ffffffffffffffffffffffffffffffffffffffff1673ffffffffffffffffffffffffffffffffffffffff1681526020019081526020016000206004018054905090506060816040519080825280602002602001820160405280156125725781602001602082028038833980820191505090505b5090506060826040519080825280602002602001820160405280156125a65781602001602082028038833980820191505090505b5090506060836040519080825280602002602001820160405280156125da5781602001602082028038833980820191505090505b50905060008090505b848110156127d55760046000600160008e73ffffffffffffffffffffffffffffffffffffffff1673ffffffffffffffffffffffffffffffffffffffff168152602001908152602001600020600401838154811061263c57fe5b906000526020600020015481526020019081526020016000206001015484828151811061266557fe5b60200260200101818152505060046000600160008e73ffffffffffffffffffffffffffffffffffffffff1673ffffffffffffffffffffffffffffffffffffffff16815260200190815260200160002060040183815481106126c257fe5b90600052602060002001548152602001908152602001600020600201548382815181106126eb57fe5b60200260200101818152505060056000600160008e73ffffffffffffffffffffffffffffffffffffffff1673ffffffffffffffffffffffffffffffffffffffff168152602001908152602001600020600401838154811061274857fe5b9060005260206000200154815260200190815260200160002060009054906101000a900473ffffffffffffffffffffffffffffffffffffffff1682828151811061278e57fe5b602002602001019073ffffffffffffffffffffffffffffffffffffffff16908173ffffffffffffffffffffffffffffffffffffffff168152505080806001019150506125e3565b5083600160008c73ffffffffffffffffffffffffffffffffffffffff1673ffffffffffffffffffffffffffffffffffffffff1681526020019081526020016000206004018484848380548060200260200160405190810160405280929190818152602001828054801561286757602002820191906000526020600020905b815481526020019060010190808311612853575b50505050509350985098509850985098505050505091939590929450565b8260008090505b60068054905081101561297f578173ffffffffffffffffffffffffffffffffffffffff16600682815481106128bd57fe5b9060005260206000200160009054906101000a900473ffffffffffffffffffffffffffffffffffffffff1673ffffffffffffffffffffffffffffffffffffffff161415612972576040517f08c379a00000000000000000000000000000000000000000000000000000000081526004018080602001828103825260178152602001807f5573657220616c7265616479207265676973746572656400000000000000000081525060200191505060405180910390fd5b808060010191505061288c565b5083600160008673ffffffffffffffffffffffffffffffffffffffff1673ffffffffffffffffffffffffffffffffffffffff16815260200190815260200160002060000160006101000a81548173ffffffffffffffffffffffffffffffffffffffff021916908373ffffffffffffffffffffffffffffffffffffffff160217905550612a0a83612fb2565b600160008673ffffffffffffffffffffffffffffffffffffffff1673ffffffffffffffffffffffffffffffffffffffff16815260200190815260200160002060020181905550612a5982612fb2565b600160008673ffffffffffffffffffffffffffffffffffffffff1673ffffffffffffffffffffffffffffffffffffffff16815260200190815260200160002060030181905550600280811115612aab57fe5b600160008673ffffffffffffffffffffffffffffffffffffffff1673ffffffffffffffffffffffffffffffffffffffff1681526020019081526020016000206001018190555060068490806001815401808255809150509060018203906000526020600020016000909192909190916101000a81548173ffffffffffffffffffffffffffffffffffffffff021916908373ffffffffffffffffffffffffffffffffffffffff160217905550507f8d4d4c330ba1d92020b6fab36826b9414c26f83dfca9fa0d1c21e7a9a36b7d46846001604051808373ffffffffffffffffffffffffffffffffffffffff1673ffffffffffffffffffffffffffffffffffffffff168152602001821515151581526020019250505060405180910390a150505050565b8160008090505b600680549050811015612cc6578173ffffffffffffffffffffffffffffffffffffffff1660068281548110612c0557fe5b9060005260206000200160009054906101000a900473ffffffffffffffffffffffffffffffffffffffff1673ffffffffffffffffffffffffffffffffffffffff1614612cb9576040517f08c379a00000000000000000000000000000000000000000000000000000000081526004018080602001828103825260178152602001807f5573657220616c7265616479207265676973746572656400000000000000000081525060200191505060405180910390fd5b8080600101915050612bd4565b506000612cd283612fb2565b905060008490508573ffffffffffffffffffffffffffffffffffffffff166005600084815260200190815260200160002060009054906101000a900473ffffffffffffffffffffffffffffffffffffffff1673ffffffffffffffffffffffffffffffffffffffff1614612dad576040517f08c379a000000000000000000000000000000000000000000000000000000000815260040180806020018281038252601c8152602001807f4974656d20646f6e27742062656c6f6e677320746f2053656c6c65720000000081525060200191505060405180910390fd5b806005600084815260200190815260200160002060006101000a81548173ffffffffffffffffffffffffffffffffffffffff021916908373ffffffffffffffffffffffffffffffffffffffff160217905550600160008673ffffffffffffffffffffffffffffffffffffffff1673ffffffffffffffffffffffffffffffffffffffff168152602001908152602001600020600401829080600181540180825580915050906001820390600052602060002001600090919290919091505550600460008381526020019081526020016000206004018590806001815401808255809150509060018203906000526020600020016000909192909190916101000a81548173ffffffffffffffffffffffffffffffffffffffff021916908373ffffffffffffffffffffffffffffffffffffffff160217905550507fbae8180df0fd689eb1bf3cfe7383f203edbddc413438d17e31d0e41f1daccad286866001604051808473ffffffffffffffffffffffffffffffffffffffff1673ffffffffffffffffffffffffffffffffffffffff1681526020018373ffffffffffffffffffffffffffffffffffffffff1673ffffffffffffffffffffffffffffffffffffffff16815260200182151515158152602001935050505060405180910390a1505050505050565b60008173ffffffffffffffffffffffffffffffffffffffff16319050919050565b600060208201519050919050565b8280548282559060005260206000209081019282156130015760005260206000209182015b82811115613000578254825591600101919060010190612fe5565b5b50905061300e9190613012565b5090565b61303491905b80821115613030576000816000905550600101613018565b5090565b9056fe456c207573756172696f207961207469656e6520656c207065726d69736f20736f6c6963697461646f456c207573756172696f207961207469656e65207065726d69736f2064652041646d696e6973747261646f724f6e6c79204f776e657220697320617574686f72697a656420746f20646f2074686973a165627a7a7230582094a34da5c460fd7fc35679c7bf2e347b5fba555ac7b2bf0dd31ee02189e10d4f0029",
  "source": "pragma solidity ^0.5.0;\n\n//import \"contracts/SafeMath.sol\";\nimport \"node_modules/openzeppelin-solidity/contracts/math/SafeMath.sol\";\nimport \"contracts/Utilities.sol\";\n\ncontract BlockchainMarket is Utilities {\n\n    address payable public owner;\n    enum UserTypes {ADMIN, SELLER, BUYER}\n    UserTypes constant defaultType = UserTypes.BUYER;\n\n\n    /*\n    struct Admin {\n        address adminAddr;\n        bytes32 username;\n        bytes32 password;\n    }\n\n    struct Seller {\n        address sellerAddr;\n        bytes32 username;\n        bytes32 password;\n        bytes32[] sellerItems;\n    }\n\n    struct Buyer {\n        address buyerAddr;\n        bytes32 username;\n        bytes32 password;\n        bytes32[] buyerItems;\n    }\n    */\n\n    //Enhanced to one struct\n    struct User {\n        address UserAddr;\n        uint userType;\n        bytes32 userName;\n        bytes32 passWord;\n        bytes32[] userItems;\n    }\n\n    struct Item {\n        bytes32 itemId;\n        bytes32 itemName;\n        uint price;\n        bool purchased;\n        address[] ownerHistoric;\n    }\n\n    mapping(address => User) users;\n    mapping(address => User) admins;\n    mapping(address => User) sellers;\n    // mapping(address => Buyer) buyers;\n    mapping(bytes32 => Item) items;\n    mapping(bytes32 => address payable) itemOwner;\n\n    address[] userAddr;\n    bytes32[] public itemsList;\n\n    event LogUserSignUp(address user, bool _signedup); //User set default as buyer have to apply to become authorized seller\n    event LogAdminApproved(address newAdmin, bool isApproved);\n    event LogSellerApproved(address newSeller, address approvedBy, bool isApproved);\n    event LogSellerAddedItem(address _sellerAdrr, bool isAdded);\n    event LogItemPurchased(address _buyerAddr, bool isPurchased);\n    event LogItemTransfered(address _sellerAddr, address _buyerAddr, bool isTransfered);\n\n    modifier isOwner(){require(msg.sender==owner, \"Only Owner is authorized to do this\"); _;}\n\n    // modifier isAdmin(){\n    //     for(uint i = 0; i < userAddr.length; i++) {\n    //         if (userAddr[i] == msg.sender) {\n    //             require(users[msg.sender].userType == uint256(UserTypes.ADMIN), \"El usuario ya tiene permiso de Administrador\");\n    //         }\n    //     }\n    //     _;\n    // }\n\n    // modifier isBuyer(){\n    //     for(uint i = 0; i < userAddr.length; i++) {\n    //         if (userAddr[i] == msg.sender) {\n    //             require(users[msg.sender].userType == uint256(UserTypes.BUYER), \"El usuario ya tiene permiso de Administrador\");\n    //         }\n    //     }\n    //     _;\n    // }\n\n\n    // modifier isSeller()){\n    //     for(uint i = 0; i < userAddr.length; i++) {\n    //         if (userAddr[i] == msg.sender) {\n    //             require(users[msg.sender].userType == uint256(UserTypes.SELLER), \"El usuario ya tiene permiso de Administrador\");\n    //         }\n    //     }\n    //     _;\n    // }\n    //Merge 3 modifiers in one\n    modifier isCorrectUserType(UserTypes _userType){\n        for(uint i = 0; i < userAddr.length; i++) {\n            if (userAddr[i] == msg.sender) {\n                require(users[msg.sender].userType == uint256(_userType), \"El usuario ya tiene permiso de Administrador\");\n            }\n        }\n        _;\n    }\n\n    modifier isSignedUp(address _userAddr){\n        for(uint i = 0; i < userAddr.length; i++) {\n            require (userAddr[i] == _userAddr, \"User already registered\");\n        }\n        _;\n    }\n\n    modifier isNotSignedUp(address _userAddr){\n        for(uint i = 0; i < userAddr.length; i++) {\n            require (userAddr[i] != _userAddr, \"User already registered\");\n        }\n        _;\n    }\n\n    // modifier isNotAdminAlready(address _userAddr){\n    //     for(uint i = 0; i < userAddr.length; i++) {\n    //         if (userAddr[i] == _userAddr) {\n    //             require(users[userAddr[i]].userType != uint256(UserTypes.ADMIN), \"El usuario ya tiene permiso de Administrador\");\n    //         }\n    //     }\n    //     _;\n    // }\n\n    // modifier isNotSellerAlready(address _userAddr){\n    //     for(uint i = 0; i < userAddr.length; i++) {\n    //         if (userAddr[i] == _userAddr) {\n    //             require(users[userAddr[i]].userType != uint256(UserTypes.SELLER), \"El usuario ya tiene permiso de Vendedor\");\n    //         }\n    //     }\n    //     _;\n    // }\n    //Merged the modifiers in the next one\n    modifier isNotSetAlready(address _userAddr, UserTypes _userType){\n        for(uint i = 0; i < userAddr.length; i++) {\n            if (userAddr[i] == _userAddr) {\n                require(users[_userAddr].userType != uint256(_userType), \"El usuario ya tiene el permiso solicitado\");\n            }\n        }\n        _;\n    }\n\n    modifier isItemCreated(string memory _itemId) {\n        for(uint i = 0; i < itemsList.length; i++) {\n            require(itemsList[i] != stringToBytes32(_itemId), \"Item exists already\");\n        }\n        _;\n    }\n\n    modifier isItemAvailable(string memory _itemId) {\n        for(uint i = 0; i < itemsList.length; i++) {\n            require(itemsList[i] == stringToBytes32(_itemId), \"Item don't exist\");\n        }\n        _;\n    }\n\n\n    //Start Functions\n    function userSignUp(address _userAddr, string memory _userName, string memory _passWord)\n        public\n        isNotSignedUp(_userAddr)\n    {\n        users[_userAddr].UserAddr = _userAddr;\n        users[_userAddr].userName = stringToBytes32(_userName);\n        users[_userAddr].passWord = stringToBytes32(_passWord);\n        users[_userAddr].userType = uint256(defaultType);\n        userAddr.push(_userAddr);\n        emit LogUserSignUp(_userAddr, true);\n    }\n\n    function approveAdmin(address newAdmin)\n        public\n        isOwner\n        isCorrectUserType(UserTypes.ADMIN)\n        isSignedUp(newAdmin)\n        isNotSetAlready(newAdmin, UserTypes.ADMIN)\n    {\n        users[newAdmin].userType = uint256(UserTypes.ADMIN);\n        admins[newAdmin] = users[newAdmin];\n        emit LogAdminApproved(newAdmin, true);\n    }\n\n    function approveSeller(address _userAddr)\n        public\n        isOwner\n        isCorrectUserType(UserTypes.BUYER)\n        isSignedUp(_userAddr)\n        isNotSetAlready(_userAddr, UserTypes.SELLER)\n    {\n        users[_userAddr].userType = uint256(UserTypes.SELLER);\n        sellers[_userAddr] = users[_userAddr];\n        emit LogSellerApproved(_userAddr, msg.sender, true);\n    }\n\n    function sellerAddItem(address _sellerAddr, string memory _itemId, string memory _itemName, uint _price)\n        public\n        isItemCreated(_itemId)\n    {\n        bytes32 newId = stringToBytes32(_itemId);\n        address payable _newAddr = address(uint160(_sellerAddr));\n        items[newId].itemId = newId;\n        items[newId].itemName = stringToBytes32(_itemName);\n        items[newId].price = _price;\n        items[newId].purchased = false;\n        items[newId].ownerHistoric.push(_sellerAddr);\n\n        itemsList.push(newId);\n        users[_sellerAddr].userItems.push(newId);\n        itemOwner[newId] = _newAddr;\n        emit LogSellerAddedItem(_sellerAddr, true);\n    }\n\n    function userPurchaseItem(address _buyerAddr, string memory _itemId)\n        public\n        payable\n        isItemAvailable(_itemId)\n    {\n        bytes32 newId = stringToBytes32(_itemId);\n        require(!items[newId].purchased, \"\");\n\n        address payable _newAddr = address(uint160(_buyerAddr));\n\n        itemOwner[newId].transfer(msg.value);\n        itemOwner[newId] = _newAddr;\n        items[newId].purchased = true;\n        items[newId].ownerHistoric.push(_buyerAddr);\n        users[_buyerAddr].userItems.push(newId);\n\n        emit LogItemPurchased(_buyerAddr, true);\n    }\n\n    function itemTransferOwner(address _sellerAddr, address _buyerAddr, string memory _itemId)\n        public\n        isSignedUp(_buyerAddr)\n    {\n        bytes32 newId = stringToBytes32(_itemId);\n        address payable _newAddr = address(uint160(_buyerAddr));\n\n        require(itemOwner[newId] == _sellerAddr, \"Item don't belongs to Seller\");\n        itemOwner[newId] = _newAddr;\n        users[_buyerAddr].userItems.push(newId);\n        items[newId].ownerHistoric.push(_buyerAddr);\n\n        emit LogItemTransfered(_sellerAddr, _buyerAddr, true);\n    }\n\n    function getItemOwnerHistory(string memory _itemId)\n        public\n        view\n        returns (uint, address[] memory )\n    {\n        bytes32 newId = stringToBytes32(_itemId);\n        return (items[newId].ownerHistoric.length, items[newId].ownerHistoric);\n    }\n\n    function getSellerItems(address _sellerAddr)\n        public\n        view\n        returns (uint, bytes32[] memory, bytes32[] memory, uint[] memory, address[] memory)\n    {\n        uint length = users[_sellerAddr].userItems.length;\n        bytes32[] memory itemName = new bytes32[](length);\n        uint[] memory itemPrice = new uint[](length);\n        address[] memory _itemOwner = new address[](length);\n\n        for(uint i = 0; i < length; i++) {\n            itemName[i] = items[users[_sellerAddr].userItems[i]].itemName;\n            itemPrice[i] = items[users[_sellerAddr].userItems[i]].price;\n            _itemOwner[i] = itemOwner[users[_sellerAddr].userItems[i]];\n        }\n\n        return (length, users[_sellerAddr].userItems, itemName, itemPrice, _itemOwner);\n    }\n\n    function getAllUser()\n        public\n        view\n        returns (bytes32[] memory)\n    {\n        bytes32[] memory _users;\n        _users[0] = stringToBytes32(\"No Users\");\n        for (uint i = 0; i < userAddr.length; i++) {\n            _users[i] = users[userAddr[i]].userName;\n        }\n\n        return _users;\n    }\n\n    function getAllItems()\n        public\n        view\n        returns (uint, bytes32[] memory, bytes32[] memory, uint[] memory, address[] memory)\n    {\n        uint length = itemsList.length;\n        bytes32[] memory itemName = new bytes32[](length);\n        uint[] memory itemPrice = new uint[](length);\n        address[] memory _itemOwner = new address[](length);\n\n        for(uint i = 0; i < length; i++) {\n            itemName[i] = items[itemsList[i]].itemName;\n            itemPrice[i] = items[itemsList[i]].price;\n            _itemOwner[i] = itemOwner[itemsList[i]];\n        }\n\n        return (length, itemsList, itemName, itemPrice, _itemOwner);\n    }\n\n    function getPrice(string memory itemId)\n        public\n        view\n        returns (uint)\n    {\n        return items[stringToBytes32(itemId)].price;\n    }\n\n    function getBalance(address _userAddr)\n        public\n        view\n        returns (uint)\n    {\n        return _userAddr.balance;\n    }\n\n    function getUsername(address _userAddr)\n        public\n        view\n        returns (bytes32)\n    {\n        return users[_userAddr].userName;\n    }\n}",
  "sourcePath": "/Users/luminode/Training/blockchainmarket/contracts/BlockchainMarket.sol",
  "compiler": {
    "name": "solc",
    "version": "0.5.8+commit.23d335f2.Emscripten.clang"
  },
  "schemaVersion": "3.0.11",
  "updatedAt": "2019-07-25T21:00:32.741Z",
  "devdoc": {
    "methods": {}
  },
  "userdoc": {
    "methods": {}
  }
}