{
  "contractName": "BlockchainMarket",
  "abi": [
    {
      "constant": true,
      "inputs": [
        {
          "name": "_operator",
          "type": "address"
        },
        {
          "name": "_role",
          "type": "string"
        }
      ],
      "name": "checkRole",
      "outputs": [],
      "payable": false,
      "stateMutability": "view",
      "type": "function"
    },
    {
      "constant": true,
      "inputs": [
        {
          "name": "_operator",
          "type": "address"
        },
        {
          "name": "_role",
          "type": "string"
        }
      ],
      "name": "hasRole",
      "outputs": [
        {
          "name": "",
          "type": "bool"
        }
      ],
      "payable": false,
      "stateMutability": "view",
      "type": "function"
    },
    {
      "constant": true,
      "inputs": [
        {
          "name": "",
          "type": "uint256"
        }
      ],
      "name": "users",
      "outputs": [
        {
          "name": "userId",
          "type": "uint256"
        },
        {
          "name": "userAddr",
          "type": "address"
        },
        {
          "name": "userName",
          "type": "string"
        }
      ],
      "payable": false,
      "stateMutability": "view",
      "type": "function"
    },
    {
      "constant": false,
      "inputs": [],
      "name": "unpause",
      "outputs": [],
      "payable": false,
      "stateMutability": "nonpayable",
      "type": "function"
    },
    {
      "constant": false,
      "inputs": [
        {
          "name": "_newAddr",
          "type": "address"
        }
      ],
      "name": "setNetAddress",
      "outputs": [],
      "payable": false,
      "stateMutability": "nonpayable",
      "type": "function"
    },
    {
      "constant": true,
      "inputs": [],
      "name": "ROLE_SYS_ADMIN",
      "outputs": [
        {
          "name": "",
          "type": "string"
        }
      ],
      "payable": false,
      "stateMutability": "view",
      "type": "function"
    },
    {
      "constant": true,
      "inputs": [],
      "name": "paused",
      "outputs": [
        {
          "name": "",
          "type": "bool"
        }
      ],
      "payable": false,
      "stateMutability": "view",
      "type": "function"
    },
    {
      "constant": true,
      "inputs": [],
      "name": "newContractAddress",
      "outputs": [
        {
          "name": "",
          "type": "address"
        }
      ],
      "payable": false,
      "stateMutability": "view",
      "type": "function"
    },
    {
      "constant": true,
      "inputs": [
        {
          "name": "",
          "type": "uint256"
        }
      ],
      "name": "userRegistered",
      "outputs": [
        {
          "name": "",
          "type": "address"
        }
      ],
      "payable": false,
      "stateMutability": "view",
      "type": "function"
    },
    {
      "constant": true,
      "inputs": [],
      "name": "ROLE_STORE_OWNER",
      "outputs": [
        {
          "name": "",
          "type": "string"
        }
      ],
      "payable": false,
      "stateMutability": "view",
      "type": "function"
    },
    {
      "constant": false,
      "inputs": [],
      "name": "pause",
      "outputs": [],
      "payable": false,
      "stateMutability": "nonpayable",
      "type": "function"
    },
    {
      "constant": false,
      "inputs": [
        {
          "name": "_userName",
          "type": "string"
        }
      ],
      "name": "signUp",
      "outputs": [
        {
          "name": "",
          "type": "uint256"
        }
      ],
      "payable": false,
      "stateMutability": "nonpayable",
      "type": "function"
    },
    {
      "constant": true,
      "inputs": [
        {
          "name": "",
          "type": "uint256"
        }
      ],
      "name": "items",
      "outputs": [
        {
          "name": "itemId",
          "type": "uint256"
        },
        {
          "name": "userId",
          "type": "uint256"
        },
        {
          "name": "price",
          "type": "uint256"
        },
        {
          "name": "name",
          "type": "string"
        }
      ],
      "payable": false,
      "stateMutability": "view",
      "type": "function"
    },
    {
      "constant": true,
      "inputs": [
        {
          "name": "",
          "type": "uint256"
        },
        {
          "name": "",
          "type": "uint256"
        }
      ],
      "name": "userItems",
      "outputs": [
        {
          "name": "",
          "type": "uint256"
        }
      ],
      "payable": false,
      "stateMutability": "view",
      "type": "function"
    },
    {
      "anonymous": false,
      "inputs": [
        {
          "indexed": false,
          "name": "userId",
          "type": "uint256"
        },
        {
          "indexed": true,
          "name": "userAddr",
          "type": "address"
        },
        {
          "indexed": false,
          "name": "userName",
          "type": "string"
        }
      ],
      "name": "NewUserSignUp",
      "type": "event"
    },
    {
      "anonymous": false,
      "inputs": [
        {
          "indexed": false,
          "name": "newContract",
          "type": "address"
        }
      ],
      "name": "ContractUpgrade",
      "type": "event"
    },
    {
      "anonymous": false,
      "inputs": [],
      "name": "ContractPaused",
      "type": "event"
    },
    {
      "anonymous": false,
      "inputs": [],
      "name": "ContractUnpaused",
      "type": "event"
    },
    {
      "anonymous": false,
      "inputs": [
        {
          "indexed": true,
          "name": "operator",
          "type": "address"
        },
        {
          "indexed": false,
          "name": "role",
          "type": "string"
        }
      ],
      "name": "RoleAdded",
      "type": "event"
    },
    {
      "anonymous": false,
      "inputs": [
        {
          "indexed": true,
          "name": "operator",
          "type": "address"
        },
        {
          "indexed": false,
          "name": "role",
          "type": "string"
        }
      ],
      "name": "RoleRemoved",
      "type": "event"
    },
    {
      "constant": true,
      "inputs": [],
      "name": "isBlockchainMarket",
      "outputs": [
        {
          "name": "",
          "type": "bool"
        }
      ],
      "payable": false,
      "stateMutability": "pure",
      "type": "function"
    },
    {
      "constant": true,
      "inputs": [
        {
          "name": "_userId",
          "type": "uint256"
        }
      ],
      "name": "getItemIds",
      "outputs": [
        {
          "name": "",
          "type": "uint256[]"
        }
      ],
      "payable": false,
      "stateMutability": "view",
      "type": "function"
    },
    {
      "constant": true,
      "inputs": [
        {
          "name": "_seller",
          "type": "address"
        }
      ],
      "name": "getItemIdsByAdd",
      "outputs": [
        {
          "name": "",
          "type": "uint256[]"
        }
      ],
      "payable": false,
      "stateMutability": "view",
      "type": "function"
    },
    {
      "constant": true,
      "inputs": [
        {
          "name": "_itemId",
          "type": "uint256"
        }
      ],
      "name": "getItem",
      "outputs": [
        {
          "name": "",
          "type": "uint256"
        },
        {
          "name": "",
          "type": "uint256"
        },
        {
          "name": "",
          "type": "uint256"
        },
        {
          "name": "",
          "type": "string"
        }
      ],
      "payable": false,
      "stateMutability": "view",
      "type": "function"
    },
    {
      "constant": true,
      "inputs": [
        {
          "name": "_userAddr",
          "type": "address"
        }
      ],
      "name": "getUserId",
      "outputs": [
        {
          "name": "",
          "type": "uint256"
        }
      ],
      "payable": false,
      "stateMutability": "view",
      "type": "function"
    },
    {
      "constant": true,
      "inputs": [
        {
          "name": "_userId",
          "type": "uint256"
        }
      ],
      "name": "getUser",
      "outputs": [
        {
          "name": "",
          "type": "uint256"
        },
        {
          "name": "",
          "type": "address"
        },
        {
          "name": "",
          "type": "string"
        }
      ],
      "payable": false,
      "stateMutability": "view",
      "type": "function"
    }
  ],
  "bytecode": "0x60806040526000600160006101000a81548160ff02191690831515021790555060018060006101000a81548160ff02191690831515021790555062000080336040518060400160405280600e81526020017f726f6c652f7379732d61646d696e000000000000000000000000000000000000815250620000cd60201b60201c565b620000c7336040518060400160405280601081526020017f726f6c652f73746f72652d6f776e657200000000000000000000000000000000815250620000cd60201b60201c565b62000269565b62000151826000836040518082805190602001908083835b602083106200010a5780518252602082019150602081019050602083039250620000e5565b6001836020036101000a03801982511681845116808217855250505050505090500191505090815260200160405180910390206200020b60201b62001b961790919060201c565b8173ffffffffffffffffffffffffffffffffffffffff167fbfec83d64eaa953f2708271a023ab9ee82057f8f3578d548c1a4ba0b5b700489826040518080602001828103825283818151815260200191508051906020019080838360005b83811015620001cc578082015181840152602081019050620001af565b50505050905090810190601f168015620001fa5780820380516001836020036101000a031916815260200191505b509250505060405180910390a25050565b60018260000160008373ffffffffffffffffffffffffffffffffffffffff1673ffffffffffffffffffffffffffffffffffffffff16815260200190815260200160002060006101000a81548160ff0219169083151502179055505050565b611d2480620002796000396000f3fe608060405234801561001057600080fd5b506004361061012c5760003560e01c8063637767cc116100ad578063ace87e8b11610071578063ace87e8b14610848578063adcfb4fc1461086a578063b0467deb146108f7578063bfb231d2146109d8578063f81b46a914610a945761012c565b8063637767cc146106805780636af04a57146107035780636b7a42e31461074d578063804ce1df146107bb5780638456cb591461083e5761012c565b8063365b98b2116100f4578063365b98b2146104ac5780633f4ba83a1461058d5780634e730d731461059757806356de8ccd146105db5780635c975abb1461065e5761012c565b80630988ca8c14610131578063217fe6c61461020c5780632376c8c8146102ff5780632b956ff7146103985780633129e773146103f0575b600080fd5b61020a6004803603604081101561014757600080fd5b81019080803573ffffffffffffffffffffffffffffffffffffffff1690602001909291908035906020019064010000000081111561018457600080fd5b82018360208201111561019657600080fd5b803590602001918460018302840111640100000000831117156101b857600080fd5b91908080601f016020809104026020016040519081016040528093929190818152602001838380828437600081840152601f19601f820116905080830192505050505050509192919290505050610ae0565b005b6102e56004803603604081101561022257600080fd5b81019080803573ffffffffffffffffffffffffffffffffffffffff1690602001909291908035906020019064010000000081111561025f57600080fd5b82018360208201111561027157600080fd5b8035906020019184600183028401116401000000008311171561029357600080fd5b91908080601f016020809104026020016040519081016040528093929190818152602001838380828437600081840152601f19601f820116905080830192505050505050509192919290505050610b5f565b604051808215151515815260200191505060405180910390f35b6103416004803603602081101561031557600080fd5b81019080803573ffffffffffffffffffffffffffffffffffffffff169060200190929190505050610be4565b6040518080602001828103825283818151815260200191508051906020019060200280838360005b83811015610384578082015181840152602081019050610369565b505050509050019250505060405180910390f35b6103da600480360360208110156103ae57600080fd5b81019080803573ffffffffffffffffffffffffffffffffffffffff169060200190929190505050610c7b565b6040518082815260200191505060405180910390f35b61041c6004803603602081101561040657600080fd5b8101908080359060200190929190505050610cc4565b6040518085815260200184815260200183815260200180602001828103825283818151815260200191508051906020019080838360005b8381101561046e578082015181840152602081019050610453565b50505050905090810190601f16801561049b5780820380516001836020036101000a031916815260200191505b509550505050505060405180910390f35b6104d8600480360360208110156104c257600080fd5b8101908080359060200190929190505050610e5c565b604051808481526020018373ffffffffffffffffffffffffffffffffffffffff1673ffffffffffffffffffffffffffffffffffffffff16815260200180602001828103825283818151815260200191508051906020019080838360005b83811015610550578082015181840152602081019050610535565b50505050905090810190601f16801561057d5780820380516001836020036101000a031916815260200191505b5094505050505060405180910390f35b610595610f4b565b005b6105d9600480360360208110156105ad57600080fd5b81019080803573ffffffffffffffffffffffffffffffffffffffff169060200190929190505050611055565b005b6105e36111bc565b6040518080602001828103825283818151815260200191508051906020019080838360005b83811015610623578082015181840152602081019050610608565b50505050905090810190601f1680156106505780820380516001836020036101000a031916815260200191505b509250505060405180910390f35b6106666111f5565b604051808215151515815260200191505060405180910390f35b6106ac6004803603602081101561069657600080fd5b8101908080359060200190929190505050611208565b6040518080602001828103825283818151815260200191508051906020019060200280838360005b838110156106ef5780820151818401526020810190506106d4565b505050509050019250505060405180910390f35b61070b611273565b604051808273ffffffffffffffffffffffffffffffffffffffff1673ffffffffffffffffffffffffffffffffffffffff16815260200191505060405180910390f35b6107796004803603602081101561076357600080fd5b8101908080359060200190929190505050611298565b604051808273ffffffffffffffffffffffffffffffffffffffff1673ffffffffffffffffffffffffffffffffffffffff16815260200191505060405180910390f35b6107c36112cb565b6040518080602001828103825283818151815260200191508051906020019080838360005b838110156108035780820151818401526020810190506107e8565b50505050905090810190601f1680156108305780820380516001836020036101000a031916815260200191505b509250505060405180910390f35b610846611304565b005b61085061140e565b604051808215151515815260200191505060405180910390f35b6108e16004803603602081101561088057600080fd5b810190808035906020019064010000000081111561089d57600080fd5b8201836020820111156108af57600080fd5b803590602001918460018302840111640100000000831117156108d157600080fd5b9091929391929390505050611417565b6040518082815260200191505060405180910390f35b6109236004803603602081101561090d57600080fd5b8101908080359060200190929190505050611720565b604051808481526020018373ffffffffffffffffffffffffffffffffffffffff1673ffffffffffffffffffffffffffffffffffffffff16815260200180602001828103825283818151815260200191508051906020019080838360005b8381101561099b578082015181840152602081019050610980565b50505050905090810190601f1680156109c85780820380516001836020036101000a031916815260200191505b5094505050505060405180910390f35b610a04600480360360208110156109ee57600080fd5b81019080803590602001909291905050506118f1565b6040518085815260200184815260200183815260200180602001828103825283818151815260200191508051906020019080838360005b83811015610a56578082015181840152602081019050610a3b565b50505050905090810190601f168015610a835780820380516001836020036101000a031916815260200191505b509550505050505060405180910390f35b610aca60048036036040811015610aaa57600080fd5b8101908080359060200190929190803590602001909291905050506119c6565b6040518082815260200191505060405180910390f35b610b5b826000836040518082805190602001908083835b60208310610b1a5780518252602082019150602081019050602083039250610af7565b6001836020036101000a03801982511681845116808217855250505050505090500191505090815260200160405180910390206119f490919063ffffffff16565b5050565b6000610bdc836000846040518082805190602001908083835b60208310610b9b5780518252602082019150602081019050602083039250610b78565b6001836020036101000a0380198251168184511680821785525050505050509050019150509081526020016040518091039020611a0b90919063ffffffff16565b905092915050565b6060600460008373ffffffffffffffffffffffffffffffffffffffff1673ffffffffffffffffffffffffffffffffffffffff168152602001908152602001600020805480602002602001604051908101604052809291908181526020018280548015610c6f57602002820191906000526020600020905b815481526020019060010190808311610c5b575b50505050509050919050565b6000600560008373ffffffffffffffffffffffffffffffffffffffff1673ffffffffffffffffffffffffffffffffffffffff168152602001908152602001600020549050919050565b600080600060606003805490508510610d45576040517f08c379a00000000000000000000000000000000000000000000000000000000081526004018080602001828103825260178152602001807f4964206f66204974656d206f7574206f662072616e676500000000000000000081525060200191505060405180910390fd5b610d4d611bf4565b60038681548110610d5a57fe5b9060005260206000209060040201604051806080016040529081600082015481526020016001820154815260200160028201548152602001600382018054600181600116156101000203166002900480601f016020809104026020016040519081016040528092919081815260200182805460018160011615610100020316600290048015610e2a5780601f10610dff57610100808354040283529160200191610e2a565b820191906000526020600020905b815481529060010190602001808311610e0d57829003601f168201915b505050505081525050905080600001518160200151826040015183606001518090509450945094509450509193509193565b60028181548110610e6957fe5b90600052602060002090600302016000915090508060000154908060010160009054906101000a900473ffffffffffffffffffffffffffffffffffffffff1690806002018054600181600116156101000203166002900480601f016020809104026020016040519081016040528092919081815260200182805460018160011615610100020316600290048015610f415780601f10610f1657610100808354040283529160200191610f41565b820191906000526020600020905b815481529060010190602001808311610f2457829003601f168201915b5050505050905083565b610f8a336040518060400160405280600e81526020017f726f6c652f7379732d61646d696e000000000000000000000000000000000000815250610ae0565b600160009054906101000a900460ff1661100c576040517f08c379a000000000000000000000000000000000000000000000000000000000815260040180806020018281038252600d8152602001807f4973206e6f74207061757365640000000000000000000000000000000000000081525060200191505060405180910390fd5b6000600160006101000a81548160ff0219169083151502179055507f0e5e3b3fb504c22cf5c42fa07d521225937514c654007e1f12646f89768d6f9460405160405180910390a1565b611094336040518060400160405280600e81526020017f726f6c652f7379732d61646d696e000000000000000000000000000000000000815250610ae0565b600160009054906101000a900460ff16611116576040517f08c379a000000000000000000000000000000000000000000000000000000000815260040180806020018281038252600d8152602001807f4973206e6f74207061757365640000000000000000000000000000000000000081525060200191505060405180910390fd5b806001806101000a81548173ffffffffffffffffffffffffffffffffffffffff021916908373ffffffffffffffffffffffffffffffffffffffff1602179055507f450db8da6efbe9c22f2347f7c2021231df1fc58d3ae9a2fa75d39fa44619930581604051808273ffffffffffffffffffffffffffffffffffffffff1673ffffffffffffffffffffffffffffffffffffffff16815260200191505060405180910390a150565b6040518060400160405280600e81526020017f726f6c652f7379732d61646d696e00000000000000000000000000000000000081525081565b600160009054906101000a900460ff1681565b60606007600083815260200190815260200160002080548060200260200160405190810160405280929190818152602001828054801561126757602002820191906000526020600020905b815481526020019060010190808311611253575b50505050509050919050565b6001809054906101000a900473ffffffffffffffffffffffffffffffffffffffff1681565b60066020528060005260406000206000915054906101000a900473ffffffffffffffffffffffffffffffffffffffff1681565b6040518060400160405280601081526020017f726f6c652f73746f72652d6f776e65720000000000000000000000000000000081525081565b611343336040518060400160405280600e81526020017f726f6c652f7379732d61646d696e000000000000000000000000000000000000815250610ae0565b600160009054906101000a900460ff16156113c6576040517f08c379a000000000000000000000000000000000000000000000000000000000815260040180806020018281038252600e8152602001807f416c72656164792050617573656400000000000000000000000000000000000081525060200191505060405180910390fd5b60018060006101000a81548160ff0219169083151502179055507fab35696f06e428ebc5ceba8cd17f8fed287baf43440206d1943af1ee53e6d26760405160405180910390a1565b60006001905090565b6000600160009054906101000a900460ff161561149c576040517f08c379a000000000000000000000000000000000000000000000000000000000815260040180806020018281038252600e8152602001807f416c72656164792050617573656400000000000000000000000000000000000081525060200191505060405180910390fd5b600060028054905090506000339050600260405180606001604052808481526020018373ffffffffffffffffffffffffffffffffffffffff16815260200187878080601f016020809104026020016040519081016040528093929190818152602001838380828437600081840152601f19601f82011690508083019250505050505050815250908060018154018082558091505090600182039060005260206000209060030201600090919290919091506000820151816000015560208201518160010160006101000a81548173ffffffffffffffffffffffffffffffffffffffff021916908373ffffffffffffffffffffffffffffffffffffffff16021790555060408201518160020190805190602001906115ba929190611c1c565b50505050806006600084815260200190815260200160002060006101000a81548173ffffffffffffffffffffffffffffffffffffffff021916908373ffffffffffffffffffffffffffffffffffffffff16021790555081600560008373ffffffffffffffffffffffffffffffffffffffff1673ffffffffffffffffffffffffffffffffffffffff16815260200190815260200160002081905550611693816040518060400160405280601081526020017f726f6c652f73746f72652d6f776e657200000000000000000000000000000000815250611a64565b8073ffffffffffffffffffffffffffffffffffffffff167f971d5202970f7df6de485a4f216b8e633cc033b64d287d015a021575001cd60683878760405180848152602001806020018281038252848482818152602001925080828437600081840152601f19601f82011690508083019250505094505050505060405180910390a2819250505092915050565b6000806060600280549050841061179f576040517f08c379a00000000000000000000000000000000000000000000000000000000081526004018080602001828103825260178152602001807f4964206f662055736572206f7574206f662072616e676500000000000000000081525060200191505060405180910390fd5b6117a7611c9c565b600285815481106117b457fe5b9060005260206000209060030201604051806060016040529081600082015481526020016001820160009054906101000a900473ffffffffffffffffffffffffffffffffffffffff1673ffffffffffffffffffffffffffffffffffffffff1673ffffffffffffffffffffffffffffffffffffffff168152602001600282018054600181600116156101000203166002900480601f0160208091040260200160405190810160405280929190818152602001828054600181600116156101000203166002900480156118c65780601f1061189b576101008083540402835291602001916118c6565b820191906000526020600020905b8154815290600101906020018083116118a957829003601f168201915b5050505050815250509050806000015181602001518260400151809050935093509350509193909250565b600381815481106118fe57fe5b9060005260206000209060040201600091509050806000015490806001015490806002015490806003018054600181600116156101000203166002900480601f0160208091040260200160405190810160405280929190818152602001828054600181600116156101000203166002900480156119bc5780601f10611991576101008083540402835291602001916119bc565b820191906000526020600020905b81548152906001019060200180831161199f57829003601f168201915b5050505050905084565b600760205281600052604060002081815481106119df57fe5b90600052602060002001600091509150505481565b6119fe8282611a0b565b611a0757600080fd5b5050565b60008260000160008373ffffffffffffffffffffffffffffffffffffffff1673ffffffffffffffffffffffffffffffffffffffff16815260200190815260200160002060009054906101000a900460ff16905092915050565b611adf826000836040518082805190602001908083835b60208310611a9e5780518252602082019150602081019050602083039250611a7b565b6001836020036101000a0380198251168184511680821785525050505050509050019150509081526020016040518091039020611b9690919063ffffffff16565b8173ffffffffffffffffffffffffffffffffffffffff167fbfec83d64eaa953f2708271a023ab9ee82057f8f3578d548c1a4ba0b5b700489826040518080602001828103825283818151815260200191508051906020019080838360005b83811015611b58578082015181840152602081019050611b3d565b50505050905090810190601f168015611b855780820380516001836020036101000a031916815260200191505b509250505060405180910390a25050565b60018260000160008373ffffffffffffffffffffffffffffffffffffffff1673ffffffffffffffffffffffffffffffffffffffff16815260200190815260200160002060006101000a81548160ff0219169083151502179055505050565b6040518060800160405280600081526020016000815260200160008152602001606081525090565b828054600181600116156101000203166002900490600052602060002090601f016020900481019282601f10611c5d57805160ff1916838001178555611c8b565b82800160010185558215611c8b579182015b82811115611c8a578251825591602001919060010190611c6f565b5b509050611c989190611cd3565b5090565b604051806060016040528060008152602001600073ffffffffffffffffffffffffffffffffffffffff168152602001606081525090565b611cf591905b80821115611cf1576000816000905550600101611cd9565b5090565b9056fea165627a7a72305820cecc5c75adb84d362347b7e8477dafd9346956efb031164d4686c5955ab85f340029",
  "source": "pragma solidity ^0.5.0;\n\n//import \"contracts/SafeMath.sol\";\n//import \"node_modules/openzeppelin-solidity/contracts/math/SafeMath.sol\";\n//import \"contracts/Utilities.sol\";\nimport \"contracts/UserFactory.sol\";\n\ncontract BlockchainMarket is UserFactory {\n\n    function isBlockchainMarket() external pure returns (bool) {\n        return true;\n    }\n    \n    function getItemIds(uint256 _userId)\n        external\n        view\n        returns (uint[] memory)\n    {\n        return userItems[_userId];\n    }\n\n    function getItemIdsByAdd(address _seller)\n        external\n        view\n        returns (uint[] memory)\n    {\n        return userItemList[_seller];\n    }\n\n    function getItem(uint256 _itemId)\n        external\n        view\n        returns (uint256, uint256, uint256, string memory)\n    {\n        require(_itemId < items.length, \"Id of Item out of range\");\n        Item memory item = items[_itemId];\n        return (\n            item.itemId,\n            item.userId,\n            item.price,\n            item.name\n        );\n    }\n\n    function getUserId(address _userAddr)\n        external\n        view\n        returns (uint)\n    {\n        return addressUserId[_userAddr];\n    }\n\n    function getUser(uint256 _userId)\n        external\n        view\n        returns (uint256, address, string memory)\n    {\n        require(_userId < users.length, \"Id of User out of range\");\n        User memory user = users[_userId];\n        return (\n            user.userId,\n            user.userAddr,\n            user.userName\n        );\n    }\n\n    // address payable public owner;\n\n    // bytes32[] public userList;\n\n    // event LogUserSignUp(address user, bool _signedup); //User set default as buyer have to apply to become authorized seller\n    // event LogAdminApproved(address newAdmin, bool isApproved);\n    // event LogSellerApproved(address newSeller, address approvedBy, bool isApproved);\n    // event LogSellerAddedItem(address _sellerAdrr, bool isAdded);\n    // event LogItemPurchased(address _buyerAddr, bool isPurchased);\n    // event LogItemTransfered(address _sellerAddr, address _buyerAddr, bool isTransfered);\n\n    // modifier isOwner(){require(msg.sender==owner, \"Only Owner is authorized to do this\"); _;}\n\n    // modifier isCorrectUserType(UserTypes _userType){\n    //     require(users[msg.sender].userType == uint256(_userType), \"El usuario ya tiene permiso de Administrador\");\n    //     _;\n    // }\n\n    // modifier isSignedUp(address _userAddr){\n    //     require(users[_userAddr].UserAddr != address(0x0), \"User not signed up\");\n    //     _;\n    // }\n\n    // modifier isNotSignedUp(address _userAddr){\n    //     require(users[_userAddr].UserAddr == address(0x0), \"User already registered\");\n    //     _;\n    // }\n\n    // modifier isNotSetAlready(address _userAddr, UserTypes _userType){\n    //     require(users[_userAddr].userType != uint256(_userType), \"El usuario ya tiene el permiso solicitado\");\n    //     _;\n    // }\n\n    // modifier isItemCreated(string memory _itemId) {\n    //     require(keccak256(bytes(items[_itemId].itemId)) == keccak256(bytes(_itemId)), \"Item exists already\");\n    //     _;\n    // }\n\n    // modifier isItemAvailable(string memory _itemId) {\n\n    //     for(uint i = 0; i < itemsList.length; i++) {\n    //         require(keccak256(bytes(itemsList[i])) == keccak256(bytes(_itemId)), \"Item don't exist\");\n    //     }\n    //     _;\n    // }\n\n\n    //Start Functions\n    // function userSignUp(address _userAddr, string memory _userName)\n    //     public\n    //     isNotSignedUp(_userAddr)\n    // {\n    //     users[_userAddr].UserAddr = _userAddr;\n    //     users[_userAddr].userName = _userName;\n    //     userAddr.push(_userAddr);\n    //     emit LogUserSignUp(_userAddr, true);\n    // }\n\n    // function approveAdmin(address newAdmin)\n    //     public\n    //     isOwner\n    //     isCorrectUserType(UserTypes.ADMIN)\n    //     isSignedUp(newAdmin)\n    //     isNotSetAlready(newAdmin, UserTypes.ADMIN)\n    // {\n    //     users[newAdmin].userType = uint256(UserTypes.ADMIN);\n    //     admins[newAdmin] = users[newAdmin];\n    //     emit LogAdminApproved(newAdmin, true);\n    // }\n\n    // function approveSeller(address _userAddr)\n    //     public\n    //     isOwner\n    //     isCorrectUserType(UserTypes.BUYER)\n    //     isSignedUp(_userAddr)\n    //     isNotSetAlready(_userAddr, UserTypes.SELLER)\n    // {\n    //     users[_userAddr].userType = uint256(UserTypes.SELLER);\n    //     sellers[_userAddr] = users[_userAddr];\n    //     emit LogSellerApproved(_userAddr, msg.sender, true);\n    // }\n\n    // function sellerAddItem(address _sellerAddr, string memory _itemId, string memory _itemName, uint _price)\n    //     public\n    //     isItemCreated(_itemId)\n    // {\n    //     address payable _newAddr = address(uint160(_sellerAddr));\n    //     items[_itemId].itemId = _itemId;\n    //     items[_itemId].itemName = _itemName;\n    //     items[_itemId].price = _price;\n    //     items[_itemId].purchased = false;\n    //     items[_itemId].ownerHistoric.push(_sellerAddr);\n\n    //     itemsList.push(_itemId);\n    //     users[_sellerAddr].userItems.push(_itemId);\n    //     itemOwner[_itemId] = _newAddr;\n    //     emit LogSellerAddedItem(_sellerAddr, true);\n    // }\n\n    // function userPurchaseItem(address _buyerAddr, string memory _itemId)\n    //     public\n    //     payable\n    //     isItemAvailable(_itemId)\n    // {\n    //     require(!items[_itemId].purchased, \"\");\n\n    //     address payable _newAddr = address(uint160(_buyerAddr));\n\n    //     itemOwner[_itemId].transfer(msg.value);\n    //     itemOwner[_itemId] = _newAddr;\n    //     items[_itemId].purchased = true;\n    //     items[_itemId].ownerHistoric.push(_buyerAddr);\n    //     users[_buyerAddr].userItems.push(_itemId);\n\n    //     emit LogItemPurchased(_buyerAddr, true);\n    // }\n\n    // function itemTransferOwner(address _sellerAddr, address _buyerAddr, string memory _itemId)\n    //     public\n    //     isSignedUp(_buyerAddr)\n    // {\n    //     address payable _newAddr = address(uint160(_buyerAddr));\n\n    //     require(itemOwner[_itemId] == _sellerAddr, \"Item don't belongs to Seller\");\n    //     itemOwner[_itemId] = _newAddr;\n    //     users[_buyerAddr].userItems.push(_itemId);\n    //     items[_itemId].ownerHistoric.push(_buyerAddr);\n\n    //     emit LogItemTransfered(_sellerAddr, _buyerAddr, true);\n    // }\n\n    // function getItemOwnerHistory(string memory _itemId)\n    //     public\n    //     view\n    //     returns (uint, address[] memory )\n    // {\n    //     return (items[_itemId].ownerHistoric.length, items[_itemId].ownerHistoric);\n    // }\n\n    // function getSellerItems(address _sellerAddr)\n    //     public\n    //     view\n    //     returns (uint, string[] memory, string[] memory, uint[] memory, address[] memory)\n    // {\n    //     uint length = users[_sellerAddr].userItems.length;\n    //     string[] memory itemName = new string[](length);\n    //     uint[] memory itemPrice = new uint[](length);\n    //     address[] memory _itemOwner = new address[](length);\n\n    //     for(uint i = 0; i < length; i++) {\n    //         itemName[i] = items[users[_sellerAddr].userItems[i]].itemName;\n    //         itemPrice[i] = items[users[_sellerAddr].userItems[i]].price;\n    //         _itemOwner[i] = itemOwner[users[_sellerAddr].userItems[i]];\n    //     }\n\n    //     return (length, users[_sellerAddr].userItems, itemName, itemPrice, _itemOwner);\n    // }\n\n    // function getAllUser()\n    //     public\n    //     view\n    //     returns (bytes32[] memory)\n    // {\n    //     //bytes32[] memory _users;\n    //     //_users.push(\"User ONE\");\n    //     // for (uint i = 0; i < userAddr.length; i++) {\n    //     //     _users[i] = users[userAddr[i]].userName;\n    //     // }\n\n    //     return userList;\n    // }\n\n    // function getAllItems()\n    //     public\n    //     view\n    //     returns (uint, string[] memory, string[] memory, uint[] memory, address[] memory)\n    // {\n    //     uint length = itemsList.length;\n    //     string[] memory itemName = new string[](length);\n    //     uint[] memory itemPrice = new uint[](length);\n    //     address[] memory _itemOwner = new address[](length);\n\n    //     for(uint i = 0; i < length; i++) {\n    //         itemName[i] = items[itemsList[i]].itemName;\n    //         itemPrice[i] = items[itemsList[i]].price;\n    //         _itemOwner[i] = itemOwner[itemsList[i]];\n    //     }\n\n    //     return (length, itemsList, itemName, itemPrice, _itemOwner);\n    // }\n\n    // function getPrice(string memory itemId)\n    //     public\n    //     view\n    //     returns (uint)\n    // {\n    //     return items[itemId].price;\n    // }\n\n    // function getBalance(address _userAddr)\n    //     public\n    //     view\n    //     returns (uint)\n    // {\n    //     return _userAddr.balance;\n    // }\n\n    // function getUsername(address _userAddr)\n    //     public\n    //     view\n    //     returns (string memory)\n    // {\n    //     return users[_userAddr].userName;\n    // }\n}",
  "sourcePath": "/Users/luminode/Training/blockchainmarket/contracts/BlockchainMarket.sol",
  "compiler": {
    "name": "solc",
    "version": "0.5.8+commit.23d335f2.Emscripten.clang"
  },
  "schemaVersion": "3.0.11",
  "updatedAt": "2019-07-26T07:12:55.383Z",
  "devdoc": {
    "methods": {
      "checkRole(address,string)": {
        "details": "reverts if addr does not have role",
        "params": {
          "_operator": "address",
          "_role": "the name of the role // reverts"
        }
      },
      "hasRole(address,string)": {
        "details": "determine if addr has role",
        "params": {
          "_operator": "address",
          "_role": "the name of the role"
        },
        "return": "bool"
      }
    }
  },
  "userdoc": {
    "methods": {}
  }
}