{
  "contractName": "BlockchainMarket",
  "abi": [
    {
      "constant": true,
      "inputs": [
        {
          "name": "_operator",
          "type": "address"
        },
        {
          "name": "_role",
          "type": "string"
        }
      ],
      "name": "checkRole",
      "outputs": [],
      "payable": false,
      "stateMutability": "view",
      "type": "function"
    },
    {
      "constant": false,
      "inputs": [
        {
          "name": "_oldAdmin",
          "type": "address"
        }
      ],
      "name": "removeAdmin",
      "outputs": [],
      "payable": false,
      "stateMutability": "nonpayable",
      "type": "function"
    },
    {
      "constant": true,
      "inputs": [
        {
          "name": "_operator",
          "type": "address"
        },
        {
          "name": "_role",
          "type": "string"
        }
      ],
      "name": "hasRole",
      "outputs": [
        {
          "name": "",
          "type": "bool"
        }
      ],
      "payable": false,
      "stateMutability": "view",
      "type": "function"
    },
    {
      "constant": false,
      "inputs": [],
      "name": "unpause",
      "outputs": [],
      "payable": false,
      "stateMutability": "nonpayable",
      "type": "function"
    },
    {
      "constant": true,
      "inputs": [
        {
          "name": "",
          "type": "address"
        }
      ],
      "name": "admins",
      "outputs": [
        {
          "name": "",
          "type": "bool"
        }
      ],
      "payable": false,
      "stateMutability": "view",
      "type": "function"
    },
    {
      "constant": false,
      "inputs": [
        {
          "name": "_newAddr",
          "type": "address"
        }
      ],
      "name": "setNetAddress",
      "outputs": [],
      "payable": false,
      "stateMutability": "nonpayable",
      "type": "function"
    },
    {
      "constant": true,
      "inputs": [],
      "name": "ROLE_SYS_ADMIN",
      "outputs": [
        {
          "name": "",
          "type": "string"
        }
      ],
      "payable": false,
      "stateMutability": "view",
      "type": "function"
    },
    {
      "constant": true,
      "inputs": [],
      "name": "paused",
      "outputs": [
        {
          "name": "",
          "type": "bool"
        }
      ],
      "payable": false,
      "stateMutability": "view",
      "type": "function"
    },
    {
      "constant": true,
      "inputs": [],
      "name": "newContractAddress",
      "outputs": [
        {
          "name": "",
          "type": "address"
        }
      ],
      "payable": false,
      "stateMutability": "view",
      "type": "function"
    },
    {
      "constant": false,
      "inputs": [
        {
          "name": "_newAdmin",
          "type": "address"
        }
      ],
      "name": "setAdmin",
      "outputs": [],
      "payable": false,
      "stateMutability": "nonpayable",
      "type": "function"
    },
    {
      "constant": true,
      "inputs": [],
      "name": "ROLE_STORE_OWNER",
      "outputs": [
        {
          "name": "",
          "type": "string"
        }
      ],
      "payable": false,
      "stateMutability": "view",
      "type": "function"
    },
    {
      "constant": false,
      "inputs": [],
      "name": "pause",
      "outputs": [],
      "payable": false,
      "stateMutability": "nonpayable",
      "type": "function"
    },
    {
      "constant": true,
      "inputs": [
        {
          "name": "",
          "type": "address"
        }
      ],
      "name": "users",
      "outputs": [
        {
          "name": "name",
          "type": "string"
        }
      ],
      "payable": false,
      "stateMutability": "view",
      "type": "function"
    },
    {
      "constant": true,
      "inputs": [
        {
          "name": "",
          "type": "uint256"
        }
      ],
      "name": "stores",
      "outputs": [
        {
          "name": "owner",
          "type": "address"
        },
        {
          "name": "name",
          "type": "string"
        },
        {
          "name": "skuTotal",
          "type": "uint256"
        },
        {
          "name": "balance",
          "type": "uint256"
        }
      ],
      "payable": false,
      "stateMutability": "view",
      "type": "function"
    },
    {
      "constant": false,
      "inputs": [
        {
          "name": "_storeName",
          "type": "string"
        },
        {
          "name": "_storeOwner",
          "type": "address"
        },
        {
          "name": "_storeSkuTotal",
          "type": "uint256"
        }
      ],
      "name": "newStore",
      "outputs": [
        {
          "name": "",
          "type": "uint256"
        }
      ],
      "payable": false,
      "stateMutability": "nonpayable",
      "type": "function"
    },
    {
      "constant": false,
      "inputs": [
        {
          "name": "_newOwner",
          "type": "address"
        }
      ],
      "name": "transferOwnership",
      "outputs": [],
      "payable": false,
      "stateMutability": "nonpayable",
      "type": "function"
    },
    {
      "constant": false,
      "inputs": [
        {
          "name": "_itemName",
          "type": "string"
        },
        {
          "name": "_itemPrice",
          "type": "uint256"
        },
        {
          "name": "_itemSKU",
          "type": "uint256"
        },
        {
          "name": "_storeId",
          "type": "uint256"
        },
        {
          "name": "_imageHash",
          "type": "string"
        }
      ],
      "name": "newItem",
      "outputs": [
        {
          "name": "",
          "type": "uint256"
        }
      ],
      "payable": false,
      "stateMutability": "nonpayable",
      "type": "function"
    },
    {
      "inputs": [],
      "payable": false,
      "stateMutability": "nonpayable",
      "type": "constructor"
    },
    {
      "anonymous": false,
      "inputs": [
        {
          "indexed": false,
          "name": "_storeId",
          "type": "uint256"
        },
        {
          "indexed": false,
          "name": "_sku",
          "type": "uint256"
        },
        {
          "indexed": false,
          "name": "_quantity",
          "type": "uint256"
        }
      ],
      "name": "PurchaseItem",
      "type": "event"
    },
    {
      "anonymous": false,
      "inputs": [
        {
          "indexed": false,
          "name": "_storeId",
          "type": "uint256"
        },
        {
          "indexed": false,
          "name": "_sku",
          "type": "uint256"
        }
      ],
      "name": "DeleteItem",
      "type": "event"
    },
    {
      "anonymous": false,
      "inputs": [
        {
          "indexed": false,
          "name": "_owner",
          "type": "address"
        },
        {
          "indexed": false,
          "name": "_balance",
          "type": "uint256"
        }
      ],
      "name": "WithdrawAll",
      "type": "event"
    },
    {
      "anonymous": false,
      "inputs": [
        {
          "indexed": false,
          "name": "_storeName",
          "type": "string"
        },
        {
          "indexed": false,
          "name": "_storeOwner",
          "type": "address"
        },
        {
          "indexed": false,
          "name": "_skuTotal",
          "type": "uint256"
        }
      ],
      "name": "NewStore",
      "type": "event"
    },
    {
      "anonymous": false,
      "inputs": [
        {
          "indexed": false,
          "name": "newContract",
          "type": "address"
        }
      ],
      "name": "ContractUpgrade",
      "type": "event"
    },
    {
      "anonymous": false,
      "inputs": [
        {
          "indexed": false,
          "name": "_newAdmin",
          "type": "address"
        }
      ],
      "name": "AdminAdded",
      "type": "event"
    },
    {
      "anonymous": false,
      "inputs": [
        {
          "indexed": false,
          "name": "_oldAdmin",
          "type": "address"
        }
      ],
      "name": "AdminRemoved",
      "type": "event"
    },
    {
      "anonymous": false,
      "inputs": [],
      "name": "ContractPaused",
      "type": "event"
    },
    {
      "anonymous": false,
      "inputs": [],
      "name": "ContractUnpaused",
      "type": "event"
    },
    {
      "anonymous": false,
      "inputs": [
        {
          "indexed": true,
          "name": "operator",
          "type": "address"
        },
        {
          "indexed": false,
          "name": "role",
          "type": "string"
        }
      ],
      "name": "RoleAdded",
      "type": "event"
    },
    {
      "anonymous": false,
      "inputs": [
        {
          "indexed": true,
          "name": "operator",
          "type": "address"
        },
        {
          "indexed": false,
          "name": "role",
          "type": "string"
        }
      ],
      "name": "RoleRemoved",
      "type": "event"
    },
    {
      "constant": true,
      "inputs": [
        {
          "name": "_storeId",
          "type": "uint256"
        },
        {
          "name": "_itemSku",
          "type": "uint256"
        }
      ],
      "name": "getOrder",
      "outputs": [
        {
          "name": "quantity",
          "type": "uint256"
        },
        {
          "name": "price",
          "type": "uint256"
        }
      ],
      "payable": false,
      "stateMutability": "view",
      "type": "function"
    },
    {
      "constant": true,
      "inputs": [
        {
          "name": "_sku",
          "type": "uint256"
        },
        {
          "name": "_storeId",
          "type": "uint256"
        }
      ],
      "name": "getItem",
      "outputs": [
        {
          "name": "name",
          "type": "string"
        },
        {
          "name": "sku",
          "type": "uint256"
        },
        {
          "name": "price",
          "type": "uint256"
        },
        {
          "name": "image",
          "type": "string"
        }
      ],
      "payable": false,
      "stateMutability": "view",
      "type": "function"
    },
    {
      "constant": true,
      "inputs": [
        {
          "name": "_storeId",
          "type": "uint256"
        }
      ],
      "name": "getStoreTotalItems",
      "outputs": [
        {
          "name": "",
          "type": "uint256"
        }
      ],
      "payable": false,
      "stateMutability": "view",
      "type": "function"
    },
    {
      "constant": true,
      "inputs": [],
      "name": "getStoreTotal",
      "outputs": [
        {
          "name": "",
          "type": "uint256"
        }
      ],
      "payable": false,
      "stateMutability": "view",
      "type": "function"
    },
    {
      "constant": false,
      "inputs": [
        {
          "name": "_sku",
          "type": "uint256"
        },
        {
          "name": "_quantity",
          "type": "uint256"
        },
        {
          "name": "_storeId",
          "type": "uint256"
        }
      ],
      "name": "purchaseItem",
      "outputs": [],
      "payable": true,
      "stateMutability": "payable",
      "type": "function"
    },
    {
      "constant": false,
      "inputs": [
        {
          "name": "_sku",
          "type": "uint256"
        },
        {
          "name": "_storeId",
          "type": "uint256"
        }
      ],
      "name": "deleteItem",
      "outputs": [],
      "payable": false,
      "stateMutability": "nonpayable",
      "type": "function"
    },
    {
      "constant": true,
      "inputs": [
        {
          "name": "_storeId",
          "type": "uint256"
        }
      ],
      "name": "getStore",
      "outputs": [
        {
          "name": "",
          "type": "string"
        },
        {
          "name": "",
          "type": "address"
        },
        {
          "name": "",
          "type": "uint256"
        }
      ],
      "payable": false,
      "stateMutability": "view",
      "type": "function"
    },
    {
      "constant": true,
      "inputs": [
        {
          "name": "_storeId",
          "type": "uint256"
        }
      ],
      "name": "getBalance",
      "outputs": [
        {
          "name": "",
          "type": "uint256"
        }
      ],
      "payable": false,
      "stateMutability": "view",
      "type": "function"
    },
    {
      "constant": false,
      "inputs": [
        {
          "name": "_storeId",
          "type": "uint256"
        },
        {
          "name": "_total",
          "type": "uint256"
        }
      ],
      "name": "withdrawBalance",
      "outputs": [],
      "payable": true,
      "stateMutability": "payable",
      "type": "function"
    },
    {
      "constant": false,
      "inputs": [],
      "name": "withdrawAll",
      "outputs": [],
      "payable": false,
      "stateMutability": "nonpayable",
      "type": "function"
    }
  ],
  "bytecode": "0x60806040526000600160146101000a81548160ff021916908315150217905550600060045560006005553480156200003657600080fd5b5060018060146101000a81548160ff02191690831515021790555033600160006101000a81548173ffffffffffffffffffffffffffffffffffffffff021916908373ffffffffffffffffffffffffffffffffffffffff160217905550620000fb600160009054906101000a900473ffffffffffffffffffffffffffffffffffffffff166040518060400160405280600e81526020017f726f6c652f7379732d61646d696e000000000000000000000000000000000000815250620001e460201b60201c565b62000164600160009054906101000a900473ffffffffffffffffffffffffffffffffffffffff166040518060400160405280601081526020017f726f6c652f73746f72652d6f776e657200000000000000000000000000000000815250620001e460201b60201c565b600160036000600160009054906101000a900473ffffffffffffffffffffffffffffffffffffffff1673ffffffffffffffffffffffffffffffffffffffff1673ffffffffffffffffffffffffffffffffffffffff16815260200190815260200160002060006101000a81548160ff02191690831515021790555062000380565b62000268826000836040518082805190602001908083835b60208310620002215780518252602082019150602081019050602083039250620001fc565b6001836020036101000a03801982511681845116808217855250505050505090500191505090815260200160405180910390206200032260201b620032581790919060201c565b8173ffffffffffffffffffffffffffffffffffffffff167fbfec83d64eaa953f2708271a023ab9ee82057f8f3578d548c1a4ba0b5b700489826040518080602001828103825283818151815260200191508051906020019080838360005b83811015620002e3578082015181840152602081019050620002c6565b50505050905090810190601f168015620003115780820380516001836020036101000a031916815260200191505b509250505060405180910390a25050565b60018260000160008373ffffffffffffffffffffffffffffffffffffffff1673ffffffffffffffffffffffffffffffffffffffff16815260200190815260200160002060006101000a81548160ff0219169083151502179055505050565b61347d80620003906000396000f3fe60806040526004361061019c5760003560e01c806366020ba5116100ec578063853828b61161008a578063e8a59cd811610064578063e8a59cd814610ba8578063eefb1c6214610c9d578063f2fde38b14610da3578063feaf35e114610df45761019c565b8063853828b614610a78578063a87430ba14610a8f578063da85aec514610b595761019c565b80637fa242e0116100c65780637fa242e0146108b8578063804ce1df146108e357806383403120146109735780638456cb5914610a615761019c565b806366020ba5146107ce5780636af04a5714610810578063704b6c02146108675761019c565b80634e730d73116101595780635c975abb116101335780635c975abb146106c25780635e1a3573146106f1578063618a7e1d14610751578063632bd76a146107965761019c565b80634e730d73146104a957806356de8ccd146104fa57806359cc334a1461058a5761019c565b80630988ca8c146101a15780631785f53c146102895780631e010439146102da578063217fe6c6146103295780633f4ba83a14610429578063429b62e514610440575b600080fd5b3480156101ad57600080fd5b50610287600480360360408110156101c457600080fd5b81019080803573ffffffffffffffffffffffffffffffffffffffff1690602001909291908035906020019064010000000081111561020157600080fd5b82018360208201111561021357600080fd5b8035906020019184600183028401116401000000008311171561023557600080fd5b91908080601f016020809104026020016040519081016040528093929190818152602001838380828437600081840152601f19601f820116905080830192505050505050509192919290505050610f85565b005b34801561029557600080fd5b506102d8600480360360208110156102ac57600080fd5b81019080803573ffffffffffffffffffffffffffffffffffffffff169060200190929190505050611004565b005b3480156102e657600080fd5b50610313600480360360208110156102fd57600080fd5b8101908080359060200190929190505050611208565b6040518082815260200191505060405180910390f35b34801561033557600080fd5b5061040f6004803603604081101561034c57600080fd5b81019080803573ffffffffffffffffffffffffffffffffffffffff1690602001909291908035906020019064010000000081111561038957600080fd5b82018360208201111561039b57600080fd5b803590602001918460018302840111640100000000831117156103bd57600080fd5b91908080601f016020809104026020016040519081016040528093929190818152602001838380828437600081840152601f19601f8201169050808301925050505050505091929192905050506112ab565b604051808215151515815260200191505060405180910390f35b34801561043557600080fd5b5061043e611330565b005b34801561044c57600080fd5b5061048f6004803603602081101561046357600080fd5b81019080803573ffffffffffffffffffffffffffffffffffffffff16906020019092919050505061143a565b604051808215151515815260200191505060405180910390f35b3480156104b557600080fd5b506104f8600480360360208110156104cc57600080fd5b81019080803573ffffffffffffffffffffffffffffffffffffffff16906020019092919050505061145a565b005b34801561050657600080fd5b5061050f6115c2565b6040518080602001828103825283818151815260200191508051906020019080838360005b8381101561054f578082015181840152602081019050610534565b50505050905090810190601f16801561057c5780820380516001836020036101000a031916815260200191505b509250505060405180910390f35b34801561059657600080fd5b506105cd600480360360408110156105ad57600080fd5b8101908080359060200190929190803590602001909291905050506115fb565b604051808060200185815260200184815260200180602001838103835287818151815260200191508051906020019080838360005b8381101561061d578082015181840152602081019050610602565b50505050905090810190601f16801561064a5780820380516001836020036101000a031916815260200191505b50838103825284818151815260200191508051906020019080838360005b83811015610683578082015181840152602081019050610668565b50505050905090810190601f1680156106b05780820380516001836020036101000a031916815260200191505b50965050505050505060405180910390f35b3480156106ce57600080fd5b506106d761184b565b604051808215151515815260200191505060405180910390f35b3480156106fd57600080fd5b506107346004803603604081101561071457600080fd5b81019080803590602001909291908035906020019092919050505061185e565b604051808381526020018281526020019250505060405180910390f35b34801561075d57600080fd5b506107946004803603604081101561077457600080fd5b810190808035906020019092919080359060200190929190505050611902565b005b6107cc600480360360408110156107ac57600080fd5b810190808035906020019092919080359060200190929190505050611a55565b005b61080e600480360360608110156107e457600080fd5b81019080803590602001909291908035906020019092919080359060200190929190505050611c28565b005b34801561081c57600080fd5b50610825611ed1565b604051808273ffffffffffffffffffffffffffffffffffffffff1673ffffffffffffffffffffffffffffffffffffffff16815260200191505060405180910390f35b34801561087357600080fd5b506108b66004803603602081101561088a57600080fd5b81019080803573ffffffffffffffffffffffffffffffffffffffff169060200190929190505050611ef7565b005b3480156108c457600080fd5b506108cd6120fb565b6040518082815260200191505060405180910390f35b3480156108ef57600080fd5b506108f8612105565b6040518080602001828103825283818151815260200191508051906020019080838360005b8381101561093857808201518184015260208101905061091d565b50505050905090810190601f1680156109655780820380516001836020036101000a031916815260200191505b509250505060405180910390f35b34801561097f57600080fd5b506109ac6004803603602081101561099657600080fd5b810190808035906020019092919050505061213e565b60405180806020018473ffffffffffffffffffffffffffffffffffffffff1673ffffffffffffffffffffffffffffffffffffffff168152602001838152602001828103825285818151815260200191508051906020019080838360005b83811015610a24578082015181840152602081019050610a09565b50505050905090810190601f168015610a515780820380516001836020036101000a031916815260200191505b5094505050505060405180910390f35b348015610a6d57600080fd5b50610a76612314565b005b348015610a8457600080fd5b50610a8d61241e565b005b348015610a9b57600080fd5b50610ade60048036036020811015610ab257600080fd5b81019080803573ffffffffffffffffffffffffffffffffffffffff1690602001909291905050506125e5565b6040518080602001828103825283818151815260200191508051906020019080838360005b83811015610b1e578082015181840152602081019050610b03565b50505050905090810190601f168015610b4b5780820380516001836020036101000a031916815260200191505b509250505060405180910390f35b348015610b6557600080fd5b50610b9260048036036020811015610b7c57600080fd5b810190808035906020019092919050505061269b565b6040518082815260200191505060405180910390f35b348015610bb457600080fd5b50610be160048036036020811015610bcb57600080fd5b81019080803590602001909291905050506126bb565b604051808573ffffffffffffffffffffffffffffffffffffffff1673ffffffffffffffffffffffffffffffffffffffff16815260200180602001848152602001838152602001828103825285818151815260200191508051906020019080838360005b83811015610c5f578082015181840152602081019050610c44565b50505050905090810190601f168015610c8c5780820380516001836020036101000a031916815260200191505b509550505050505060405180910390f35b348015610ca957600080fd5b50610d8d60048036036060811015610cc057600080fd5b8101908080359060200190640100000000811115610cdd57600080fd5b820183602082011115610cef57600080fd5b80359060200191846001830284011164010000000083111715610d1157600080fd5b91908080601f016020809104026020016040519081016040528093929190818152602001838380828437600081840152601f19601f820116905080830192505050505050509192919290803573ffffffffffffffffffffffffffffffffffffffff169060200190929190803590602001909291905050506127a3565b6040518082815260200191505060405180910390f35b348015610daf57600080fd5b50610df260048036036020811015610dc657600080fd5b81019080803573ffffffffffffffffffffffffffffffffffffffff169060200190929190505050612a1f565b005b348015610e0057600080fd5b50610f6f600480360360a0811015610e1757600080fd5b8101908080359060200190640100000000811115610e3457600080fd5b820183602082011115610e4657600080fd5b80359060200191846001830284011164010000000083111715610e6857600080fd5b91908080601f016020809104026020016040519081016040528093929190818152602001838380828437600081840152601f19601f82011690508083019250505050505050919291929080359060200190929190803590602001909291908035906020019092919080359060200190640100000000811115610ee957600080fd5b820183602082011115610efb57600080fd5b80359060200191846001830284011164010000000083111715610f1d57600080fd5b91908080601f016020809104026020016040519081016040528093929190818152602001838380828437600081840152601f19601f820116905080830192505050505050509192919290505050612c8b565b6040518082815260200191505060405180910390f35b611000826000836040518082805190602001908083835b60208310610fbf5780518252602082019150602081019050602083039250610f9c565b6001836020036101000a0380198251168184511680821785525050505050509050019150509081526020016040518091039020612f1f90919063ffffffff16565b5050565b600160009054906101000a900473ffffffffffffffffffffffffffffffffffffffff1673ffffffffffffffffffffffffffffffffffffffff163373ffffffffffffffffffffffffffffffffffffffff16146110c7576040517f08c379a00000000000000000000000000000000000000000000000000000000081526004018080602001828103825260158152602001807f4f6e6c79204f776e65722068617320616363657373000000000000000000000081525060200191505060405180910390fd5b600160149054906101000a900460ff161561114a576040517f08c379a000000000000000000000000000000000000000000000000000000000815260040180806020018281038252600e8152602001807f416c72656164792050617573656400000000000000000000000000000000000081525060200191505060405180910390fd5b6000600360008373ffffffffffffffffffffffffffffffffffffffff1673ffffffffffffffffffffffffffffffffffffffff16815260200190815260200160002060006101000a81548160ff0219169083151502179055507f44d6d25963f097ad14f29f06854a01f575648a1ef82f30e562ccd3889717e33981604051808273ffffffffffffffffffffffffffffffffffffffff1673ffffffffffffffffffffffffffffffffffffffff16815260200191505060405180910390a150565b6000600160149054906101000a900460ff161561128d576040517f08c379a000000000000000000000000000000000000000000000000000000000815260040180806020018281038252600e8152602001807f416c72656164792050617573656400000000000000000000000000000000000081525060200191505060405180910390fd5b60066000838152602001908152602001600020600301549050919050565b6000611328836000846040518082805190602001908083835b602083106112e757805182526020820191506020810190506020830392506112c4565b6001836020036101000a0380198251168184511680821785525050505050509050019150509081526020016040518091039020612f3690919063ffffffff16565b905092915050565b61136f336040518060400160405280600e81526020017f726f6c652f7379732d61646d696e000000000000000000000000000000000000815250610f85565b600160149054906101000a900460ff166113f1576040517f08c379a000000000000000000000000000000000000000000000000000000000815260040180806020018281038252600d8152602001807f4973206e6f74207061757365640000000000000000000000000000000000000081525060200191505060405180910390fd5b6000600160146101000a81548160ff0219169083151502179055507f0e5e3b3fb504c22cf5c42fa07d521225937514c654007e1f12646f89768d6f9460405160405180910390a1565b60036020528060005260406000206000915054906101000a900460ff1681565b611499336040518060400160405280600e81526020017f726f6c652f7379732d61646d696e000000000000000000000000000000000000815250610f85565b600160149054906101000a900460ff1661151b576040517f08c379a000000000000000000000000000000000000000000000000000000000815260040180806020018281038252600d8152602001807f4973206e6f74207061757365640000000000000000000000000000000000000081525060200191505060405180910390fd5b80600260006101000a81548173ffffffffffffffffffffffffffffffffffffffff021916908373ffffffffffffffffffffffffffffffffffffffff1602179055507f450db8da6efbe9c22f2347f7c2021231df1fc58d3ae9a2fa75d39fa44619930581604051808273ffffffffffffffffffffffffffffffffffffffff1673ffffffffffffffffffffffffffffffffffffffff16815260200191505060405180910390a150565b6040518060400160405280600e81526020017f726f6c652f7379732d61646d696e00000000000000000000000000000000000081525081565b60606000806060600160149054906101000a900460ff1615611685576040517f08c379a000000000000000000000000000000000000000000000000000000000815260040180806020018281038252600e8152602001807f416c72656164792050617573656400000000000000000000000000000000000081525060200191505060405180910390fd5b61168d6132b6565b60066000878152602001908152602001600020600401600088815260200190815260200160002060405180608001604052908160008201548152602001600182018054600181600116156101000203166002900480601f0160208091040260200160405190810160405280929190818152602001828054600181600116156101000203166002900480156117625780601f1061173757610100808354040283529160200191611762565b820191906000526020600020905b81548152906001019060200180831161174557829003601f168201915b5050505050815260200160028201548152602001600382018054600181600116156101000203166002900480601f01602080910402602001604051908101604052809291908181526020018280546001816001161561010002031660029004801561180e5780601f106117e35761010080835404028352916020019161180e565b820191906000526020600020905b8154815290600101906020018083116117f157829003601f168201915b5050505050815250509050806020015194508060000151935080604001519250806060015191508484848494509450945094505092959194509250565b600160149054906101000a900460ff1681565b600080600760003373ffffffffffffffffffffffffffffffffffffffff1673ffffffffffffffffffffffffffffffffffffffff168152602001908152602001600020600101600085815260200190815260200160002060008481526020019081526020016000205491506006600085815260200190815260200160002060040160008481526020019081526020016000206002015490508181915091509250929050565b33816006600082815260200190815260200160002060000160009054906101000a900473ffffffffffffffffffffffffffffffffffffffff1673ffffffffffffffffffffffffffffffffffffffff168273ffffffffffffffffffffffffffffffffffffffff161461197257600080fd5b600160149054906101000a900460ff16156119f5576040517f08c379a000000000000000000000000000000000000000000000000000000000815260040180806020018281038252600e8152602001807f416c72656164792050617573656400000000000000000000000000000000000081525060200191505060405180910390fd5b600660008481526020019081526020016000206004016000858152602001908152602001600020600080820160009055600182016000611a3591906132de565b6002820160009055600382016000611a4d91906132de565b505050505050565b600160149054906101000a900460ff1615611ad8576040517f08c379a000000000000000000000000000000000000000000000000000000000815260040180806020018281038252600e8152602001807f416c72656164792050617573656400000000000000000000000000000000000081525060200191505060405180910390fd5b33826006600082815260200190815260200160002060000160009054906101000a900473ffffffffffffffffffffffffffffffffffffffff1673ffffffffffffffffffffffffffffffffffffffff168273ffffffffffffffffffffffffffffffffffffffff1614611b4857600080fd5b6006600085815260200190815260200160002060030154831115611b6b57600080fd5b6006600085815260200190815260200160002060000160009054906101000a900473ffffffffffffffffffffffffffffffffffffffff1673ffffffffffffffffffffffffffffffffffffffff166108fc849081150290604051600060405180830381858888f19350505050158015611be7573d6000803e3d6000fd5b50611c08600660008681526020019081526020016000206003015484612f8f565b600660008681526020019081526020016000206003018190555050505050565b600160149054906101000a900460ff1615611cab576040517f08c379a000000000000000000000000000000000000000000000000000000000815260040180806020018281038252600e8152602001807f416c72656164792050617573656400000000000000000000000000000000000081525060200191505060405180910390fd5b6000611ce16006600084815260200190815260200160002060040160008681526020019081526020016000206002015484613018565b905080341015611d59576040517f08c379a00000000000000000000000000000000000000000000000000000000081526004018080602001828103825260148152602001807f4e6f7420656e6f75676874206574682073656e7400000000000000000000000081525060200191505060405180910390fd5b611d8d6006600084815260200190815260200160002060040160008681526020019081526020016000206000015484612f8f565b60066000848152602001908152602001600020600401600086815260200190815260200160002060000181905550611ddb60066000848152602001908152602001600020600301548261309e565b6006600084815260200190815260200160002060030181905550611e63600760003373ffffffffffffffffffffffffffffffffffffffff1673ffffffffffffffffffffffffffffffffffffffff16815260200190815260200160002060010160008481526020019081526020016000206000868152602001908152602001600020548461309e565b600760003373ffffffffffffffffffffffffffffffffffffffff1673ffffffffffffffffffffffffffffffffffffffff168152602001908152602001600020600101600084815260200190815260200160002060008681526020019081526020016000208190555050505050565b600260009054906101000a900473ffffffffffffffffffffffffffffffffffffffff1681565b600160149054906101000a900460ff1615611f7a576040517f08c379a000000000000000000000000000000000000000000000000000000000815260040180806020018281038252600e8152602001807f416c72656164792050617573656400000000000000000000000000000000000081525060200191505060405180910390fd5b600160009054906101000a900473ffffffffffffffffffffffffffffffffffffffff1673ffffffffffffffffffffffffffffffffffffffff163373ffffffffffffffffffffffffffffffffffffffff161461203d576040517f08c379a00000000000000000000000000000000000000000000000000000000081526004018080602001828103825260158152602001807f4f6e6c79204f776e65722068617320616363657373000000000000000000000081525060200191505060405180910390fd5b6001600360008373ffffffffffffffffffffffffffffffffffffffff1673ffffffffffffffffffffffffffffffffffffffff16815260200190815260200160002060006101000a81548160ff0219169083151502179055507f44d6d25963f097ad14f29f06854a01f575648a1ef82f30e562ccd3889717e33981604051808273ffffffffffffffffffffffffffffffffffffffff1673ffffffffffffffffffffffffffffffffffffffff16815260200191505060405180910390a150565b6000600554905090565b6040518060400160405280601081526020017f726f6c652f73746f72652d6f776e65720000000000000000000000000000000081525081565b6060600080836005548111156121bc576040517f08c379a00000000000000000000000000000000000000000000000000000000081526004018080602001828103825260188152602001807f496e76616c69642053746f726549442070726f7669646564000000000000000081525060200191505060405180910390fd5b6121c4613326565b600660008781526020019081526020016000206040518060800160405290816000820160009054906101000a900473ffffffffffffffffffffffffffffffffffffffff1673ffffffffffffffffffffffffffffffffffffffff1673ffffffffffffffffffffffffffffffffffffffff168152602001600182018054600181600116156101000203166002900480601f0160208091040260200160405190810160405280929190818152602001828054600181600116156101000203166002900480156122d15780601f106122a6576101008083540402835291602001916122d1565b820191906000526020600020905b8154815290600101906020018083116122b457829003601f168201915b5050505050815260200160028201548152602001600382015481525050905080602001518160000151826040015182925081915094509450945050509193909250565b612353336040518060400160405280600e81526020017f726f6c652f7379732d61646d696e000000000000000000000000000000000000815250610f85565b600160149054906101000a900460ff16156123d6576040517f08c379a000000000000000000000000000000000000000000000000000000000815260040180806020018281038252600e8152602001807f416c72656164792050617573656400000000000000000000000000000000000081525060200191505060405180910390fd5b60018060146101000a81548160ff0219169083151502179055507fab35696f06e428ebc5ceba8cd17f8fed287baf43440206d1943af1ee53e6d26760405160405180910390a1565b600160009054906101000a900473ffffffffffffffffffffffffffffffffffffffff1673ffffffffffffffffffffffffffffffffffffffff163373ffffffffffffffffffffffffffffffffffffffff16146124e1576040517f08c379a00000000000000000000000000000000000000000000000000000000081526004018080602001828103825260158152602001807f4f6e6c79204f776e65722068617320616363657373000000000000000000000081525060200191505060405180910390fd5b600160149054906101000a900460ff16612563576040517f08c379a000000000000000000000000000000000000000000000000000000000815260040180806020018281038252600d8152602001807f4973206e6f74207061757365640000000000000000000000000000000000000081525060200191505060405180910390fd5b600160009054906101000a900473ffffffffffffffffffffffffffffffffffffffff1673ffffffffffffffffffffffffffffffffffffffff166108fc3073ffffffffffffffffffffffffffffffffffffffff16319081150290604051600060405180830381858888f193505050501580156125e2573d6000803e3d6000fd5b50565b6007602052806000526040600020600091509050806000018054600181600116156101000203166002900480601f0160208091040260200160405190810160405280929190818152602001828054600181600116156101000203166002900480156126915780601f1061266657610100808354040283529160200191612691565b820191906000526020600020905b81548152906001019060200180831161267457829003601f168201915b5050505050905081565b600060066000838152602001908152602001600020600201549050919050565b60066020528060005260406000206000915090508060000160009054906101000a900473ffffffffffffffffffffffffffffffffffffffff1690806001018054600181600116156101000203166002900480601f01602080910402602001604051908101604052809291908181526020018280546001816001161561010002031660029004801561278d5780601f106127625761010080835404028352916020019161278d565b820191906000526020600020905b81548152906001019060200180831161277057829003601f168201915b5050505050908060020154908060030154905084565b6000600160149054906101000a900460ff1615612828576040517f08c379a000000000000000000000000000000000000000000000000000000000815260040180806020018281038252600e8152602001807f416c72656164792050617573656400000000000000000000000000000000000081525060200191505060405180910390fd5b8360238082511115612885576040517f08c379a000000000000000000000000000000000000000000000000000000000815260040180806020018281038252602781526020018061340a6027913960400191505060405180910390fd5b8560066000600554815260200190815260200160002060010190805190602001906128b1929190613364565b508460066000600554815260200190815260200160002060000160006101000a81548173ffffffffffffffffffffffffffffffffffffffff021916908373ffffffffffffffffffffffffffffffffffffffff1602179055508360066000600554815260200190815260200160002060020181905550612933600554600161309e565b6005819055507f14a5199f2fb2f8440ae41be41d4a191e067087a0db7aabe07cfd851bda44091786868660405180806020018473ffffffffffffffffffffffffffffffffffffffff1673ffffffffffffffffffffffffffffffffffffffff168152602001838152602001828103825285818151815260200191508051906020019080838360005b838110156129d55780820151818401526020810190506129ba565b50505050905090810190601f168015612a025780820380516001836020036101000a031916815260200191505b5094505050505060405180910390a1600554925050509392505050565b600160009054906101000a900473ffffffffffffffffffffffffffffffffffffffff1673ffffffffffffffffffffffffffffffffffffffff163373ffffffffffffffffffffffffffffffffffffffff1614612ae2576040517f08c379a00000000000000000000000000000000000000000000000000000000081526004018080602001828103825260158152602001807f4f6e6c79204f776e65722068617320616363657373000000000000000000000081525060200191505060405180910390fd5b600073ffffffffffffffffffffffffffffffffffffffff168173ffffffffffffffffffffffffffffffffffffffff161415612b85576040517f08c379a00000000000000000000000000000000000000000000000000000000081526004018080602001828103825260168152602001807f416464726573732063616e277420626520656d7074790000000000000000000081525060200191505060405180910390fd5b80600160006101000a81548173ffffffffffffffffffffffffffffffffffffffff021916908373ffffffffffffffffffffffffffffffffffffffff160217905550612c27600160009054906101000a900473ffffffffffffffffffffffffffffffffffffffff166040518060400160405280600e81526020017f726f6c652f7379732d61646d696e000000000000000000000000000000000000815250613126565b612c88600160009054906101000a900473ffffffffffffffffffffffffffffffffffffffff166040518060400160405280601081526020017f726f6c652f73746f72652d6f776e657200000000000000000000000000000000815250613126565b50565b6000600160149054906101000a900460ff1615612d10576040517f08c379a000000000000000000000000000000000000000000000000000000000815260040180806020018281038252600e8152602001807f416c72656164792050617573656400000000000000000000000000000000000081525060200191505060405180910390fd5b8560238082511115612d6d576040517f08c379a000000000000000000000000000000000000000000000000000000000815260040180806020018281038252602781526020018061340a6027913960400191505060405180910390fd5b33856006600082815260200190815260200160002060000160009054906101000a900473ffffffffffffffffffffffffffffffffffffffff1673ffffffffffffffffffffffffffffffffffffffff168273ffffffffffffffffffffffffffffffffffffffff1614612ddd57600080fd5b612dea600454600161309e565b6004819055506000600660008981526020019081526020016000206002015490508a600660008a815260200190815260200160002060040160008381526020019081526020016000206001019080519060200190612e49929190613364565b5089600660008a815260200190815260200160002060040160008381526020019081526020016000206002018190555088600660008a815260200190815260200160002060040160008381526020019081526020016000206000018190555086600660008a815260200190815260200160002060040160008381526020019081526020016000206003019080519060200190612ee6929190613364565b50612ef281600161309e565b600660008a8152602001908152602001600020600201819055506004549550505050505095945050505050565b612f298282612f36565b612f3257600080fd5b5050565b60008260000160008373ffffffffffffffffffffffffffffffffffffffff1673ffffffffffffffffffffffffffffffffffffffff16815260200190815260200160002060009054906101000a900460ff16905092915050565b600082821115613007576040517f08c379a000000000000000000000000000000000000000000000000000000000815260040180806020018281038252601e8152602001807f536166654d6174683a207375627472616374696f6e206f766572666c6f77000081525060200191505060405180910390fd5b600082840390508091505092915050565b60008083141561302b5760009050613098565b600082840290508284828161303c57fe5b0414613093576040517f08c379a00000000000000000000000000000000000000000000000000000000081526004018080602001828103825260218152602001806134316021913960400191505060405180910390fd5b809150505b92915050565b60008082840190508381101561311c576040517f08c379a000000000000000000000000000000000000000000000000000000000815260040180806020018281038252601b8152602001807f536166654d6174683a206164646974696f6e206f766572666c6f77000000000081525060200191505060405180910390fd5b8091505092915050565b6131a1826000836040518082805190602001908083835b60208310613160578051825260208201915060208101905060208303925061313d565b6001836020036101000a038019825116818451168082178552505050505050905001915050908152602001604051809103902061325890919063ffffffff16565b8173ffffffffffffffffffffffffffffffffffffffff167fbfec83d64eaa953f2708271a023ab9ee82057f8f3578d548c1a4ba0b5b700489826040518080602001828103825283818151815260200191508051906020019080838360005b8381101561321a5780820151818401526020810190506131ff565b50505050905090810190601f1680156132475780820380516001836020036101000a031916815260200191505b509250505060405180910390a25050565b60018260000160008373ffffffffffffffffffffffffffffffffffffffff1673ffffffffffffffffffffffffffffffffffffffff16815260200190815260200160002060006101000a81548160ff0219169083151502179055505050565b6040518060800160405280600081526020016060815260200160008152602001606081525090565b50805460018160011615610100020316600290046000825580601f106133045750613323565b601f01602090049060005260206000209081019061332291906133e4565b5b50565b6040518060800160405280600073ffffffffffffffffffffffffffffffffffffffff1681526020016060815260200160008152602001600081525090565b828054600181600116156101000203166002900490600052602060002090601f016020900481019282601f106133a557805160ff19168380011785556133d3565b828001600101855582156133d3579182015b828111156133d25782518255916020019190600101906133b7565b5b5090506133e091906133e4565b5090565b61340691905b808211156134025760008160009055506001016133ea565b5090565b9056fe4d617820636861726163746572732061726520333520666f72206e616d65206f662073746f7265536166654d6174683a206d756c7469706c69636174696f6e206f766572666c6f77a165627a7a7230582083b1044c792e4dd8b0d049b53bb3f992617871b92bbe5acc80e3602b090acf960029",
  "source": "pragma solidity ^0.5.0;\n\nimport \"contracts/ItemFactory.sol\";\n\n/** @title BlockchainMarket. */\ncontract BlockchainMarket is ItemFactory {\n\n    using SafeMath for uint;\n\n    // event GetOrder(uint _storeId, uint _sku, uint _quantity, uint _price);\n    // event GetItem(uint _storeId, uint _sku, string _name, uint _price, string _image);\n    // event GetStoreTotalItem(uint _storeId, uint _total);\n    // event GetStoreTotal(uint _total);\n    event PurchaseItem(uint _storeId, uint _sku, uint _quantity);\n    event DeleteItem(uint _storeId, uint _sku);\n    // event GetStore(uint _storeId, string _name, address _owner, uint _skuTotal);\n    // event GetBalance(uint _storeId, uint _balance);\n    //event WithdrawBalance(uint _storeId, uint _total);\n    event WithdrawAll(address _owner, uint _balance);\n    \n    modifier checkQuantity(uint _quantity, uint _storeId, uint _itemCode) {require(_quantity <= stores[_storeId].items[_itemCode].sku, \"Not sufficient quantity available\"); _; }\n  \n    constructor()\n        public\n    {\n        admins[owner] = true;\n    }\n  \n    function getOrder(uint _storeId, uint _itemSku)\n        view\n        public\n        returns(uint quantity, uint price)\n    {\n        quantity = users[msg.sender].orders[_storeId][_itemSku];\n        price = stores[_storeId].items[_itemSku].price;\n\n        // emit GetOrder(_storeId, _itemSku, quantity, price);\n\n        return(quantity, price);\n    }\n\n    function getItem(uint _sku, uint _storeId)\n        view\n        public\n        notPaused\n        returns (string memory name, uint sku, uint price, string memory image)\n    {\n        Item memory item = stores[_storeId].items[_sku];\n\n        name = item.name;\n        sku = item.sku;\n        price = item.price;\n        image = item.image;\n\n        // emit GetItem(_storeId, _sku, name, price, image);\n\n        return (name, sku, price, image);\n    }\n\n    function getStoreTotalItems(uint _storeId)\n        view\n        public\n        returns(uint)\n    {\n        // emit GetStoreTotalItem(_storeId, stores[_storeId].skuTotal);\n\n        return stores[_storeId].skuTotal;\n    }\n  \n    function getStoreTotal()\n        view\n        public\n        returns(uint)\n    {\n        // emit GetStoreTotal(storeTotal);\n\n        return storeTotal;\n    }\n\n    function purchaseItem(uint _sku, uint _quantity, uint _storeId)\n        payable\n        public\n        notPaused\n    {\n        uint total = SafeMath.mul(stores[_storeId].items[_sku].price, _quantity);\n        require(msg.value >= total, \"Not enought eth sent\");\n        \n        // emit Message(stores[_storeId].items[_sku].sku);\n\n        stores[_storeId].items[_sku].sku = SafeMath.sub(stores[_storeId].items[_sku].sku,  _quantity);\n        stores[_storeId].balance = SafeMath.add(stores[_storeId].balance, total);\n\n        users[msg.sender].orders[_storeId][_sku] = SafeMath.add(users[msg.sender].orders[_storeId][_sku], _quantity);\n\n        // emit PurchaseItem(_storeId, _sku, _quantity);\n\n    }\n\n    function deleteItem(uint _sku, uint _storeId)\n        public\n        isStoreOwner(msg.sender, _storeId)\n        notPaused\n    {\n        delete stores[_storeId].items[_sku];\n\n        // emit DeleteItem(_storeId, _sku);\n    }\n  \n    function getStore(uint _storeId)\n        view\n        public\n        validStoreExistence(_storeId)\n        returns(string memory, address, uint)\n    {\n        Store memory store = stores[_storeId];\n\n        // emit GetStore(_storeId, store.name, store.owner, store.skuTotal);\n\n        return (store.name, store.owner, store.skuTotal);\n    }\n  \n    function getBalance(uint _storeId)\n        view\n        public\n        notPaused\n        returns(uint)\n    {\n        // emit GetBalance(_storeId, stores[_storeId].balance);\n\n        return stores[_storeId].balance;\n    }\n\n    function withdrawBalance(uint _storeId, uint _total)\n        public\n        payable\n        notPaused\n        isStoreOwner(msg.sender, _storeId)\n    {\n        require(_total <= stores[_storeId].balance);\n\n        stores[_storeId].owner.transfer(_total);\n        stores[_storeId].balance = SafeMath.sub(stores[_storeId].balance, _total);\n\n        // emit WithdrawBalance(_storeId, _total);\n    }\n\n    function withdrawAll()\n        public\n        isOwner\n        isPaused\n    {\n        owner.transfer(address(this).balance);\n\n        // emit WithdrawAll(msg.sender, address(this).balance);\n    }\n}",
  "sourcePath": "/Users/luminode/Training/blockchainmarket/contracts/BlockchainMarket.sol",
  "compiler": {
    "name": "solc",
    "version": "0.5.8+commit.23d335f2.Emscripten.clang"
  },
  "schemaVersion": "3.0.11",
  "updatedAt": "2019-08-09T19:14:17.362Z",
  "devdoc": {
    "methods": {
      "checkRole(address,string)": {
        "details": "reverts if addr does not have role",
        "params": {
          "_operator": "address",
          "_role": "the name of the role // reverts"
        }
      },
      "hasRole(address,string)": {
        "details": "determine if addr has role",
        "params": {
          "_operator": "address",
          "_role": "the name of the role"
        },
        "return": "bool"
      }
    },
    "title": "BlockchainMarket. "
  },
  "userdoc": {
    "methods": {}
  }
}