{
  "contractName": "ItemFactory",
  "abi": [
    {
      "constant": true,
      "inputs": [
        {
          "name": "_operator",
          "type": "address"
        },
        {
          "name": "_role",
          "type": "string"
        }
      ],
      "name": "checkRole",
      "outputs": [],
      "payable": false,
      "stateMutability": "view",
      "type": "function"
    },
    {
      "constant": false,
      "inputs": [
        {
          "name": "_oldAdmin",
          "type": "address"
        }
      ],
      "name": "removeAdmin",
      "outputs": [],
      "payable": false,
      "stateMutability": "nonpayable",
      "type": "function"
    },
    {
      "constant": true,
      "inputs": [
        {
          "name": "_operator",
          "type": "address"
        },
        {
          "name": "_role",
          "type": "string"
        }
      ],
      "name": "hasRole",
      "outputs": [
        {
          "name": "",
          "type": "bool"
        }
      ],
      "payable": false,
      "stateMutability": "view",
      "type": "function"
    },
    {
      "constant": false,
      "inputs": [],
      "name": "unpause",
      "outputs": [],
      "payable": false,
      "stateMutability": "nonpayable",
      "type": "function"
    },
    {
      "constant": true,
      "inputs": [
        {
          "name": "",
          "type": "address"
        }
      ],
      "name": "admins",
      "outputs": [
        {
          "name": "",
          "type": "bool"
        }
      ],
      "payable": false,
      "stateMutability": "view",
      "type": "function"
    },
    {
      "constant": false,
      "inputs": [
        {
          "name": "_newAddr",
          "type": "address"
        }
      ],
      "name": "setNetAddress",
      "outputs": [],
      "payable": false,
      "stateMutability": "nonpayable",
      "type": "function"
    },
    {
      "constant": true,
      "inputs": [],
      "name": "ROLE_SYS_ADMIN",
      "outputs": [
        {
          "name": "",
          "type": "string"
        }
      ],
      "payable": false,
      "stateMutability": "view",
      "type": "function"
    },
    {
      "constant": true,
      "inputs": [],
      "name": "paused",
      "outputs": [
        {
          "name": "",
          "type": "bool"
        }
      ],
      "payable": false,
      "stateMutability": "view",
      "type": "function"
    },
    {
      "constant": true,
      "inputs": [],
      "name": "newContractAddress",
      "outputs": [
        {
          "name": "",
          "type": "address"
        }
      ],
      "payable": false,
      "stateMutability": "view",
      "type": "function"
    },
    {
      "constant": false,
      "inputs": [
        {
          "name": "_newAdmin",
          "type": "address"
        }
      ],
      "name": "setAdmin",
      "outputs": [],
      "payable": false,
      "stateMutability": "nonpayable",
      "type": "function"
    },
    {
      "constant": true,
      "inputs": [],
      "name": "ROLE_STORE_OWNER",
      "outputs": [
        {
          "name": "",
          "type": "string"
        }
      ],
      "payable": false,
      "stateMutability": "view",
      "type": "function"
    },
    {
      "constant": false,
      "inputs": [],
      "name": "pause",
      "outputs": [],
      "payable": false,
      "stateMutability": "nonpayable",
      "type": "function"
    },
    {
      "constant": true,
      "inputs": [
        {
          "name": "",
          "type": "address"
        }
      ],
      "name": "users",
      "outputs": [
        {
          "name": "name",
          "type": "string"
        }
      ],
      "payable": false,
      "stateMutability": "view",
      "type": "function"
    },
    {
      "constant": true,
      "inputs": [
        {
          "name": "",
          "type": "uint256"
        }
      ],
      "name": "stores",
      "outputs": [
        {
          "name": "owner",
          "type": "address"
        },
        {
          "name": "name",
          "type": "string"
        },
        {
          "name": "skuTotal",
          "type": "uint256"
        },
        {
          "name": "balance",
          "type": "uint256"
        }
      ],
      "payable": false,
      "stateMutability": "view",
      "type": "function"
    },
    {
      "constant": false,
      "inputs": [
        {
          "name": "_storeName",
          "type": "string"
        },
        {
          "name": "_storeOwner",
          "type": "address"
        },
        {
          "name": "_storeSkuTotal",
          "type": "uint256"
        }
      ],
      "name": "newStore",
      "outputs": [
        {
          "name": "",
          "type": "uint256"
        }
      ],
      "payable": false,
      "stateMutability": "nonpayable",
      "type": "function"
    },
    {
      "constant": false,
      "inputs": [
        {
          "name": "_newOwner",
          "type": "address"
        }
      ],
      "name": "transferOwnership",
      "outputs": [],
      "payable": false,
      "stateMutability": "nonpayable",
      "type": "function"
    },
    {
      "anonymous": false,
      "inputs": [
        {
          "indexed": false,
          "name": "itemId",
          "type": "uint256"
        },
        {
          "indexed": true,
          "name": "userId",
          "type": "uint256"
        },
        {
          "indexed": false,
          "name": "_itemName",
          "type": "string"
        },
        {
          "indexed": false,
          "name": "price",
          "type": "uint256"
        }
      ],
      "name": "NewItem",
      "type": "event"
    },
    {
      "anonymous": false,
      "inputs": [
        {
          "indexed": false,
          "name": "_storeName",
          "type": "string"
        },
        {
          "indexed": false,
          "name": "_storeOwner",
          "type": "address"
        },
        {
          "indexed": false,
          "name": "_skuTotal",
          "type": "uint256"
        }
      ],
      "name": "NewStore",
      "type": "event"
    },
    {
      "anonymous": false,
      "inputs": [
        {
          "indexed": false,
          "name": "newContract",
          "type": "address"
        }
      ],
      "name": "ContractUpgrade",
      "type": "event"
    },
    {
      "anonymous": false,
      "inputs": [
        {
          "indexed": false,
          "name": "_newAdmin",
          "type": "address"
        }
      ],
      "name": "AdminAdded",
      "type": "event"
    },
    {
      "anonymous": false,
      "inputs": [
        {
          "indexed": false,
          "name": "_oldAdmin",
          "type": "address"
        }
      ],
      "name": "AdminRemoved",
      "type": "event"
    },
    {
      "anonymous": false,
      "inputs": [],
      "name": "ContractPaused",
      "type": "event"
    },
    {
      "anonymous": false,
      "inputs": [],
      "name": "ContractUnpaused",
      "type": "event"
    },
    {
      "anonymous": false,
      "inputs": [
        {
          "indexed": true,
          "name": "operator",
          "type": "address"
        },
        {
          "indexed": false,
          "name": "role",
          "type": "string"
        }
      ],
      "name": "RoleAdded",
      "type": "event"
    },
    {
      "anonymous": false,
      "inputs": [
        {
          "indexed": true,
          "name": "operator",
          "type": "address"
        },
        {
          "indexed": false,
          "name": "role",
          "type": "string"
        }
      ],
      "name": "RoleRemoved",
      "type": "event"
    },
    {
      "constant": false,
      "inputs": [
        {
          "name": "_itemName",
          "type": "string"
        },
        {
          "name": "_itemPrice",
          "type": "uint256"
        },
        {
          "name": "_itemSKU",
          "type": "uint256"
        },
        {
          "name": "_storeId",
          "type": "uint256"
        },
        {
          "name": "_imageHash",
          "type": "string"
        }
      ],
      "name": "newItem",
      "outputs": [
        {
          "name": "",
          "type": "uint256"
        }
      ],
      "payable": false,
      "stateMutability": "nonpayable",
      "type": "function"
    }
  ],
  "bytecode": "0x60806040526000600160146101000a81548160ff0219169083151502179055506000600455600060055560018060146101000a81548160ff02191690831515021790555033600160006101000a81548173ffffffffffffffffffffffffffffffffffffffff021916908373ffffffffffffffffffffffffffffffffffffffff160217905550620000ed600160009054906101000a900473ffffffffffffffffffffffffffffffffffffffff166040518060400160405280600e81526020017f726f6c652f7379732d61646d696e0000000000000000000000000000000000008152506200015c60201b60201c565b62000156600160009054906101000a900473ffffffffffffffffffffffffffffffffffffffff166040518060400160405280601081526020017f726f6c652f73746f72652d6f776e6572000000000000000000000000000000008152506200015c60201b60201c565b620002f8565b620001e0826000836040518082805190602001908083835b6020831062000199578051825260208201915060208101905060208303925062000174565b6001836020036101000a03801982511681845116808217855250505050505090500191505090815260200160405180910390206200029a60201b62001f361790919060201c565b8173ffffffffffffffffffffffffffffffffffffffff167fbfec83d64eaa953f2708271a023ab9ee82057f8f3578d548c1a4ba0b5b700489826040518080602001828103825283818151815260200191508051906020019080838360005b838110156200025b5780820151818401526020810190506200023e565b50505050905090810190601f168015620002895780820380516001836020036101000a031916815260200191505b509250505060405180910390a25050565b60018260000160008373ffffffffffffffffffffffffffffffffffffffff1673ffffffffffffffffffffffffffffffffffffffff16815260200190815260200160002060006101000a81548160ff0219169083151502179055505050565b61208c80620003086000396000f3fe608060405234801561001057600080fd5b506004361061010b5760003560e01c80636af04a57116100a2578063a87430ba11610071578063a87430ba1461058c578063e8a59cd814610649578063eefb1c6214610731578063f2fde38b1461082a578063feaf35e11461086e5761010b565b80636af04a5714610471578063704b6c02146104bb578063804ce1df146104ff5780638456cb59146105825761010b565b8063429b62e5116100de578063429b62e51461032c5780634e730d731461038857806356de8ccd146103cc5780635c975abb1461044f5761010b565b80630988ca8c146101105780631785f53c146101eb578063217fe6c61461022f5780633f4ba83a14610322575b600080fd5b6101e96004803603604081101561012657600080fd5b81019080803573ffffffffffffffffffffffffffffffffffffffff1690602001909291908035906020019064010000000081111561016357600080fd5b82018360208201111561017557600080fd5b8035906020019184600183028401116401000000008311171561019757600080fd5b91908080601f016020809104026020016040519081016040528093929190818152602001838380828437600081840152601f19601f8201169050808301925050505050505091929192905050506109f2565b005b61022d6004803603602081101561020157600080fd5b81019080803573ffffffffffffffffffffffffffffffffffffffff169060200190929190505050610a71565b005b6103086004803603604081101561024557600080fd5b81019080803573ffffffffffffffffffffffffffffffffffffffff1690602001909291908035906020019064010000000081111561028257600080fd5b82018360208201111561029457600080fd5b803590602001918460018302840111640100000000831117156102b657600080fd5b91908080601f016020809104026020016040519081016040528093929190818152602001838380828437600081840152601f19601f820116905080830192505050505050509192919290505050610c75565b604051808215151515815260200191505060405180910390f35b61032a610cfa565b005b61036e6004803603602081101561034257600080fd5b81019080803573ffffffffffffffffffffffffffffffffffffffff169060200190929190505050610e04565b604051808215151515815260200191505060405180910390f35b6103ca6004803603602081101561039e57600080fd5b81019080803573ffffffffffffffffffffffffffffffffffffffff169060200190929190505050610e24565b005b6103d4610f8c565b6040518080602001828103825283818151815260200191508051906020019080838360005b838110156104145780820151818401526020810190506103f9565b50505050905090810190601f1680156104415780820380516001836020036101000a031916815260200191505b509250505060405180910390f35b610457610fc5565b604051808215151515815260200191505060405180910390f35b610479610fd8565b604051808273ffffffffffffffffffffffffffffffffffffffff1673ffffffffffffffffffffffffffffffffffffffff16815260200191505060405180910390f35b6104fd600480360360208110156104d157600080fd5b81019080803573ffffffffffffffffffffffffffffffffffffffff169060200190929190505050610ffe565b005b610507611202565b6040518080602001828103825283818151815260200191508051906020019080838360005b8381101561054757808201518184015260208101905061052c565b50505050905090810190601f1680156105745780820380516001836020036101000a031916815260200191505b509250505060405180910390f35b61058a61123b565b005b6105ce600480360360208110156105a257600080fd5b81019080803573ffffffffffffffffffffffffffffffffffffffff169060200190929190505050611345565b6040518080602001828103825283818151815260200191508051906020019080838360005b8381101561060e5780820151818401526020810190506105f3565b50505050905090810190601f16801561063b5780820380516001836020036101000a031916815260200191505b509250505060405180910390f35b6106756004803603602081101561065f57600080fd5b81019080803590602001909291905050506113fb565b604051808573ffffffffffffffffffffffffffffffffffffffff1673ffffffffffffffffffffffffffffffffffffffff16815260200180602001848152602001838152602001828103825285818151815260200191508051906020019080838360005b838110156106f35780820151818401526020810190506106d8565b50505050905090810190601f1680156107205780820380516001836020036101000a031916815260200191505b509550505050505060405180910390f35b6108146004803603606081101561074757600080fd5b810190808035906020019064010000000081111561076457600080fd5b82018360208201111561077657600080fd5b8035906020019184600183028401116401000000008311171561079857600080fd5b91908080601f016020809104026020016040519081016040528093929190818152602001838380828437600081840152601f19601f820116905080830192505050505050509192919290803573ffffffffffffffffffffffffffffffffffffffff169060200190929190803590602001909291905050506114e3565b6040518082815260200191505060405180910390f35b61086c6004803603602081101561084057600080fd5b81019080803573ffffffffffffffffffffffffffffffffffffffff16906020019092919050505061175f565b005b6109dc600480360360a081101561088457600080fd5b81019080803590602001906401000000008111156108a157600080fd5b8201836020820111156108b357600080fd5b803590602001918460018302840111640100000000831117156108d557600080fd5b91908080601f016020809104026020016040519081016040528093929190818152602001838380828437600081840152601f19601f8201169050808301925050505050505091929192908035906020019092919080359060200190929190803590602001909291908035906020019064010000000081111561095657600080fd5b82018360208201111561096857600080fd5b8035906020019184600183028401116401000000008311171561098a57600080fd5b91908080601f016020809104026020016040519081016040528093929190818152602001838380828437600081840152601f19601f8201169050808301925050505050505091929192905050506119cb565b6040518082815260200191505060405180910390f35b610a6d826000836040518082805190602001908083835b60208310610a2c5780518252602082019150602081019050602083039250610a09565b6001836020036101000a0380198251168184511680821785525050505050509050019150509081526020016040518091039020611d0c90919063ffffffff16565b5050565b600160009054906101000a900473ffffffffffffffffffffffffffffffffffffffff1673ffffffffffffffffffffffffffffffffffffffff163373ffffffffffffffffffffffffffffffffffffffff1614610b34576040517f08c379a00000000000000000000000000000000000000000000000000000000081526004018080602001828103825260158152602001807f4f6e6c79204f776e65722068617320616363657373000000000000000000000081525060200191505060405180910390fd5b600160149054906101000a900460ff1615610bb7576040517f08c379a000000000000000000000000000000000000000000000000000000000815260040180806020018281038252600e8152602001807f416c72656164792050617573656400000000000000000000000000000000000081525060200191505060405180910390fd5b6000600360008373ffffffffffffffffffffffffffffffffffffffff1673ffffffffffffffffffffffffffffffffffffffff16815260200190815260200160002060006101000a81548160ff0219169083151502179055507f44d6d25963f097ad14f29f06854a01f575648a1ef82f30e562ccd3889717e33981604051808273ffffffffffffffffffffffffffffffffffffffff1673ffffffffffffffffffffffffffffffffffffffff16815260200191505060405180910390a150565b6000610cf2836000846040518082805190602001908083835b60208310610cb15780518252602082019150602081019050602083039250610c8e565b6001836020036101000a0380198251168184511680821785525050505050509050019150509081526020016040518091039020611d2390919063ffffffff16565b905092915050565b610d39336040518060400160405280600e81526020017f726f6c652f7379732d61646d696e0000000000000000000000000000000000008152506109f2565b600160149054906101000a900460ff16610dbb576040517f08c379a000000000000000000000000000000000000000000000000000000000815260040180806020018281038252600d8152602001807f4973206e6f74207061757365640000000000000000000000000000000000000081525060200191505060405180910390fd5b6000600160146101000a81548160ff0219169083151502179055507f0e5e3b3fb504c22cf5c42fa07d521225937514c654007e1f12646f89768d6f9460405160405180910390a1565b60036020528060005260406000206000915054906101000a900460ff1681565b610e63336040518060400160405280600e81526020017f726f6c652f7379732d61646d696e0000000000000000000000000000000000008152506109f2565b600160149054906101000a900460ff16610ee5576040517f08c379a000000000000000000000000000000000000000000000000000000000815260040180806020018281038252600d8152602001807f4973206e6f74207061757365640000000000000000000000000000000000000081525060200191505060405180910390fd5b80600260006101000a81548173ffffffffffffffffffffffffffffffffffffffff021916908373ffffffffffffffffffffffffffffffffffffffff1602179055507f450db8da6efbe9c22f2347f7c2021231df1fc58d3ae9a2fa75d39fa44619930581604051808273ffffffffffffffffffffffffffffffffffffffff1673ffffffffffffffffffffffffffffffffffffffff16815260200191505060405180910390a150565b6040518060400160405280600e81526020017f726f6c652f7379732d61646d696e00000000000000000000000000000000000081525081565b600160149054906101000a900460ff1681565b600260009054906101000a900473ffffffffffffffffffffffffffffffffffffffff1681565b600160149054906101000a900460ff1615611081576040517f08c379a000000000000000000000000000000000000000000000000000000000815260040180806020018281038252600e8152602001807f416c72656164792050617573656400000000000000000000000000000000000081525060200191505060405180910390fd5b600160009054906101000a900473ffffffffffffffffffffffffffffffffffffffff1673ffffffffffffffffffffffffffffffffffffffff163373ffffffffffffffffffffffffffffffffffffffff1614611144576040517f08c379a00000000000000000000000000000000000000000000000000000000081526004018080602001828103825260158152602001807f4f6e6c79204f776e65722068617320616363657373000000000000000000000081525060200191505060405180910390fd5b6001600360008373ffffffffffffffffffffffffffffffffffffffff1673ffffffffffffffffffffffffffffffffffffffff16815260200190815260200160002060006101000a81548160ff0219169083151502179055507f44d6d25963f097ad14f29f06854a01f575648a1ef82f30e562ccd3889717e33981604051808273ffffffffffffffffffffffffffffffffffffffff1673ffffffffffffffffffffffffffffffffffffffff16815260200191505060405180910390a150565b6040518060400160405280601081526020017f726f6c652f73746f72652d6f776e65720000000000000000000000000000000081525081565b61127a336040518060400160405280600e81526020017f726f6c652f7379732d61646d696e0000000000000000000000000000000000008152506109f2565b600160149054906101000a900460ff16156112fd576040517f08c379a000000000000000000000000000000000000000000000000000000000815260040180806020018281038252600e8152602001807f416c72656164792050617573656400000000000000000000000000000000000081525060200191505060405180910390fd5b60018060146101000a81548160ff0219169083151502179055507fab35696f06e428ebc5ceba8cd17f8fed287baf43440206d1943af1ee53e6d26760405160405180910390a1565b6007602052806000526040600020600091509050806000018054600181600116156101000203166002900480601f0160208091040260200160405190810160405280929190818152602001828054600181600116156101000203166002900480156113f15780601f106113c6576101008083540402835291602001916113f1565b820191906000526020600020905b8154815290600101906020018083116113d457829003601f168201915b5050505050905081565b60066020528060005260406000206000915090508060000160009054906101000a900473ffffffffffffffffffffffffffffffffffffffff1690806001018054600181600116156101000203166002900480601f0160208091040260200160405190810160405280929190818152602001828054600181600116156101000203166002900480156114cd5780601f106114a2576101008083540402835291602001916114cd565b820191906000526020600020905b8154815290600101906020018083116114b057829003601f168201915b5050505050908060020154908060030154905084565b6000600160149054906101000a900460ff1615611568576040517f08c379a000000000000000000000000000000000000000000000000000000000815260040180806020018281038252600e8152602001807f416c72656164792050617573656400000000000000000000000000000000000081525060200191505060405180910390fd5b83602380825111156115c5576040517f08c379a000000000000000000000000000000000000000000000000000000000815260040180806020018281038252602781526020018061203a6027913960400191505060405180910390fd5b8560066000600554815260200190815260200160002060010190805190602001906115f1929190611f94565b508460066000600554815260200190815260200160002060000160006101000a81548173ffffffffffffffffffffffffffffffffffffffff021916908373ffffffffffffffffffffffffffffffffffffffff16021790555083600660006005548152602001908152602001600020600201819055506116736005546001611d7c565b6005819055507f14a5199f2fb2f8440ae41be41d4a191e067087a0db7aabe07cfd851bda44091786868660405180806020018473ffffffffffffffffffffffffffffffffffffffff1673ffffffffffffffffffffffffffffffffffffffff168152602001838152602001828103825285818151815260200191508051906020019080838360005b838110156117155780820151818401526020810190506116fa565b50505050905090810190601f1680156117425780820380516001836020036101000a031916815260200191505b5094505050505060405180910390a1600554925050509392505050565b600160009054906101000a900473ffffffffffffffffffffffffffffffffffffffff1673ffffffffffffffffffffffffffffffffffffffff163373ffffffffffffffffffffffffffffffffffffffff1614611822576040517f08c379a00000000000000000000000000000000000000000000000000000000081526004018080602001828103825260158152602001807f4f6e6c79204f776e65722068617320616363657373000000000000000000000081525060200191505060405180910390fd5b600073ffffffffffffffffffffffffffffffffffffffff168173ffffffffffffffffffffffffffffffffffffffff1614156118c5576040517f08c379a00000000000000000000000000000000000000000000000000000000081526004018080602001828103825260168152602001807f416464726573732063616e277420626520656d7074790000000000000000000081525060200191505060405180910390fd5b80600160006101000a81548173ffffffffffffffffffffffffffffffffffffffff021916908373ffffffffffffffffffffffffffffffffffffffff160217905550611967600160009054906101000a900473ffffffffffffffffffffffffffffffffffffffff166040518060400160405280600e81526020017f726f6c652f7379732d61646d696e000000000000000000000000000000000000815250611e04565b6119c8600160009054906101000a900473ffffffffffffffffffffffffffffffffffffffff166040518060400160405280601081526020017f726f6c652f73746f72652d6f776e657200000000000000000000000000000000815250611e04565b50565b6000600160149054906101000a900460ff1615611a50576040517f08c379a000000000000000000000000000000000000000000000000000000000815260040180806020018281038252600e8152602001807f416c72656164792050617573656400000000000000000000000000000000000081525060200191505060405180910390fd5b8560238082511115611aad576040517f08c379a000000000000000000000000000000000000000000000000000000000815260040180806020018281038252602781526020018061203a6027913960400191505060405180910390fd5b33856006600082815260200190815260200160002060000160009054906101000a900473ffffffffffffffffffffffffffffffffffffffff1673ffffffffffffffffffffffffffffffffffffffff168273ffffffffffffffffffffffffffffffffffffffff1614611b1d57600080fd5b611b2a6004546001611d7c565b6004819055506000600660008981526020019081526020016000206002015490508a600660008a815260200190815260200160002060040160008381526020019081526020016000206001019080519060200190611b89929190611f94565b5089600660008a815260200190815260200160002060040160008381526020019081526020016000206002018190555088600660008a815260200190815260200160002060040160008381526020019081526020016000206000018190555086600660008a815260200190815260200160002060040160008381526020019081526020016000206003019080519060200190611c26929190611f94565b50611c32816001611d7c565b600660008a815260200190815260200160002060020181905550877f9b3f0c6056f25e599601a219048d499c8f9f32ee9a385b4559ed8bf762c8d3078a8d8d6040518084815260200180602001838152602001828103825284818151815260200191508051906020019080838360005b83811015611cbd578082015181840152602081019050611ca2565b50505050905090810190601f168015611cea5780820380516001836020036101000a031916815260200191505b5094505050505060405180910390a26004549550505050505095945050505050565b611d168282611d23565b611d1f57600080fd5b5050565b60008260000160008373ffffffffffffffffffffffffffffffffffffffff1673ffffffffffffffffffffffffffffffffffffffff16815260200190815260200160002060009054906101000a900460ff16905092915050565b600080828401905083811015611dfa576040517f08c379a000000000000000000000000000000000000000000000000000000000815260040180806020018281038252601b8152602001807f536166654d6174683a206164646974696f6e206f766572666c6f77000000000081525060200191505060405180910390fd5b8091505092915050565b611e7f826000836040518082805190602001908083835b60208310611e3e5780518252602082019150602081019050602083039250611e1b565b6001836020036101000a0380198251168184511680821785525050505050509050019150509081526020016040518091039020611f3690919063ffffffff16565b8173ffffffffffffffffffffffffffffffffffffffff167fbfec83d64eaa953f2708271a023ab9ee82057f8f3578d548c1a4ba0b5b700489826040518080602001828103825283818151815260200191508051906020019080838360005b83811015611ef8578082015181840152602081019050611edd565b50505050905090810190601f168015611f255780820380516001836020036101000a031916815260200191505b509250505060405180910390a25050565b60018260000160008373ffffffffffffffffffffffffffffffffffffffff1673ffffffffffffffffffffffffffffffffffffffff16815260200190815260200160002060006101000a81548160ff0219169083151502179055505050565b828054600181600116156101000203166002900490600052602060002090601f016020900481019282601f10611fd557805160ff1916838001178555612003565b82800160010185558215612003579182015b82811115612002578251825591602001919060010190611fe7565b5b5090506120109190612014565b5090565b61203691905b8082111561203257600081600090555060010161201a565b5090565b9056fe4d617820636861726163746572732061726520333520666f72206e616d65206f662073746f7265a165627a7a72305820ab756b0285e04c2ca284b228a1cf2a92a0e8eba9d3771d9555a77e8cd16697660029",
  "source": "pragma solidity ^0.5.0;\n\nimport \"contracts/StoreFactory.sol\";\n\ncontract ItemFactory is StoreFactory {\n\n    event NewItem(uint256 itemId, uint256 indexed userId, string _itemName, uint256 price);\n\n    function newItem(string memory _itemName, uint _itemPrice, uint _itemSKU, uint _storeId, string memory _imageHash) \n        public \n        notPaused\n        validNameLength(_itemName, 35)\n        isStoreOwner(msg.sender, _storeId)\n        returns (uint)\n    {\n        skuTotal = SafeMath.add(skuTotal, 1);\n        // increase  items total\n        uint total = stores[_storeId].skuTotal;\n\n        stores[_storeId].items[total].name = _itemName;\n        stores[_storeId].items[total].price = _itemPrice;\n        stores[_storeId].items[total].sku = _itemSKU;\n        stores[_storeId].items[total].image = _imageHash;\n\n        // increase items total in Stores\n        stores[_storeId].skuTotal = SafeMath.add(total, 1); \n\n        emit NewItem(_itemSKU, _storeId, _itemName, _itemPrice );\n\n        return skuTotal;\n    }\n}\n\n",
  "sourcePath": "/Users/luminode/Training/blockchainmarket/contracts/ItemFactory.sol",
  "compiler": {
    "name": "solc",
    "version": "0.5.8+commit.23d335f2.Emscripten.clang"
  },
  "schemaVersion": "3.0.11",
  "updatedAt": "2019-07-30T06:21:12.226Z",
  "devdoc": {
    "methods": {
      "checkRole(address,string)": {
        "details": "reverts if addr does not have role",
        "params": {
          "_operator": "address",
          "_role": "the name of the role // reverts"
        }
      },
      "hasRole(address,string)": {
        "details": "determine if addr has role",
        "params": {
          "_operator": "address",
          "_role": "the name of the role"
        },
        "return": "bool"
      }
    }
  },
  "userdoc": {
    "methods": {}
  }
}