{
  "contractName": "StoreFactory",
  "abi": [
    {
      "constant": true,
      "inputs": [
        {
          "name": "_operator",
          "type": "address"
        },
        {
          "name": "_role",
          "type": "string"
        }
      ],
      "name": "checkRole",
      "outputs": [],
      "payable": false,
      "stateMutability": "view",
      "type": "function"
    },
    {
      "constant": false,
      "inputs": [
        {
          "name": "_oldAdmin",
          "type": "address"
        }
      ],
      "name": "removeAdmin",
      "outputs": [],
      "payable": false,
      "stateMutability": "nonpayable",
      "type": "function"
    },
    {
      "constant": true,
      "inputs": [
        {
          "name": "_operator",
          "type": "address"
        },
        {
          "name": "_role",
          "type": "string"
        }
      ],
      "name": "hasRole",
      "outputs": [
        {
          "name": "",
          "type": "bool"
        }
      ],
      "payable": false,
      "stateMutability": "view",
      "type": "function"
    },
    {
      "constant": false,
      "inputs": [],
      "name": "unpause",
      "outputs": [],
      "payable": false,
      "stateMutability": "nonpayable",
      "type": "function"
    },
    {
      "constant": true,
      "inputs": [
        {
          "name": "",
          "type": "address"
        }
      ],
      "name": "admins",
      "outputs": [
        {
          "name": "",
          "type": "bool"
        }
      ],
      "payable": false,
      "stateMutability": "view",
      "type": "function"
    },
    {
      "constant": false,
      "inputs": [
        {
          "name": "_newAddr",
          "type": "address"
        }
      ],
      "name": "setNetAddress",
      "outputs": [],
      "payable": false,
      "stateMutability": "nonpayable",
      "type": "function"
    },
    {
      "constant": true,
      "inputs": [],
      "name": "ROLE_SYS_ADMIN",
      "outputs": [
        {
          "name": "",
          "type": "string"
        }
      ],
      "payable": false,
      "stateMutability": "view",
      "type": "function"
    },
    {
      "constant": true,
      "inputs": [],
      "name": "paused",
      "outputs": [
        {
          "name": "",
          "type": "bool"
        }
      ],
      "payable": false,
      "stateMutability": "view",
      "type": "function"
    },
    {
      "constant": true,
      "inputs": [],
      "name": "newContractAddress",
      "outputs": [
        {
          "name": "",
          "type": "address"
        }
      ],
      "payable": false,
      "stateMutability": "view",
      "type": "function"
    },
    {
      "constant": false,
      "inputs": [
        {
          "name": "_newAdmin",
          "type": "address"
        }
      ],
      "name": "setAdmin",
      "outputs": [],
      "payable": false,
      "stateMutability": "nonpayable",
      "type": "function"
    },
    {
      "constant": true,
      "inputs": [],
      "name": "ROLE_STORE_OWNER",
      "outputs": [
        {
          "name": "",
          "type": "string"
        }
      ],
      "payable": false,
      "stateMutability": "view",
      "type": "function"
    },
    {
      "constant": false,
      "inputs": [],
      "name": "pause",
      "outputs": [],
      "payable": false,
      "stateMutability": "nonpayable",
      "type": "function"
    },
    {
      "constant": true,
      "inputs": [
        {
          "name": "",
          "type": "address"
        }
      ],
      "name": "users",
      "outputs": [
        {
          "name": "name",
          "type": "string"
        }
      ],
      "payable": false,
      "stateMutability": "view",
      "type": "function"
    },
    {
      "constant": true,
      "inputs": [
        {
          "name": "",
          "type": "uint256"
        }
      ],
      "name": "stores",
      "outputs": [
        {
          "name": "owner",
          "type": "address"
        },
        {
          "name": "name",
          "type": "string"
        },
        {
          "name": "skuTotal",
          "type": "uint256"
        },
        {
          "name": "balance",
          "type": "uint256"
        }
      ],
      "payable": false,
      "stateMutability": "view",
      "type": "function"
    },
    {
      "constant": false,
      "inputs": [
        {
          "name": "_newOwner",
          "type": "address"
        }
      ],
      "name": "transferOwnership",
      "outputs": [],
      "payable": false,
      "stateMutability": "nonpayable",
      "type": "function"
    },
    {
      "anonymous": false,
      "inputs": [
        {
          "indexed": false,
          "name": "_storeName",
          "type": "string"
        },
        {
          "indexed": false,
          "name": "_storeOwner",
          "type": "address"
        },
        {
          "indexed": false,
          "name": "_skuTotal",
          "type": "uint256"
        }
      ],
      "name": "NewStore",
      "type": "event"
    },
    {
      "anonymous": false,
      "inputs": [
        {
          "indexed": false,
          "name": "newContract",
          "type": "address"
        }
      ],
      "name": "ContractUpgrade",
      "type": "event"
    },
    {
      "anonymous": false,
      "inputs": [
        {
          "indexed": false,
          "name": "_newAdmin",
          "type": "address"
        }
      ],
      "name": "AdminAdded",
      "type": "event"
    },
    {
      "anonymous": false,
      "inputs": [
        {
          "indexed": false,
          "name": "_oldAdmin",
          "type": "address"
        }
      ],
      "name": "AdminRemoved",
      "type": "event"
    },
    {
      "anonymous": false,
      "inputs": [],
      "name": "ContractPaused",
      "type": "event"
    },
    {
      "anonymous": false,
      "inputs": [],
      "name": "ContractUnpaused",
      "type": "event"
    },
    {
      "anonymous": false,
      "inputs": [
        {
          "indexed": true,
          "name": "operator",
          "type": "address"
        },
        {
          "indexed": false,
          "name": "role",
          "type": "string"
        }
      ],
      "name": "RoleAdded",
      "type": "event"
    },
    {
      "anonymous": false,
      "inputs": [
        {
          "indexed": true,
          "name": "operator",
          "type": "address"
        },
        {
          "indexed": false,
          "name": "role",
          "type": "string"
        }
      ],
      "name": "RoleRemoved",
      "type": "event"
    },
    {
      "constant": false,
      "inputs": [
        {
          "name": "_storeName",
          "type": "string"
        },
        {
          "name": "_storeOwner",
          "type": "address"
        },
        {
          "name": "_storeSkuTotal",
          "type": "uint256"
        }
      ],
      "name": "newStore",
      "outputs": [
        {
          "name": "",
          "type": "uint256"
        }
      ],
      "payable": false,
      "stateMutability": "nonpayable",
      "type": "function"
    }
  ],
  "bytecode": "0x60806040526000600160146101000a81548160ff0219169083151502179055506000600455600060055560018060146101000a81548160ff02191690831515021790555033600160006101000a81548173ffffffffffffffffffffffffffffffffffffffff021916908373ffffffffffffffffffffffffffffffffffffffff160217905550620000ed600160009054906101000a900473ffffffffffffffffffffffffffffffffffffffff166040518060400160405280600e81526020017f726f6c652f7379732d61646d696e0000000000000000000000000000000000008152506200015c60201b60201c565b62000156600160009054906101000a900473ffffffffffffffffffffffffffffffffffffffff166040518060400160405280601081526020017f726f6c652f73746f72652d6f776e6572000000000000000000000000000000008152506200015c60201b60201c565b620002f8565b620001e0826000836040518082805190602001908083835b6020831062000199578051825260208201915060208101905060208303925062000174565b6001836020036101000a03801982511681845116808217855250505050505090500191505090815260200160405180910390206200029a60201b62001a661790919060201c565b8173ffffffffffffffffffffffffffffffffffffffff167fbfec83d64eaa953f2708271a023ab9ee82057f8f3578d548c1a4ba0b5b700489826040518080602001828103825283818151815260200191508051906020019080838360005b838110156200025b5780820151818401526020810190506200023e565b50505050905090810190601f168015620002895780820380516001836020036101000a031916815260200191505b509250505060405180910390a25050565b60018260000160008373ffffffffffffffffffffffffffffffffffffffff1673ffffffffffffffffffffffffffffffffffffffff16815260200190815260200160002060006101000a81548160ff0219169083151502179055505050565b611bbc80620003086000396000f3fe608060405234801561001057600080fd5b50600436106101005760003560e01c80636af04a5711610097578063a87430ba11610066578063a87430ba14610581578063e8a59cd81461063e578063eefb1c6214610726578063f2fde38b1461081f57610100565b80636af04a5714610466578063704b6c02146104b0578063804ce1df146104f45780638456cb591461057757610100565b8063429b62e5116100d3578063429b62e5146103215780634e730d731461037d57806356de8ccd146103c15780635c975abb1461044457610100565b80630988ca8c146101055780631785f53c146101e0578063217fe6c6146102245780633f4ba83a14610317575b600080fd5b6101de6004803603604081101561011b57600080fd5b81019080803573ffffffffffffffffffffffffffffffffffffffff1690602001909291908035906020019064010000000081111561015857600080fd5b82018360208201111561016a57600080fd5b8035906020019184600183028401116401000000008311171561018c57600080fd5b91908080601f016020809104026020016040519081016040528093929190818152602001838380828437600081840152601f19601f820116905080830192505050505050509192919290505050610863565b005b610222600480360360208110156101f657600080fd5b81019080803573ffffffffffffffffffffffffffffffffffffffff1690602001909291905050506108e2565b005b6102fd6004803603604081101561023a57600080fd5b81019080803573ffffffffffffffffffffffffffffffffffffffff1690602001909291908035906020019064010000000081111561027757600080fd5b82018360208201111561028957600080fd5b803590602001918460018302840111640100000000831117156102ab57600080fd5b91908080601f016020809104026020016040519081016040528093929190818152602001838380828437600081840152601f19601f820116905080830192505050505050509192919290505050610ae6565b604051808215151515815260200191505060405180910390f35b61031f610b6b565b005b6103636004803603602081101561033757600080fd5b81019080803573ffffffffffffffffffffffffffffffffffffffff169060200190929190505050610c75565b604051808215151515815260200191505060405180910390f35b6103bf6004803603602081101561039357600080fd5b81019080803573ffffffffffffffffffffffffffffffffffffffff169060200190929190505050610c95565b005b6103c9610dfd565b6040518080602001828103825283818151815260200191508051906020019080838360005b838110156104095780820151818401526020810190506103ee565b50505050905090810190601f1680156104365780820380516001836020036101000a031916815260200191505b509250505060405180910390f35b61044c610e36565b604051808215151515815260200191505060405180910390f35b61046e610e49565b604051808273ffffffffffffffffffffffffffffffffffffffff1673ffffffffffffffffffffffffffffffffffffffff16815260200191505060405180910390f35b6104f2600480360360208110156104c657600080fd5b81019080803573ffffffffffffffffffffffffffffffffffffffff169060200190929190505050610e6f565b005b6104fc611073565b6040518080602001828103825283818151815260200191508051906020019080838360005b8381101561053c578082015181840152602081019050610521565b50505050905090810190601f1680156105695780820380516001836020036101000a031916815260200191505b509250505060405180910390f35b61057f6110ac565b005b6105c36004803603602081101561059757600080fd5b81019080803573ffffffffffffffffffffffffffffffffffffffff1690602001909291905050506111b6565b6040518080602001828103825283818151815260200191508051906020019080838360005b838110156106035780820151818401526020810190506105e8565b50505050905090810190601f1680156106305780820380516001836020036101000a031916815260200191505b509250505060405180910390f35b61066a6004803603602081101561065457600080fd5b810190808035906020019092919050505061126c565b604051808573ffffffffffffffffffffffffffffffffffffffff1673ffffffffffffffffffffffffffffffffffffffff16815260200180602001848152602001838152602001828103825285818151815260200191508051906020019080838360005b838110156106e85780820151818401526020810190506106cd565b50505050905090810190601f1680156107155780820380516001836020036101000a031916815260200191505b509550505050505060405180910390f35b6108096004803603606081101561073c57600080fd5b810190808035906020019064010000000081111561075957600080fd5b82018360208201111561076b57600080fd5b8035906020019184600183028401116401000000008311171561078d57600080fd5b91908080601f016020809104026020016040519081016040528093929190818152602001838380828437600081840152601f19601f820116905080830192505050505050509192919290803573ffffffffffffffffffffffffffffffffffffffff16906020019092919080359060200190929190505050611354565b6040518082815260200191505060405180910390f35b6108616004803603602081101561083557600080fd5b81019080803573ffffffffffffffffffffffffffffffffffffffff1690602001909291905050506115d0565b005b6108de826000836040518082805190602001908083835b6020831061089d578051825260208201915060208101905060208303925061087a565b6001836020036101000a038019825116818451168082178552505050505050905001915050908152602001604051809103902061183c90919063ffffffff16565b5050565b600160009054906101000a900473ffffffffffffffffffffffffffffffffffffffff1673ffffffffffffffffffffffffffffffffffffffff163373ffffffffffffffffffffffffffffffffffffffff16146109a5576040517f08c379a00000000000000000000000000000000000000000000000000000000081526004018080602001828103825260158152602001807f4f6e6c79204f776e65722068617320616363657373000000000000000000000081525060200191505060405180910390fd5b600160149054906101000a900460ff1615610a28576040517f08c379a000000000000000000000000000000000000000000000000000000000815260040180806020018281038252600e8152602001807f416c72656164792050617573656400000000000000000000000000000000000081525060200191505060405180910390fd5b6000600360008373ffffffffffffffffffffffffffffffffffffffff1673ffffffffffffffffffffffffffffffffffffffff16815260200190815260200160002060006101000a81548160ff0219169083151502179055507f44d6d25963f097ad14f29f06854a01f575648a1ef82f30e562ccd3889717e33981604051808273ffffffffffffffffffffffffffffffffffffffff1673ffffffffffffffffffffffffffffffffffffffff16815260200191505060405180910390a150565b6000610b63836000846040518082805190602001908083835b60208310610b225780518252602082019150602081019050602083039250610aff565b6001836020036101000a038019825116818451168082178552505050505050905001915050908152602001604051809103902061185390919063ffffffff16565b905092915050565b610baa336040518060400160405280600e81526020017f726f6c652f7379732d61646d696e000000000000000000000000000000000000815250610863565b600160149054906101000a900460ff16610c2c576040517f08c379a000000000000000000000000000000000000000000000000000000000815260040180806020018281038252600d8152602001807f4973206e6f74207061757365640000000000000000000000000000000000000081525060200191505060405180910390fd5b6000600160146101000a81548160ff0219169083151502179055507f0e5e3b3fb504c22cf5c42fa07d521225937514c654007e1f12646f89768d6f9460405160405180910390a1565b60036020528060005260406000206000915054906101000a900460ff1681565b610cd4336040518060400160405280600e81526020017f726f6c652f7379732d61646d696e000000000000000000000000000000000000815250610863565b600160149054906101000a900460ff16610d56576040517f08c379a000000000000000000000000000000000000000000000000000000000815260040180806020018281038252600d8152602001807f4973206e6f74207061757365640000000000000000000000000000000000000081525060200191505060405180910390fd5b80600260006101000a81548173ffffffffffffffffffffffffffffffffffffffff021916908373ffffffffffffffffffffffffffffffffffffffff1602179055507f450db8da6efbe9c22f2347f7c2021231df1fc58d3ae9a2fa75d39fa44619930581604051808273ffffffffffffffffffffffffffffffffffffffff1673ffffffffffffffffffffffffffffffffffffffff16815260200191505060405180910390a150565b6040518060400160405280600e81526020017f726f6c652f7379732d61646d696e00000000000000000000000000000000000081525081565b600160149054906101000a900460ff1681565b600260009054906101000a900473ffffffffffffffffffffffffffffffffffffffff1681565b600160149054906101000a900460ff1615610ef2576040517f08c379a000000000000000000000000000000000000000000000000000000000815260040180806020018281038252600e8152602001807f416c72656164792050617573656400000000000000000000000000000000000081525060200191505060405180910390fd5b600160009054906101000a900473ffffffffffffffffffffffffffffffffffffffff1673ffffffffffffffffffffffffffffffffffffffff163373ffffffffffffffffffffffffffffffffffffffff1614610fb5576040517f08c379a00000000000000000000000000000000000000000000000000000000081526004018080602001828103825260158152602001807f4f6e6c79204f776e65722068617320616363657373000000000000000000000081525060200191505060405180910390fd5b6001600360008373ffffffffffffffffffffffffffffffffffffffff1673ffffffffffffffffffffffffffffffffffffffff16815260200190815260200160002060006101000a81548160ff0219169083151502179055507f44d6d25963f097ad14f29f06854a01f575648a1ef82f30e562ccd3889717e33981604051808273ffffffffffffffffffffffffffffffffffffffff1673ffffffffffffffffffffffffffffffffffffffff16815260200191505060405180910390a150565b6040518060400160405280601081526020017f726f6c652f73746f72652d6f776e65720000000000000000000000000000000081525081565b6110eb336040518060400160405280600e81526020017f726f6c652f7379732d61646d696e000000000000000000000000000000000000815250610863565b600160149054906101000a900460ff161561116e576040517f08c379a000000000000000000000000000000000000000000000000000000000815260040180806020018281038252600e8152602001807f416c72656164792050617573656400000000000000000000000000000000000081525060200191505060405180910390fd5b60018060146101000a81548160ff0219169083151502179055507fab35696f06e428ebc5ceba8cd17f8fed287baf43440206d1943af1ee53e6d26760405160405180910390a1565b6007602052806000526040600020600091509050806000018054600181600116156101000203166002900480601f0160208091040260200160405190810160405280929190818152602001828054600181600116156101000203166002900480156112625780601f1061123757610100808354040283529160200191611262565b820191906000526020600020905b81548152906001019060200180831161124557829003601f168201915b5050505050905081565b60066020528060005260406000206000915090508060000160009054906101000a900473ffffffffffffffffffffffffffffffffffffffff1690806001018054600181600116156101000203166002900480601f01602080910402602001604051908101604052809291908181526020018280546001816001161561010002031660029004801561133e5780601f106113135761010080835404028352916020019161133e565b820191906000526020600020905b81548152906001019060200180831161132157829003601f168201915b5050505050908060020154908060030154905084565b6000600160149054906101000a900460ff16156113d9576040517f08c379a000000000000000000000000000000000000000000000000000000000815260040180806020018281038252600e8152602001807f416c72656164792050617573656400000000000000000000000000000000000081525060200191505060405180910390fd5b8360238082511115611436576040517f08c379a0000000000000000000000000000000000000000000000000000000008152600401808060200182810382526027815260200180611b6a6027913960400191505060405180910390fd5b856006600060055481526020019081526020016000206001019080519060200190611462929190611ac4565b508460066000600554815260200190815260200160002060000160006101000a81548173ffffffffffffffffffffffffffffffffffffffff021916908373ffffffffffffffffffffffffffffffffffffffff16021790555083600660006005548152602001908152602001600020600201819055506114e460055460016118ac565b6005819055507f14a5199f2fb2f8440ae41be41d4a191e067087a0db7aabe07cfd851bda44091786868660405180806020018473ffffffffffffffffffffffffffffffffffffffff1673ffffffffffffffffffffffffffffffffffffffff168152602001838152602001828103825285818151815260200191508051906020019080838360005b8381101561158657808201518184015260208101905061156b565b50505050905090810190601f1680156115b35780820380516001836020036101000a031916815260200191505b5094505050505060405180910390a1600554925050509392505050565b600160009054906101000a900473ffffffffffffffffffffffffffffffffffffffff1673ffffffffffffffffffffffffffffffffffffffff163373ffffffffffffffffffffffffffffffffffffffff1614611693576040517f08c379a00000000000000000000000000000000000000000000000000000000081526004018080602001828103825260158152602001807f4f6e6c79204f776e65722068617320616363657373000000000000000000000081525060200191505060405180910390fd5b600073ffffffffffffffffffffffffffffffffffffffff168173ffffffffffffffffffffffffffffffffffffffff161415611736576040517f08c379a00000000000000000000000000000000000000000000000000000000081526004018080602001828103825260168152602001807f416464726573732063616e277420626520656d7074790000000000000000000081525060200191505060405180910390fd5b80600160006101000a81548173ffffffffffffffffffffffffffffffffffffffff021916908373ffffffffffffffffffffffffffffffffffffffff1602179055506117d8600160009054906101000a900473ffffffffffffffffffffffffffffffffffffffff166040518060400160405280600e81526020017f726f6c652f7379732d61646d696e000000000000000000000000000000000000815250611934565b611839600160009054906101000a900473ffffffffffffffffffffffffffffffffffffffff166040518060400160405280601081526020017f726f6c652f73746f72652d6f776e657200000000000000000000000000000000815250611934565b50565b6118468282611853565b61184f57600080fd5b5050565b60008260000160008373ffffffffffffffffffffffffffffffffffffffff1673ffffffffffffffffffffffffffffffffffffffff16815260200190815260200160002060009054906101000a900460ff16905092915050565b60008082840190508381101561192a576040517f08c379a000000000000000000000000000000000000000000000000000000000815260040180806020018281038252601b8152602001807f536166654d6174683a206164646974696f6e206f766572666c6f77000000000081525060200191505060405180910390fd5b8091505092915050565b6119af826000836040518082805190602001908083835b6020831061196e578051825260208201915060208101905060208303925061194b565b6001836020036101000a0380198251168184511680821785525050505050509050019150509081526020016040518091039020611a6690919063ffffffff16565b8173ffffffffffffffffffffffffffffffffffffffff167fbfec83d64eaa953f2708271a023ab9ee82057f8f3578d548c1a4ba0b5b700489826040518080602001828103825283818151815260200191508051906020019080838360005b83811015611a28578082015181840152602081019050611a0d565b50505050905090810190601f168015611a555780820380516001836020036101000a031916815260200191505b509250505060405180910390a25050565b60018260000160008373ffffffffffffffffffffffffffffffffffffffff1673ffffffffffffffffffffffffffffffffffffffff16815260200190815260200160002060006101000a81548160ff0219169083151502179055505050565b828054600181600116156101000203166002900490600052602060002090601f016020900481019282601f10611b0557805160ff1916838001178555611b33565b82800160010185558215611b33579182015b82811115611b32578251825591602001919060010190611b17565b5b509050611b409190611b44565b5090565b611b6691905b80821115611b62576000816000905550600101611b4a565b5090565b9056fe4d617820636861726163746572732061726520333520666f72206e616d65206f662073746f7265a165627a7a7230582099b89a92a72241359c6bf24c0da46149ad22aa92bb443d48cf7e02be31412cd40029",
  "source": "pragma solidity ^0.5.0;\n\nimport \"contracts/BlockchainMarketBase.sol\";\n\ncontract StoreFactory is BlockchainMarketBase {\n\n    event NewStore(string _storeName, address _storeOwner, uint _skuTotal);\n    \n    function newStore(string memory _storeName, address payable _storeOwner, uint _storeSkuTotal)\n        public\n        notPaused\n        validNameLength(_storeName, 35)\n        returns (uint)\n    {\n        //Asign the new store values to the stores object in the mapping\n        stores[storeTotal].name = _storeName;\n        stores[storeTotal].owner = _storeOwner;\n        stores[storeTotal].skuTotal = _storeSkuTotal;\n\n        //Increment the count of stores\n        storeTotal = SafeMath.add(storeTotal, 1);\n\n        //Send an event with the name of the new store\n        emit NewStore(_storeName, _storeOwner, _storeSkuTotal);\n\n        //Return the new store count\n        return storeTotal;\n    }\n}",
  "sourcePath": "/Users/luminode/Training/blockchainmarket/contracts/StoreFactory.sol",
  "compiler": {
    "name": "solc",
    "version": "0.5.8+commit.23d335f2.Emscripten.clang"
  },
  "schemaVersion": "3.0.11",
  "updatedAt": "2019-08-09T19:14:15.855Z",
  "devdoc": {
    "methods": {
      "checkRole(address,string)": {
        "details": "reverts if addr does not have role",
        "params": {
          "_operator": "address",
          "_role": "the name of the role // reverts"
        }
      },
      "hasRole(address,string)": {
        "details": "determine if addr has role",
        "params": {
          "_operator": "address",
          "_role": "the name of the role"
        },
        "return": "bool"
      }
    }
  },
  "userdoc": {
    "methods": {}
  }
}