{
  "contractName": "Store",
  "abi": [
    {
      "constant": true,
      "inputs": [
        {
          "name": "_operator",
          "type": "address"
        },
        {
          "name": "_role",
          "type": "string"
        }
      ],
      "name": "checkRole",
      "outputs": [],
      "payable": false,
      "stateMutability": "view",
      "type": "function"
    },
    {
      "constant": true,
      "inputs": [
        {
          "name": "_operator",
          "type": "address"
        },
        {
          "name": "_role",
          "type": "string"
        }
      ],
      "name": "hasRole",
      "outputs": [
        {
          "name": "",
          "type": "bool"
        }
      ],
      "payable": false,
      "stateMutability": "view",
      "type": "function"
    },
    {
      "constant": true,
      "inputs": [
        {
          "name": "",
          "type": "uint256"
        }
      ],
      "name": "users",
      "outputs": [
        {
          "name": "userId",
          "type": "uint256"
        },
        {
          "name": "userAddr",
          "type": "address"
        },
        {
          "name": "userName",
          "type": "string"
        }
      ],
      "payable": false,
      "stateMutability": "view",
      "type": "function"
    },
    {
      "constant": false,
      "inputs": [],
      "name": "unpause",
      "outputs": [],
      "payable": false,
      "stateMutability": "nonpayable",
      "type": "function"
    },
    {
      "constant": false,
      "inputs": [
        {
          "name": "_newAddr",
          "type": "address"
        }
      ],
      "name": "setNetAddress",
      "outputs": [],
      "payable": false,
      "stateMutability": "nonpayable",
      "type": "function"
    },
    {
      "constant": true,
      "inputs": [],
      "name": "ROLE_SYS_ADMIN",
      "outputs": [
        {
          "name": "",
          "type": "string"
        }
      ],
      "payable": false,
      "stateMutability": "view",
      "type": "function"
    },
    {
      "constant": true,
      "inputs": [],
      "name": "paused",
      "outputs": [
        {
          "name": "",
          "type": "bool"
        }
      ],
      "payable": false,
      "stateMutability": "view",
      "type": "function"
    },
    {
      "constant": true,
      "inputs": [],
      "name": "newContractAddress",
      "outputs": [
        {
          "name": "",
          "type": "address"
        }
      ],
      "payable": false,
      "stateMutability": "view",
      "type": "function"
    },
    {
      "constant": true,
      "inputs": [
        {
          "name": "",
          "type": "uint256"
        }
      ],
      "name": "userRegistered",
      "outputs": [
        {
          "name": "",
          "type": "address"
        }
      ],
      "payable": false,
      "stateMutability": "view",
      "type": "function"
    },
    {
      "constant": true,
      "inputs": [],
      "name": "ROLE_STORE_OWNER",
      "outputs": [
        {
          "name": "",
          "type": "string"
        }
      ],
      "payable": false,
      "stateMutability": "view",
      "type": "function"
    },
    {
      "constant": false,
      "inputs": [],
      "name": "pause",
      "outputs": [],
      "payable": false,
      "stateMutability": "nonpayable",
      "type": "function"
    },
    {
      "constant": false,
      "inputs": [
        {
          "name": "_userName",
          "type": "string"
        }
      ],
      "name": "signUp",
      "outputs": [
        {
          "name": "",
          "type": "uint256"
        }
      ],
      "payable": false,
      "stateMutability": "nonpayable",
      "type": "function"
    },
    {
      "constant": false,
      "inputs": [
        {
          "name": "_userId",
          "type": "uint256"
        },
        {
          "name": "_itemName",
          "type": "string"
        },
        {
          "name": "_itemPrice",
          "type": "uint256"
        }
      ],
      "name": "addItem",
      "outputs": [
        {
          "name": "",
          "type": "uint256"
        }
      ],
      "payable": true,
      "stateMutability": "payable",
      "type": "function"
    },
    {
      "constant": true,
      "inputs": [
        {
          "name": "",
          "type": "uint256"
        }
      ],
      "name": "items",
      "outputs": [
        {
          "name": "itemId",
          "type": "uint256"
        },
        {
          "name": "userId",
          "type": "uint256"
        },
        {
          "name": "price",
          "type": "uint256"
        },
        {
          "name": "name",
          "type": "string"
        }
      ],
      "payable": false,
      "stateMutability": "view",
      "type": "function"
    },
    {
      "constant": true,
      "inputs": [
        {
          "name": "",
          "type": "uint256"
        },
        {
          "name": "",
          "type": "uint256"
        }
      ],
      "name": "userItems",
      "outputs": [
        {
          "name": "",
          "type": "uint256"
        }
      ],
      "payable": false,
      "stateMutability": "view",
      "type": "function"
    },
    {
      "anonymous": false,
      "inputs": [
        {
          "indexed": false,
          "name": "itemId",
          "type": "uint256"
        },
        {
          "indexed": true,
          "name": "userId",
          "type": "uint256"
        },
        {
          "indexed": false,
          "name": "_name",
          "type": "string"
        },
        {
          "indexed": false,
          "name": "price",
          "type": "uint256"
        }
      ],
      "name": "ItemAdded",
      "type": "event"
    },
    {
      "anonymous": false,
      "inputs": [
        {
          "indexed": false,
          "name": "userId",
          "type": "uint256"
        },
        {
          "indexed": true,
          "name": "userAddr",
          "type": "address"
        },
        {
          "indexed": false,
          "name": "userName",
          "type": "string"
        }
      ],
      "name": "NewUserSignUp",
      "type": "event"
    },
    {
      "anonymous": false,
      "inputs": [
        {
          "indexed": false,
          "name": "newContract",
          "type": "address"
        }
      ],
      "name": "ContractUpgrade",
      "type": "event"
    },
    {
      "anonymous": false,
      "inputs": [],
      "name": "ContractPaused",
      "type": "event"
    },
    {
      "anonymous": false,
      "inputs": [],
      "name": "ContractUnpaused",
      "type": "event"
    },
    {
      "anonymous": false,
      "inputs": [
        {
          "indexed": true,
          "name": "operator",
          "type": "address"
        },
        {
          "indexed": false,
          "name": "role",
          "type": "string"
        }
      ],
      "name": "RoleAdded",
      "type": "event"
    },
    {
      "anonymous": false,
      "inputs": [
        {
          "indexed": true,
          "name": "operator",
          "type": "address"
        },
        {
          "indexed": false,
          "name": "role",
          "type": "string"
        }
      ],
      "name": "RoleRemoved",
      "type": "event"
    },
    {
      "constant": false,
      "inputs": [
        {
          "name": "_address",
          "type": "address"
        }
      ],
      "name": "setBlockchainMarketBaseContractAddress",
      "outputs": [],
      "payable": false,
      "stateMutability": "nonpayable",
      "type": "function"
    }
  ],
  "bytecode": "0x60806040526000600160006101000a81548160ff02191690831515021790555060018060006101000a81548160ff02191690831515021790555062000080336040518060400160405280600e81526020017f726f6c652f7379732d61646d696e000000000000000000000000000000000000815250620000cd60201b60201c565b620000c7336040518060400160405280601081526020017f726f6c652f73746f72652d6f776e657200000000000000000000000000000000815250620000cd60201b60201c565b62000269565b62000151826000836040518082805190602001908083835b602083106200010a5780518252602082019150602081019050602083039250620000e5565b6001836020036101000a03801982511681845116808217855250505050505090500191505090815260200160405180910390206200020b60201b620018e91790919060201c565b8173ffffffffffffffffffffffffffffffffffffffff167fbfec83d64eaa953f2708271a023ab9ee82057f8f3578d548c1a4ba0b5b700489826040518080602001828103825283818151815260200191508051906020019080838360005b83811015620001cc578082015181840152602081019050620001af565b50505050905090810190601f168015620001fa5780820380516001836020036101000a031916815260200191505b509250505060405180910390a25050565b60018260000160008373ffffffffffffffffffffffffffffffffffffffff1673ffffffffffffffffffffffffffffffffffffffff16815260200190815260200160002060006101000a81548160ff0219169083151502179055505050565b611a1880620002796000396000f3fe6080604052600436106100f35760003560e01c80636af04a571161008a578063adcfb4fc11610059578063adcfb4fc146106bf578063b776fc1514610759578063bfb231d21461083c578063f81b46a914610905576100f3565b80636af04a57146105465780636b7a42e31461059d578063804ce1df146106185780638456cb59146106a8576100f3565b80633f4ba83a116100c65780633f4ba83a1461041f5780634e730d731461043657806356de8ccd146104875780635c975abb14610517576100f3565b80630988ca8c146100f8578063217fe6c6146101e0578063303ded49146102e0578063365b98b214610331575b600080fd5b34801561010457600080fd5b506101de6004803603604081101561011b57600080fd5b81019080803573ffffffffffffffffffffffffffffffffffffffff1690602001909291908035906020019064010000000081111561015857600080fd5b82018360208201111561016a57600080fd5b8035906020019184600183028401116401000000008311171561018c57600080fd5b91908080601f016020809104026020016040519081016040528093929190818152602001838380828437600081840152601f19601f82011690508083019250505050505050919291929050505061095e565b005b3480156101ec57600080fd5b506102c66004803603604081101561020357600080fd5b81019080803573ffffffffffffffffffffffffffffffffffffffff1690602001909291908035906020019064010000000081111561024057600080fd5b82018360208201111561025257600080fd5b8035906020019184600183028401116401000000008311171561027457600080fd5b91908080601f016020809104026020016040519081016040528093929190818152602001838380828437600081840152601f19601f8201169050808301925050505050505091929192905050506109dd565b604051808215151515815260200191505060405180910390f35b3480156102ec57600080fd5b5061032f6004803603602081101561030357600080fd5b81019080803573ffffffffffffffffffffffffffffffffffffffff169060200190929190505050610a62565b005b34801561033d57600080fd5b5061036a6004803603602081101561035457600080fd5b8101908080359060200190929190505050610b75565b604051808481526020018373ffffffffffffffffffffffffffffffffffffffff1673ffffffffffffffffffffffffffffffffffffffff16815260200180602001828103825283818151815260200191508051906020019080838360005b838110156103e25780820151818401526020810190506103c7565b50505050905090810190601f16801561040f5780820380516001836020036101000a031916815260200191505b5094505050505060405180910390f35b34801561042b57600080fd5b50610434610c64565b005b34801561044257600080fd5b506104856004803603602081101561045957600080fd5b81019080803573ffffffffffffffffffffffffffffffffffffffff169060200190929190505050610d6e565b005b34801561049357600080fd5b5061049c610ed5565b6040518080602001828103825283818151815260200191508051906020019080838360005b838110156104dc5780820151818401526020810190506104c1565b50505050905090810190601f1680156105095780820380516001836020036101000a031916815260200191505b509250505060405180910390f35b34801561052357600080fd5b5061052c610f0e565b604051808215151515815260200191505060405180910390f35b34801561055257600080fd5b5061055b610f21565b604051808273ffffffffffffffffffffffffffffffffffffffff1673ffffffffffffffffffffffffffffffffffffffff16815260200191505060405180910390f35b3480156105a957600080fd5b506105d6600480360360208110156105c057600080fd5b8101908080359060200190929190505050610f46565b604051808273ffffffffffffffffffffffffffffffffffffffff1673ffffffffffffffffffffffffffffffffffffffff16815260200191505060405180910390f35b34801561062457600080fd5b5061062d610f79565b6040518080602001828103825283818151815260200191508051906020019080838360005b8381101561066d578082015181840152602081019050610652565b50505050905090810190601f16801561069a5780820380516001836020036101000a031916815260200191505b509250505060405180910390f35b3480156106b457600080fd5b506106bd610fb2565b005b3480156106cb57600080fd5b50610743600480360360208110156106e257600080fd5b81019080803590602001906401000000008111156106ff57600080fd5b82018360208201111561071157600080fd5b8035906020019184600183028401116401000000008311171561073357600080fd5b90919293919293905050506110bc565b6040518082815260200191505060405180910390f35b6108266004803603606081101561076f57600080fd5b81019080803590602001909291908035906020019064010000000081111561079657600080fd5b8201836020820111156107a857600080fd5b803590602001918460018302840111640100000000831117156107ca57600080fd5b91908080601f016020809104026020016040519081016040528093929190818152602001838380828437600081840152601f19601f820116905080830192505050505050509192919290803590602001909291905050506113c5565b6040518082815260200191505060405180910390f35b34801561084857600080fd5b506108756004803603602081101561085f57600080fd5b8101908080359060200190929190505050611644565b6040518085815260200184815260200183815260200180602001828103825283818151815260200191508051906020019080838360005b838110156108c75780820151818401526020810190506108ac565b50505050905090810190601f1680156108f45780820380516001836020036101000a031916815260200191505b509550505050505060405180910390f35b34801561091157600080fd5b506109486004803603604081101561092857600080fd5b810190808035906020019092919080359060200190929190505050611719565b6040518082815260200191505060405180910390f35b6109d9826000836040518082805190602001908083835b602083106109985780518252602082019150602081019050602083039250610975565b6001836020036101000a038019825116818451168082178552505050505050905001915050908152602001604051809103902061174790919063ffffffff16565b5050565b6000610a5a836000846040518082805190602001908083835b60208310610a1957805182526020820191506020810190506020830392506109f6565b6001836020036101000a038019825116818451168082178552505050505050905001915050908152602001604051809103902061175e90919063ffffffff16565b905092915050565b610aa1336040518060400160405280600e81526020017f726f6c652f7379732d61646d696e00000000000000000000000000000000000081525061095e565b60008190508073ffffffffffffffffffffffffffffffffffffffff1663ace87e8b6040518163ffffffff1660e01b815260040160206040518083038186803b158015610aec57600080fd5b505afa158015610b00573d6000803e3d6000fd5b505050506040513d6020811015610b1657600080fd5b8101908080519060200190929190505050610b3057600080fd5b80600860006101000a81548173ffffffffffffffffffffffffffffffffffffffff021916908373ffffffffffffffffffffffffffffffffffffffff1602179055505050565b60028181548110610b8257fe5b90600052602060002090600302016000915090508060000154908060010160009054906101000a900473ffffffffffffffffffffffffffffffffffffffff1690806002018054600181600116156101000203166002900480601f016020809104026020016040519081016040528092919081815260200182805460018160011615610100020316600290048015610c5a5780601f10610c2f57610100808354040283529160200191610c5a565b820191906000526020600020905b815481529060010190602001808311610c3d57829003601f168201915b5050505050905083565b610ca3336040518060400160405280600e81526020017f726f6c652f7379732d61646d696e00000000000000000000000000000000000081525061095e565b600160009054906101000a900460ff16610d25576040517f08c379a000000000000000000000000000000000000000000000000000000000815260040180806020018281038252600d8152602001807f4973206e6f74207061757365640000000000000000000000000000000000000081525060200191505060405180910390fd5b6000600160006101000a81548160ff0219169083151502179055507f0e5e3b3fb504c22cf5c42fa07d521225937514c654007e1f12646f89768d6f9460405160405180910390a1565b610dad336040518060400160405280600e81526020017f726f6c652f7379732d61646d696e00000000000000000000000000000000000081525061095e565b600160009054906101000a900460ff16610e2f576040517f08c379a000000000000000000000000000000000000000000000000000000000815260040180806020018281038252600d8152602001807f4973206e6f74207061757365640000000000000000000000000000000000000081525060200191505060405180910390fd5b806001806101000a81548173ffffffffffffffffffffffffffffffffffffffff021916908373ffffffffffffffffffffffffffffffffffffffff1602179055507f450db8da6efbe9c22f2347f7c2021231df1fc58d3ae9a2fa75d39fa44619930581604051808273ffffffffffffffffffffffffffffffffffffffff1673ffffffffffffffffffffffffffffffffffffffff16815260200191505060405180910390a150565b6040518060400160405280600e81526020017f726f6c652f7379732d61646d696e00000000000000000000000000000000000081525081565b600160009054906101000a900460ff1681565b6001809054906101000a900473ffffffffffffffffffffffffffffffffffffffff1681565b60066020528060005260406000206000915054906101000a900473ffffffffffffffffffffffffffffffffffffffff1681565b6040518060400160405280601081526020017f726f6c652f73746f72652d6f776e65720000000000000000000000000000000081525081565b610ff1336040518060400160405280600e81526020017f726f6c652f7379732d61646d696e00000000000000000000000000000000000081525061095e565b600160009054906101000a900460ff1615611074576040517f08c379a000000000000000000000000000000000000000000000000000000000815260040180806020018281038252600e8152602001807f416c72656164792050617573656400000000000000000000000000000000000081525060200191505060405180910390fd5b60018060006101000a81548160ff0219169083151502179055507fab35696f06e428ebc5ceba8cd17f8fed287baf43440206d1943af1ee53e6d26760405160405180910390a1565b6000600160009054906101000a900460ff1615611141576040517f08c379a000000000000000000000000000000000000000000000000000000000815260040180806020018281038252600e8152602001807f416c72656164792050617573656400000000000000000000000000000000000081525060200191505060405180910390fd5b600060028054905090506000339050600260405180606001604052808481526020018373ffffffffffffffffffffffffffffffffffffffff16815260200187878080601f016020809104026020016040519081016040528093929190818152602001838380828437600081840152601f19601f82011690508083019250505050505050815250908060018154018082558091505090600182039060005260206000209060030201600090919290919091506000820151816000015560208201518160010160006101000a81548173ffffffffffffffffffffffffffffffffffffffff021916908373ffffffffffffffffffffffffffffffffffffffff160217905550604082015181600201908051906020019061125f929190611947565b50505050806006600084815260200190815260200160002060006101000a81548173ffffffffffffffffffffffffffffffffffffffff021916908373ffffffffffffffffffffffffffffffffffffffff16021790555081600560008373ffffffffffffffffffffffffffffffffffffffff1673ffffffffffffffffffffffffffffffffffffffff16815260200190815260200160002081905550611338816040518060400160405280601081526020017f726f6c652f73746f72652d6f776e6572000000000000000000000000000000008152506117b7565b8073ffffffffffffffffffffffffffffffffffffffff167f971d5202970f7df6de485a4f216b8e633cc033b64d287d015a021575001cd60683878760405180848152602001806020018281038252848482818152602001925080828437600081840152601f19601f82011690508083019250505094505050505060405180910390a2819250505092915050565b6000600160009054906101000a900460ff161561144a576040517f08c379a000000000000000000000000000000000000000000000000000000000815260040180806020018281038252600e8152602001807f416c72656164792050617573656400000000000000000000000000000000000081525060200191505060405180910390fd5b60006003805490509050600033905060036040518060800160405280848152602001888152602001868152602001878152509080600181540180825580915050906001820390600052602060002090600402016000909192909190915060008201518160000155602082015181600101556040820151816002015560608201518160030190805190602001906114e1929190611947565b50505050600460008273ffffffffffffffffffffffffffffffffffffffff1673ffffffffffffffffffffffffffffffffffffffff16815260200190815260200160002082908060018154018082558091505090600182039060005260206000200160009091929091909150555060076000878152602001908152602001600020829080600181540180825580915050906001820390600052602060002001600090919290919091505550857f88eb44466bf5cfbfd5062702e6f25bb0781b06e06e338df7f3405accf6eea4508387876040518084815260200180602001838152602001828103825284818151815260200191508051906020019080838360005b838110156115fc5780820151818401526020810190506115e1565b50505050905090810190601f1680156116295780820380516001836020036101000a031916815260200191505b5094505050505060405180910390a281925050509392505050565b6003818154811061165157fe5b9060005260206000209060040201600091509050806000015490806001015490806002015490806003018054600181600116156101000203166002900480601f01602080910402602001604051908101604052809291908181526020018280546001816001161561010002031660029004801561170f5780601f106116e45761010080835404028352916020019161170f565b820191906000526020600020905b8154815290600101906020018083116116f257829003601f168201915b5050505050905084565b6007602052816000526040600020818154811061173257fe5b90600052602060002001600091509150505481565b611751828261175e565b61175a57600080fd5b5050565b60008260000160008373ffffffffffffffffffffffffffffffffffffffff1673ffffffffffffffffffffffffffffffffffffffff16815260200190815260200160002060009054906101000a900460ff16905092915050565b611832826000836040518082805190602001908083835b602083106117f157805182526020820191506020810190506020830392506117ce565b6001836020036101000a03801982511681845116808217855250505050505090500191505090815260200160405180910390206118e990919063ffffffff16565b8173ffffffffffffffffffffffffffffffffffffffff167fbfec83d64eaa953f2708271a023ab9ee82057f8f3578d548c1a4ba0b5b700489826040518080602001828103825283818151815260200191508051906020019080838360005b838110156118ab578082015181840152602081019050611890565b50505050905090810190601f1680156118d85780820380516001836020036101000a031916815260200191505b509250505060405180910390a25050565b60018260000160008373ffffffffffffffffffffffffffffffffffffffff1673ffffffffffffffffffffffffffffffffffffffff16815260200190815260200160002060006101000a81548160ff0219169083151502179055505050565b828054600181600116156101000203166002900490600052602060002090601f016020900481019282601f1061198857805160ff19168380011785556119b6565b828001600101855582156119b6579182015b828111156119b557825182559160200191906001019061199a565b5b5090506119c391906119c7565b5090565b6119e991905b808211156119e55760008160009055506001016119cd565b5090565b9056fea165627a7a72305820bbfb4672c87bca03ae7d80770564eb1d4d6a3d25e78a931fa7eb9f0c362b6b880029",
  "source": "pragma solidity ^0.5.0;\n\nimport \"contracts/ItemFactory.sol\";\nimport \"contracts/UserFactory.sol\";\n\ncontract Store is UserFactory, ItemFactory {\n\n    function setBlockchainMarketBaseContractAddress(address _address) \n        external \n        isAdmin\n    {\n        BlockchainMarketInterface candidateContract = BlockchainMarketInterface(_address);\n\n        require(candidateContract.isBlockchainMarket());\n\n        blockchainMarket = candidateContract;\n    }\n\n}",
  "sourcePath": "/Users/luminode/Training/blockchainmarket/contracts/Store.sol",
  "compiler": {
    "name": "solc",
    "version": "0.5.8+commit.23d335f2.Emscripten.clang"
  },
  "schemaVersion": "3.0.11",
  "updatedAt": "2019-07-26T07:07:44.684Z",
  "devdoc": {
    "methods": {
      "checkRole(address,string)": {
        "details": "reverts if addr does not have role",
        "params": {
          "_operator": "address",
          "_role": "the name of the role // reverts"
        }
      },
      "hasRole(address,string)": {
        "details": "determine if addr has role",
        "params": {
          "_operator": "address",
          "_role": "the name of the role"
        },
        "return": "bool"
      }
    }
  },
  "userdoc": {
    "methods": {}
  }
}